{
	"Conditionals.sol": {
		"Conditionals": {
			"abi": [
				{
					"inputs": [],
					"stateMutability": "nonpayable",
					"type": "constructor"
				},
				{
					"inputs": [
						{
							"internalType": "uint256",
							"name": "_number",
							"type": "uint256"
						}
					],
					"name": "bigNumber",
					"outputs": [
						{
							"internalType": "bool",
							"name": "",
							"type": "bool"
						}
					],
					"stateMutability": "pure",
					"type": "function"
				},
				{
					"inputs": [],
					"name": "countElements",
					"outputs": [
						{
							"internalType": "uint256",
							"name": "",
							"type": "uint256"
						}
					],
					"stateMutability": "view",
					"type": "function"
				},
				{
					"inputs": [],
					"name": "gotoZero",
					"outputs": [
						{
							"internalType": "uint256",
							"name": "",
							"type": "uint256"
						}
					],
					"stateMutability": "pure",
					"type": "function"
				},
				{
					"inputs": [],
					"name": "howMany",
					"outputs": [
						{
							"internalType": "uint256",
							"name": "",
							"type": "uint256"
						}
					],
					"stateMutability": "view",
					"type": "function"
				},
				{
					"inputs": [],
					"name": "isOwner",
					"outputs": [
						{
							"internalType": "bool",
							"name": "",
							"type": "bool"
						}
					],
					"stateMutability": "view",
					"type": "function"
				},
				{
					"inputs": [],
					"name": "owner",
					"outputs": [
						{
							"internalType": "address",
							"name": "",
							"type": "address"
						}
					],
					"stateMutability": "view",
					"type": "function"
				},
				{
					"inputs": [
						{
							"internalType": "uint256",
							"name": "",
							"type": "uint256"
						}
					],
					"name": "values",
					"outputs": [
						{
							"internalType": "uint256",
							"name": "",
							"type": "uint256"
						}
					],
					"stateMutability": "view",
					"type": "function"
				}
			],
			"devdoc": {
				"kind": "dev",
				"methods": {},
				"version": 1
			},
			"evm": {
				"assembly": "    /* \"Conditionals.sol\":69:1302  contract Conditionals {... */\n  mstore(0x40, 0x80)\n    /* \"Conditionals.sol\":547:604  uint256[] public values = [1, 2, 3, 4, 5, 6, 7, 8, 9, 10] */\n  mload(0x40)\n  dup1\n  0x0140\n  add\n  0x40\n  mstore\n  dup1\n    /* \"Conditionals.sol\":574:575  1 */\n  0x01\n    /* \"Conditionals.sol\":547:604  uint256[] public values = [1, 2, 3, 4, 5, 6, 7, 8, 9, 10] */\n  0xff\n  and\n  dup2\n  mstore\n  0x20\n  add\n    /* \"Conditionals.sol\":577:578  2 */\n  0x02\n    /* \"Conditionals.sol\":547:604  uint256[] public values = [1, 2, 3, 4, 5, 6, 7, 8, 9, 10] */\n  0xff\n  and\n  dup2\n  mstore\n  0x20\n  add\n    /* \"Conditionals.sol\":580:581  3 */\n  0x03\n    /* \"Conditionals.sol\":547:604  uint256[] public values = [1, 2, 3, 4, 5, 6, 7, 8, 9, 10] */\n  0xff\n  and\n  dup2\n  mstore\n  0x20\n  add\n    /* \"Conditionals.sol\":583:584  4 */\n  0x04\n    /* \"Conditionals.sol\":547:604  uint256[] public values = [1, 2, 3, 4, 5, 6, 7, 8, 9, 10] */\n  0xff\n  and\n  dup2\n  mstore\n  0x20\n  add\n    /* \"Conditionals.sol\":586:587  5 */\n  0x05\n    /* \"Conditionals.sol\":547:604  uint256[] public values = [1, 2, 3, 4, 5, 6, 7, 8, 9, 10] */\n  0xff\n  and\n  dup2\n  mstore\n  0x20\n  add\n    /* \"Conditionals.sol\":589:590  6 */\n  0x06\n    /* \"Conditionals.sol\":547:604  uint256[] public values = [1, 2, 3, 4, 5, 6, 7, 8, 9, 10] */\n  0xff\n  and\n  dup2\n  mstore\n  0x20\n  add\n    /* \"Conditionals.sol\":592:593  7 */\n  0x07\n    /* \"Conditionals.sol\":547:604  uint256[] public values = [1, 2, 3, 4, 5, 6, 7, 8, 9, 10] */\n  0xff\n  and\n  dup2\n  mstore\n  0x20\n  add\n    /* \"Conditionals.sol\":595:596  8 */\n  0x08\n    /* \"Conditionals.sol\":547:604  uint256[] public values = [1, 2, 3, 4, 5, 6, 7, 8, 9, 10] */\n  0xff\n  and\n  dup2\n  mstore\n  0x20\n  add\n    /* \"Conditionals.sol\":598:599  9 */\n  0x09\n    /* \"Conditionals.sol\":547:604  uint256[] public values = [1, 2, 3, 4, 5, 6, 7, 8, 9, 10] */\n  0xff\n  and\n  dup2\n  mstore\n  0x20\n  add\n    /* \"Conditionals.sol\":601:603  10 */\n  0x0a\n    /* \"Conditionals.sol\":547:604  uint256[] public values = [1, 2, 3, 4, 5, 6, 7, 8, 9, 10] */\n  0xff\n  and\n  dup2\n  mstore\n  pop\n  0x01\n  swap1\n  0x0a\n  tag_1\n  swap3\n  swap2\n  swap1\n  tag_2\n  jump\t// in\ntag_1:\n  pop\n    /* \"Conditionals.sol\":124:178  constructor()... */\n  callvalue\n  dup1\n  iszero\n  tag_3\n  jumpi\n  0x00\n  dup1\n  revert\ntag_3:\n  pop\n    /* \"Conditionals.sol\":160:170  msg.sender */\n  caller\n    /* \"Conditionals.sol\":152:157  owner */\n  0x00\n  dup1\n    /* \"Conditionals.sol\":152:170  owner = msg.sender */\n  0x0100\n  exp\n  dup2\n  sload\n  dup2\n  0xffffffffffffffffffffffffffffffffffffffff\n  mul\n  not\n  and\n  swap1\n  dup4\n  0xffffffffffffffffffffffffffffffffffffffff\n  and\n  mul\n  or\n  swap1\n  sstore\n  pop\n    /* \"Conditionals.sol\":69:1302  contract Conditionals {... */\n  jump(tag_6)\ntag_2:\n  dup3\n  dup1\n  sload\n  dup3\n  dup3\n  sstore\n  swap1\n  0x00\n  mstore\n  keccak256(0x00, 0x20)\n  swap1\n  dup2\n  add\n  swap3\n  dup3\n  iszero\n  tag_7\n  jumpi\n  swap2\n  0x20\n  mul\n  dup3\n  add\ntag_8:\n  dup3\n  dup2\n  gt\n  iszero\n  tag_9\n  jumpi\n  dup3\n  mload\n  dup3\n  swap1\n  0xff\n  and\n  swap1\n  sstore\n  swap2\n  0x20\n  add\n  swap2\n  swap1\n  0x01\n  add\n  swap1\n  jump(tag_8)\ntag_9:\ntag_7:\n  pop\n  swap1\n  pop\n  tag_10\n  swap2\n  swap1\n  tag_11\n  jump\t// in\ntag_10:\n  pop\n  swap1\n  jump\t// out\ntag_11:\ntag_12:\n  dup1\n  dup3\n  gt\n  iszero\n  tag_13\n  jumpi\n  0x00\n  dup2\n  0x00\n  swap1\n  sstore\n  pop\n  0x01\n  add\n  jump(tag_12)\ntag_13:\n  pop\n  swap1\n  jump\t// out\ntag_6:\n  dataSize(sub_0)\n  dup1\n  dataOffset(sub_0)\n  0x00\n  codecopy\n  0x00\n  return\nstop\n\nsub_0: assembly {\n        /* \"Conditionals.sol\":69:1302  contract Conditionals {... */\n      mstore(0x40, 0x80)\n      callvalue\n      dup1\n      iszero\n      tag_1\n      jumpi\n      0x00\n      dup1\n      revert\n    tag_1:\n      pop\n      jumpi(tag_2, lt(calldatasize, 0x04))\n      shr(0xe0, calldataload(0x00))\n      dup1\n      0x8f32d59b\n      gt\n      tag_10\n      jumpi\n      dup1\n      0x8f32d59b\n      eq\n      tag_6\n      jumpi\n      dup1\n      0x9b1d9980\n      eq\n      tag_7\n      jumpi\n      dup1\n      0xa5321d46\n      eq\n      tag_8\n      jumpi\n      dup1\n      0xe1780c9d\n      eq\n      tag_9\n      jumpi\n      jump(tag_2)\n    tag_10:\n      dup1\n      0x5e383d21\n      eq\n      tag_3\n      jumpi\n      dup1\n      0x62ab8cc1\n      eq\n      tag_4\n      jumpi\n      dup1\n      0x8da5cb5b\n      eq\n      tag_5\n      jumpi\n    tag_2:\n      0x00\n      dup1\n      revert\n        /* \"Conditionals.sol\":547:604  uint256[] public values = [1, 2, 3, 4, 5, 6, 7, 8, 9, 10] */\n    tag_3:\n      tag_11\n      0x04\n      dup1\n      calldatasize\n      sub\n      dup2\n      add\n      swap1\n      tag_12\n      swap2\n      swap1\n      tag_13\n      jump\t// in\n    tag_12:\n      tag_14\n      jump\t// in\n    tag_11:\n      mload(0x40)\n      tag_15\n      swap2\n      swap1\n      tag_16\n      jump\t// in\n    tag_15:\n      mload(0x40)\n      dup1\n      swap2\n      sub\n      swap1\n      return\n        /* \"Conditionals.sol\":809:1053  function howMany() public view returns (uint256) {... */\n    tag_4:\n      tag_17\n      tag_18\n      jump\t// in\n    tag_17:\n      mload(0x40)\n      tag_19\n      swap2\n      swap1\n      tag_16\n      jump\t// in\n    tag_19:\n      mload(0x40)\n      dup1\n      swap2\n      sub\n      swap1\n      return\n        /* \"Conditionals.sol\":97:117  address public owner */\n    tag_5:\n      tag_20\n      tag_21\n      jump\t// in\n    tag_20:\n      mload(0x40)\n      tag_22\n      swap2\n      swap1\n      tag_23\n      jump\t// in\n    tag_22:\n      mload(0x40)\n      dup1\n      swap2\n      sub\n      swap1\n      return\n        /* \"Conditionals.sol\":183:361  function isOwner() public view returns(bool)... */\n    tag_6:\n      tag_24\n      tag_25\n      jump\t// in\n    tag_24:\n      mload(0x40)\n      tag_26\n      swap2\n      swap1\n      tag_27\n      jump\t// in\n    tag_26:\n      mload(0x40)\n      dup1\n      swap2\n      sub\n      swap1\n      return\n        /* \"Conditionals.sol\":366:541  function bigNumber(uint256 _number) public pure returns (bool) {... */\n    tag_7:\n      tag_28\n      0x04\n      dup1\n      calldatasize\n      sub\n      dup2\n      add\n      swap1\n      tag_29\n      swap2\n      swap1\n      tag_13\n      jump\t// in\n    tag_29:\n      tag_30\n      jump\t// in\n    tag_28:\n      mload(0x40)\n      tag_31\n      swap2\n      swap1\n      tag_27\n      jump\t// in\n    tag_31:\n      mload(0x40)\n      dup1\n      swap2\n      sub\n      swap1\n      return\n        /* \"Conditionals.sol\":611:803  function countElements() public view returns (uint256) {... */\n    tag_8:\n      tag_32\n      tag_33\n      jump\t// in\n    tag_32:\n      mload(0x40)\n      tag_34\n      swap2\n      swap1\n      tag_16\n      jump\t// in\n    tag_34:\n      mload(0x40)\n      dup1\n      swap2\n      sub\n      swap1\n      return\n        /* \"Conditionals.sol\":1059:1300  function gotoZero() public pure returns (uint256) {... */\n    tag_9:\n      tag_35\n      tag_36\n      jump\t// in\n    tag_35:\n      mload(0x40)\n      tag_37\n      swap2\n      swap1\n      tag_16\n      jump\t// in\n    tag_37:\n      mload(0x40)\n      dup1\n      swap2\n      sub\n      swap1\n      return\n        /* \"Conditionals.sol\":547:604  uint256[] public values = [1, 2, 3, 4, 5, 6, 7, 8, 9, 10] */\n    tag_14:\n      0x01\n      dup2\n      dup2\n      sload\n      dup2\n      lt\n      tag_38\n      jumpi\n      0x00\n      dup1\n      revert\n    tag_38:\n      swap1\n      0x00\n      mstore\n      keccak256(0x00, 0x20)\n      add\n      0x00\n      swap2\n      pop\n      swap1\n      pop\n      sload\n      dup2\n      jump\t// out\n        /* \"Conditionals.sol\":809:1053  function howMany() public view returns (uint256) {... */\n    tag_18:\n        /* \"Conditionals.sol\":849:856  uint256 */\n      0x00\n        /* \"Conditionals.sol\":868:881  uint256 count */\n      dup1\n        /* \"Conditionals.sol\":896:905  uint256 i */\n      0x00\n        /* \"Conditionals.sol\":891:1025  for (uint256 i = 0; i < values.length; i++) {... */\n    tag_41:\n        /* \"Conditionals.sol\":915:921  values */\n      0x01\n        /* \"Conditionals.sol\":915:928  values.length */\n      dup1\n      sload\n      swap1\n      pop\n        /* \"Conditionals.sol\":911:912  i */\n      dup2\n        /* \"Conditionals.sol\":911:928  i < values.length */\n      lt\n        /* \"Conditionals.sol\":891:1025  for (uint256 i = 0; i < values.length; i++) {... */\n      iszero\n      tag_42\n      jumpi\n        /* \"Conditionals.sol\":953:973  bigNumber(values[i]) */\n      tag_44\n        /* \"Conditionals.sol\":963:969  values */\n      0x01\n        /* \"Conditionals.sol\":970:971  i */\n      dup3\n        /* \"Conditionals.sol\":963:972  values[i] */\n      dup2\n      sload\n      dup2\n      lt\n      tag_45\n      jumpi\n      tag_46\n      tag_47\n      jump\t// in\n    tag_46:\n    tag_45:\n      swap1\n      0x00\n      mstore\n      keccak256(0x00, 0x20)\n      add\n      sload\n        /* \"Conditionals.sol\":953:962  bigNumber */\n      tag_30\n        /* \"Conditionals.sol\":953:973  bigNumber(values[i]) */\n      jump\t// in\n    tag_44:\n        /* \"Conditionals.sol\":949:1015  if (bigNumber(values[i])) {... */\n      iszero\n      tag_49\n      jumpi\n        /* \"Conditionals.sol\":993:1000  count++ */\n      dup2\n      dup1\n      tag_50\n      swap1\n      tag_51\n      jump\t// in\n    tag_50:\n      swap3\n      pop\n      pop\n        /* \"Conditionals.sol\":949:1015  if (bigNumber(values[i])) {... */\n    tag_49:\n        /* \"Conditionals.sol\":930:933  i++ */\n      dup1\n      dup1\n      tag_52\n      swap1\n      tag_51\n      jump\t// in\n    tag_52:\n      swap2\n      pop\n      pop\n        /* \"Conditionals.sol\":891:1025  for (uint256 i = 0; i < values.length; i++) {... */\n      jump(tag_41)\n    tag_42:\n      pop\n        /* \"Conditionals.sol\":1041:1046  count */\n      dup1\n        /* \"Conditionals.sol\":1034:1046  return count */\n      swap2\n      pop\n      pop\n        /* \"Conditionals.sol\":809:1053  function howMany() public view returns (uint256) {... */\n      swap1\n      jump\t// out\n        /* \"Conditionals.sol\":97:117  address public owner */\n    tag_21:\n      0x00\n      dup1\n      sload\n      swap1\n      0x0100\n      exp\n      swap1\n      div\n      0xffffffffffffffffffffffffffffffffffffffff\n      and\n      dup2\n      jump\t// out\n        /* \"Conditionals.sol\":183:361  function isOwner() public view returns(bool)... */\n    tag_25:\n        /* \"Conditionals.sol\":222:226  bool */\n      0x00\n        /* \"Conditionals.sol\":260:265  owner */\n      dup1\n      0x00\n      swap1\n      sload\n      swap1\n      0x0100\n      exp\n      swap1\n      div\n      0xffffffffffffffffffffffffffffffffffffffff\n      and\n        /* \"Conditionals.sol\":246:265  msg.sender == owner */\n      0xffffffffffffffffffffffffffffffffffffffff\n      and\n        /* \"Conditionals.sol\":246:256  msg.sender */\n      caller\n        /* \"Conditionals.sol\":246:265  msg.sender == owner */\n      0xffffffffffffffffffffffffffffffffffffffff\n      and\n      sub\n        /* \"Conditionals.sol\":242:355  if (msg.sender == owner){... */\n      tag_54\n      jumpi\n        /* \"Conditionals.sol\":287:291  true */\n      0x01\n        /* \"Conditionals.sol\":280:291  return true */\n      swap1\n      pop\n      jump(tag_53)\n        /* \"Conditionals.sol\":242:355  if (msg.sender == owner){... */\n    tag_54:\n        /* \"Conditionals.sol\":338:343  false */\n      0x00\n        /* \"Conditionals.sol\":331:343  return false */\n      swap1\n      pop\n        /* \"Conditionals.sol\":183:361  function isOwner() public view returns(bool)... */\n    tag_53:\n      swap1\n      jump\t// out\n        /* \"Conditionals.sol\":366:541  function bigNumber(uint256 _number) public pure returns (bool) {... */\n    tag_30:\n        /* \"Conditionals.sol\":423:427  bool */\n      0x00\n        /* \"Conditionals.sol\":453:454  5 */\n      0x05\n        /* \"Conditionals.sol\":443:450  _number */\n      dup3\n        /* \"Conditionals.sol\":443:454  _number > 5 */\n      gt\n        /* \"Conditionals.sol\":439:535  if (_number > 5) {... */\n      iszero\n      tag_57\n      jumpi\n        /* \"Conditionals.sol\":477:481  true */\n      0x01\n        /* \"Conditionals.sol\":470:481  return true */\n      swap1\n      pop\n      jump(tag_56)\n        /* \"Conditionals.sol\":439:535  if (_number > 5) {... */\n    tag_57:\n        /* \"Conditionals.sol\":519:524  false */\n      0x00\n        /* \"Conditionals.sol\":512:524  return false */\n      swap1\n      pop\n        /* \"Conditionals.sol\":366:541  function bigNumber(uint256 _number) public pure returns (bool) {... */\n    tag_56:\n      swap2\n      swap1\n      pop\n      jump\t// out\n        /* \"Conditionals.sol\":611:803  function countElements() public view returns (uint256) {... */\n    tag_33:\n        /* \"Conditionals.sol\":657:664  uint256 */\n      0x00\n        /* \"Conditionals.sol\":676:689  uint256 count */\n      dup1\n        /* \"Conditionals.sol\":704:713  uint256 i */\n      0x00\n        /* \"Conditionals.sol\":699:775  for (uint256 i = 0; i < values.length; i++) {... */\n    tag_60:\n        /* \"Conditionals.sol\":723:729  values */\n      0x01\n        /* \"Conditionals.sol\":723:736  values.length */\n      dup1\n      sload\n      swap1\n      pop\n        /* \"Conditionals.sol\":719:720  i */\n      dup2\n        /* \"Conditionals.sol\":719:736  i < values.length */\n      lt\n        /* \"Conditionals.sol\":699:775  for (uint256 i = 0; i < values.length; i++) {... */\n      iszero\n      tag_61\n      jumpi\n        /* \"Conditionals.sol\":757:764  count++ */\n      dup2\n      dup1\n      tag_63\n      swap1\n      tag_51\n      jump\t// in\n    tag_63:\n      swap3\n      pop\n      pop\n        /* \"Conditionals.sol\":738:741  i++ */\n      dup1\n      dup1\n      tag_64\n      swap1\n      tag_51\n      jump\t// in\n    tag_64:\n      swap2\n      pop\n      pop\n        /* \"Conditionals.sol\":699:775  for (uint256 i = 0; i < values.length; i++) {... */\n      jump(tag_60)\n    tag_61:\n      pop\n        /* \"Conditionals.sol\":791:796  count */\n      dup1\n        /* \"Conditionals.sol\":784:796  return count */\n      swap2\n      pop\n      pop\n        /* \"Conditionals.sol\":611:803  function countElements() public view returns (uint256) {... */\n      swap1\n      jump\t// out\n        /* \"Conditionals.sol\":1059:1300  function gotoZero() public pure returns (uint256) {... */\n    tag_36:\n        /* \"Conditionals.sol\":1100:1107  uint256 */\n      0x00\n        /* \"Conditionals.sol\":1119:1132  uint256 times */\n      dup1\n        /* \"Conditionals.sol\":1135:1137  10 */\n      0x0a\n        /* \"Conditionals.sol\":1119:1137  uint256 times = 10 */\n      swap1\n      pop\n        /* \"Conditionals.sol\":1147:1167  uint256 howManySteps */\n      0x00\n        /* \"Conditionals.sol\":1177:1265  while (times > 0) {... */\n    tag_66:\n        /* \"Conditionals.sol\":1192:1193  0 */\n      0x00\n        /* \"Conditionals.sol\":1184:1189  times */\n      dup3\n        /* \"Conditionals.sol\":1184:1193  times > 0 */\n      gt\n        /* \"Conditionals.sol\":1177:1265  while (times > 0) {... */\n      iszero\n      tag_67\n      jumpi\n        /* \"Conditionals.sol\":1209:1223  howManySteps++ */\n      dup1\n      dup1\n      tag_68\n      swap1\n      tag_51\n      jump\t// in\n    tag_68:\n      swap2\n      pop\n      pop\n        /* \"Conditionals.sol\":1253:1254  1 */\n      0x01\n        /* \"Conditionals.sol\":1245:1250  times */\n      dup3\n        /* \"Conditionals.sol\":1245:1254  times - 1 */\n      tag_69\n      swap2\n      swap1\n      tag_70\n      jump\t// in\n    tag_69:\n        /* \"Conditionals.sol\":1237:1254  times = times - 1 */\n      swap2\n      pop\n        /* \"Conditionals.sol\":1177:1265  while (times > 0) {... */\n      jump(tag_66)\n    tag_67:\n        /* \"Conditionals.sol\":1281:1293  howManySteps */\n      dup1\n        /* \"Conditionals.sol\":1274:1293  return howManySteps */\n      swap3\n      pop\n      pop\n      pop\n        /* \"Conditionals.sol\":1059:1300  function gotoZero() public pure returns (uint256) {... */\n      swap1\n      jump\t// out\n        /* \"#utility.yul\":88:205   */\n    tag_72:\n        /* \"#utility.yul\":197:198   */\n      0x00\n        /* \"#utility.yul\":194:195   */\n      dup1\n        /* \"#utility.yul\":187:199   */\n      revert\n        /* \"#utility.yul\":334:411   */\n    tag_74:\n        /* \"#utility.yul\":371:378   */\n      0x00\n        /* \"#utility.yul\":400:405   */\n      dup2\n        /* \"#utility.yul\":389:405   */\n      swap1\n      pop\n        /* \"#utility.yul\":334:411   */\n      swap2\n      swap1\n      pop\n      jump\t// out\n        /* \"#utility.yul\":417:539   */\n    tag_75:\n        /* \"#utility.yul\":490:514   */\n      tag_90\n        /* \"#utility.yul\":508:513   */\n      dup2\n        /* \"#utility.yul\":490:514   */\n      tag_74\n      jump\t// in\n    tag_90:\n        /* \"#utility.yul\":483:488   */\n      dup2\n        /* \"#utility.yul\":480:515   */\n      eq\n        /* \"#utility.yul\":470:533   */\n      tag_91\n      jumpi\n        /* \"#utility.yul\":529:530   */\n      0x00\n        /* \"#utility.yul\":526:527   */\n      dup1\n        /* \"#utility.yul\":519:531   */\n      revert\n        /* \"#utility.yul\":470:533   */\n    tag_91:\n        /* \"#utility.yul\":417:539   */\n      pop\n      jump\t// out\n        /* \"#utility.yul\":545:684   */\n    tag_76:\n        /* \"#utility.yul\":591:596   */\n      0x00\n        /* \"#utility.yul\":629:635   */\n      dup2\n        /* \"#utility.yul\":616:636   */\n      calldataload\n        /* \"#utility.yul\":607:636   */\n      swap1\n      pop\n        /* \"#utility.yul\":645:678   */\n      tag_93\n        /* \"#utility.yul\":672:677   */\n      dup2\n        /* \"#utility.yul\":645:678   */\n      tag_75\n      jump\t// in\n    tag_93:\n        /* \"#utility.yul\":545:684   */\n      swap3\n      swap2\n      pop\n      pop\n      jump\t// out\n        /* \"#utility.yul\":690:1019   */\n    tag_13:\n        /* \"#utility.yul\":749:755   */\n      0x00\n        /* \"#utility.yul\":798:800   */\n      0x20\n        /* \"#utility.yul\":786:795   */\n      dup3\n        /* \"#utility.yul\":777:784   */\n      dup5\n        /* \"#utility.yul\":773:796   */\n      sub\n        /* \"#utility.yul\":769:801   */\n      slt\n        /* \"#utility.yul\":766:885   */\n      iszero\n      tag_95\n      jumpi\n        /* \"#utility.yul\":804:883   */\n      tag_96\n      tag_72\n      jump\t// in\n    tag_96:\n        /* \"#utility.yul\":766:885   */\n    tag_95:\n        /* \"#utility.yul\":924:925   */\n      0x00\n        /* \"#utility.yul\":949:1002   */\n      tag_97\n        /* \"#utility.yul\":994:1001   */\n      dup5\n        /* \"#utility.yul\":985:991   */\n      dup3\n        /* \"#utility.yul\":974:983   */\n      dup6\n        /* \"#utility.yul\":970:992   */\n      add\n        /* \"#utility.yul\":949:1002   */\n      tag_76\n      jump\t// in\n    tag_97:\n        /* \"#utility.yul\":939:1002   */\n      swap2\n      pop\n        /* \"#utility.yul\":895:1012   */\n      pop\n        /* \"#utility.yul\":690:1019   */\n      swap3\n      swap2\n      pop\n      pop\n      jump\t// out\n        /* \"#utility.yul\":1025:1143   */\n    tag_77:\n        /* \"#utility.yul\":1112:1136   */\n      tag_99\n        /* \"#utility.yul\":1130:1135   */\n      dup2\n        /* \"#utility.yul\":1112:1136   */\n      tag_74\n      jump\t// in\n    tag_99:\n        /* \"#utility.yul\":1107:1110   */\n      dup3\n        /* \"#utility.yul\":1100:1137   */\n      mstore\n        /* \"#utility.yul\":1025:1143   */\n      pop\n      pop\n      jump\t// out\n        /* \"#utility.yul\":1149:1371   */\n    tag_16:\n        /* \"#utility.yul\":1242:1246   */\n      0x00\n        /* \"#utility.yul\":1280:1282   */\n      0x20\n        /* \"#utility.yul\":1269:1278   */\n      dup3\n        /* \"#utility.yul\":1265:1283   */\n      add\n        /* \"#utility.yul\":1257:1283   */\n      swap1\n      pop\n        /* \"#utility.yul\":1293:1364   */\n      tag_101\n        /* \"#utility.yul\":1361:1362   */\n      0x00\n        /* \"#utility.yul\":1350:1359   */\n      dup4\n        /* \"#utility.yul\":1346:1363   */\n      add\n        /* \"#utility.yul\":1337:1343   */\n      dup5\n        /* \"#utility.yul\":1293:1364   */\n      tag_77\n      jump\t// in\n    tag_101:\n        /* \"#utility.yul\":1149:1371   */\n      swap3\n      swap2\n      pop\n      pop\n      jump\t// out\n        /* \"#utility.yul\":1377:1503   */\n    tag_78:\n        /* \"#utility.yul\":1414:1421   */\n      0x00\n        /* \"#utility.yul\":1454:1496   */\n      0xffffffffffffffffffffffffffffffffffffffff\n        /* \"#utility.yul\":1447:1452   */\n      dup3\n        /* \"#utility.yul\":1443:1497   */\n      and\n        /* \"#utility.yul\":1432:1497   */\n      swap1\n      pop\n        /* \"#utility.yul\":1377:1503   */\n      swap2\n      swap1\n      pop\n      jump\t// out\n        /* \"#utility.yul\":1509:1605   */\n    tag_79:\n        /* \"#utility.yul\":1546:1553   */\n      0x00\n        /* \"#utility.yul\":1575:1599   */\n      tag_104\n        /* \"#utility.yul\":1593:1598   */\n      dup3\n        /* \"#utility.yul\":1575:1599   */\n      tag_78\n      jump\t// in\n    tag_104:\n        /* \"#utility.yul\":1564:1599   */\n      swap1\n      pop\n        /* \"#utility.yul\":1509:1605   */\n      swap2\n      swap1\n      pop\n      jump\t// out\n        /* \"#utility.yul\":1611:1729   */\n    tag_80:\n        /* \"#utility.yul\":1698:1722   */\n      tag_106\n        /* \"#utility.yul\":1716:1721   */\n      dup2\n        /* \"#utility.yul\":1698:1722   */\n      tag_79\n      jump\t// in\n    tag_106:\n        /* \"#utility.yul\":1693:1696   */\n      dup3\n        /* \"#utility.yul\":1686:1723   */\n      mstore\n        /* \"#utility.yul\":1611:1729   */\n      pop\n      pop\n      jump\t// out\n        /* \"#utility.yul\":1735:1957   */\n    tag_23:\n        /* \"#utility.yul\":1828:1832   */\n      0x00\n        /* \"#utility.yul\":1866:1868   */\n      0x20\n        /* \"#utility.yul\":1855:1864   */\n      dup3\n        /* \"#utility.yul\":1851:1869   */\n      add\n        /* \"#utility.yul\":1843:1869   */\n      swap1\n      pop\n        /* \"#utility.yul\":1879:1950   */\n      tag_108\n        /* \"#utility.yul\":1947:1948   */\n      0x00\n        /* \"#utility.yul\":1936:1945   */\n      dup4\n        /* \"#utility.yul\":1932:1949   */\n      add\n        /* \"#utility.yul\":1923:1929   */\n      dup5\n        /* \"#utility.yul\":1879:1950   */\n      tag_80\n      jump\t// in\n    tag_108:\n        /* \"#utility.yul\":1735:1957   */\n      swap3\n      swap2\n      pop\n      pop\n      jump\t// out\n        /* \"#utility.yul\":1963:2053   */\n    tag_81:\n        /* \"#utility.yul\":1997:2004   */\n      0x00\n        /* \"#utility.yul\":2040:2045   */\n      dup2\n        /* \"#utility.yul\":2033:2046   */\n      iszero\n        /* \"#utility.yul\":2026:2047   */\n      iszero\n        /* \"#utility.yul\":2015:2047   */\n      swap1\n      pop\n        /* \"#utility.yul\":1963:2053   */\n      swap2\n      swap1\n      pop\n      jump\t// out\n        /* \"#utility.yul\":2059:2168   */\n    tag_82:\n        /* \"#utility.yul\":2140:2161   */\n      tag_111\n        /* \"#utility.yul\":2155:2160   */\n      dup2\n        /* \"#utility.yul\":2140:2161   */\n      tag_81\n      jump\t// in\n    tag_111:\n        /* \"#utility.yul\":2135:2138   */\n      dup3\n        /* \"#utility.yul\":2128:2162   */\n      mstore\n        /* \"#utility.yul\":2059:2168   */\n      pop\n      pop\n      jump\t// out\n        /* \"#utility.yul\":2174:2384   */\n    tag_27:\n        /* \"#utility.yul\":2261:2265   */\n      0x00\n        /* \"#utility.yul\":2299:2301   */\n      0x20\n        /* \"#utility.yul\":2288:2297   */\n      dup3\n        /* \"#utility.yul\":2284:2302   */\n      add\n        /* \"#utility.yul\":2276:2302   */\n      swap1\n      pop\n        /* \"#utility.yul\":2312:2377   */\n      tag_113\n        /* \"#utility.yul\":2374:2375   */\n      0x00\n        /* \"#utility.yul\":2363:2372   */\n      dup4\n        /* \"#utility.yul\":2359:2376   */\n      add\n        /* \"#utility.yul\":2350:2356   */\n      dup5\n        /* \"#utility.yul\":2312:2377   */\n      tag_82\n      jump\t// in\n    tag_113:\n        /* \"#utility.yul\":2174:2384   */\n      swap3\n      swap2\n      pop\n      pop\n      jump\t// out\n        /* \"#utility.yul\":2390:2570   */\n    tag_47:\n        /* \"#utility.yul\":2438:2515   */\n      0x4e487b7100000000000000000000000000000000000000000000000000000000\n        /* \"#utility.yul\":2435:2436   */\n      0x00\n        /* \"#utility.yul\":2428:2516   */\n      mstore\n        /* \"#utility.yul\":2535:2539   */\n      0x32\n        /* \"#utility.yul\":2532:2533   */\n      0x04\n        /* \"#utility.yul\":2525:2540   */\n      mstore\n        /* \"#utility.yul\":2559:2563   */\n      0x24\n        /* \"#utility.yul\":2556:2557   */\n      0x00\n        /* \"#utility.yul\":2549:2564   */\n      revert\n        /* \"#utility.yul\":2576:2756   */\n    tag_83:\n        /* \"#utility.yul\":2624:2701   */\n      0x4e487b7100000000000000000000000000000000000000000000000000000000\n        /* \"#utility.yul\":2621:2622   */\n      0x00\n        /* \"#utility.yul\":2614:2702   */\n      mstore\n        /* \"#utility.yul\":2721:2725   */\n      0x11\n        /* \"#utility.yul\":2718:2719   */\n      0x04\n        /* \"#utility.yul\":2711:2726   */\n      mstore\n        /* \"#utility.yul\":2745:2749   */\n      0x24\n        /* \"#utility.yul\":2742:2743   */\n      0x00\n        /* \"#utility.yul\":2735:2750   */\n      revert\n        /* \"#utility.yul\":2762:2995   */\n    tag_51:\n        /* \"#utility.yul\":2801:2804   */\n      0x00\n        /* \"#utility.yul\":2824:2848   */\n      tag_117\n        /* \"#utility.yul\":2842:2847   */\n      dup3\n        /* \"#utility.yul\":2824:2848   */\n      tag_74\n      jump\t// in\n    tag_117:\n        /* \"#utility.yul\":2815:2848   */\n      swap2\n      pop\n        /* \"#utility.yul\":2870:2936   */\n      0xffffffffffffffffffffffffffffffffffffffffffffffffffffffffffffffff\n        /* \"#utility.yul\":2863:2868   */\n      dup3\n        /* \"#utility.yul\":2860:2937   */\n      sub\n        /* \"#utility.yul\":2857:2960   */\n      tag_118\n      jumpi\n        /* \"#utility.yul\":2940:2958   */\n      tag_119\n      tag_83\n      jump\t// in\n    tag_119:\n        /* \"#utility.yul\":2857:2960   */\n    tag_118:\n        /* \"#utility.yul\":2987:2988   */\n      0x01\n        /* \"#utility.yul\":2980:2985   */\n      dup3\n        /* \"#utility.yul\":2976:2989   */\n      add\n        /* \"#utility.yul\":2969:2989   */\n      swap1\n      pop\n        /* \"#utility.yul\":2762:2995   */\n      swap2\n      swap1\n      pop\n      jump\t// out\n        /* \"#utility.yul\":3001:3195   */\n    tag_70:\n        /* \"#utility.yul\":3041:3045   */\n      0x00\n        /* \"#utility.yul\":3061:3081   */\n      tag_121\n        /* \"#utility.yul\":3079:3080   */\n      dup3\n        /* \"#utility.yul\":3061:3081   */\n      tag_74\n      jump\t// in\n    tag_121:\n        /* \"#utility.yul\":3056:3081   */\n      swap2\n      pop\n        /* \"#utility.yul\":3095:3115   */\n      tag_122\n        /* \"#utility.yul\":3113:3114   */\n      dup4\n        /* \"#utility.yul\":3095:3115   */\n      tag_74\n      jump\t// in\n    tag_122:\n        /* \"#utility.yul\":3090:3115   */\n      swap3\n      pop\n        /* \"#utility.yul\":3139:3140   */\n      dup3\n        /* \"#utility.yul\":3136:3137   */\n      dup3\n        /* \"#utility.yul\":3132:3141   */\n      sub\n        /* \"#utility.yul\":3124:3141   */\n      swap1\n      pop\n        /* \"#utility.yul\":3163:3164   */\n      dup2\n        /* \"#utility.yul\":3157:3161   */\n      dup2\n        /* \"#utility.yul\":3154:3165   */\n      gt\n        /* \"#utility.yul\":3151:3188   */\n      iszero\n      tag_123\n      jumpi\n        /* \"#utility.yul\":3168:3186   */\n      tag_124\n      tag_83\n      jump\t// in\n    tag_124:\n        /* \"#utility.yul\":3151:3188   */\n    tag_123:\n        /* \"#utility.yul\":3001:3195   */\n      swap3\n      swap2\n      pop\n      pop\n      jump\t// out\n\n    auxdata: 0xa2646970667358221220dc066ea94c43975217abbb89f5fa9cd921afd09d109ebfa4388e9d08170a9fb064736f6c63430008120033\n}\n",
				"bytecode": {
					"linkReferences": {},
					"object": "6080604052604051806101400160405280600160ff168152602001600260ff168152602001600360ff168152602001600460ff168152602001600560ff168152602001600660ff168152602001600760ff168152602001600860ff168152602001600960ff168152602001600a60ff16815250600190600a6100829291906100d5565b5034801561008f57600080fd5b50336000806101000a81548173ffffffffffffffffffffffffffffffffffffffff021916908373ffffffffffffffffffffffffffffffffffffffff160217905550610144565b828054828255906000526020600020908101928215610116579160200282015b82811115610115578251829060ff169055916020019190600101906100f5565b5b5090506101239190610127565b5090565b5b80821115610140576000816000905550600101610128565b5090565b61055b806101536000396000f3fe608060405234801561001057600080fd5b506004361061007d5760003560e01c80638f32d59b1161005b5780638f32d59b146100ee5780639b1d99801461010c578063a5321d461461013c578063e1780c9d1461015a5761007d565b80635e383d211461008257806362ab8cc1146100b25780638da5cb5b146100d0575b600080fd5b61009c60048036038101906100979190610362565b610178565b6040516100a9919061039e565b60405180910390f35b6100ba61019c565b6040516100c7919061039e565b60405180910390f35b6100d8610205565b6040516100e591906103fa565b60405180910390f35b6100f6610229565b6040516101039190610430565b60405180910390f35b61012660048036038101906101219190610362565b610290565b6040516101339190610430565b60405180910390f35b6101446102ae565b604051610151919061039e565b60405180910390f35b6101626102ea565b60405161016f919061039e565b60405180910390f35b6001818154811061018857600080fd5b906000526020600020016000915090505481565b60008060005b6001805490508110156101fd576101d6600182815481106101c6576101c561044b565b5b9060005260206000200154610290565b156101ea5781806101e6906104a9565b9250505b80806101f5906104a9565b9150506101a2565b508091505090565b60008054906101000a900473ffffffffffffffffffffffffffffffffffffffff1681565b60008060009054906101000a900473ffffffffffffffffffffffffffffffffffffffff1673ffffffffffffffffffffffffffffffffffffffff163373ffffffffffffffffffffffffffffffffffffffff1603610288576001905061028d565b600090505b90565b600060058211156102a457600190506102a9565b600090505b919050565b60008060005b6001805490508110156102e25781806102cc906104a9565b92505080806102da906104a9565b9150506102b4565b508091505090565b600080600a905060005b600082111561031f578080610308906104a9565b91505060018261031891906104f1565b91506102f4565b809250505090565b600080fd5b6000819050919050565b61033f8161032c565b811461034a57600080fd5b50565b60008135905061035c81610336565b92915050565b60006020828403121561037857610377610327565b5b60006103868482850161034d565b91505092915050565b6103988161032c565b82525050565b60006020820190506103b3600083018461038f565b92915050565b600073ffffffffffffffffffffffffffffffffffffffff82169050919050565b60006103e4826103b9565b9050919050565b6103f4816103d9565b82525050565b600060208201905061040f60008301846103eb565b92915050565b60008115159050919050565b61042a81610415565b82525050565b60006020820190506104456000830184610421565b92915050565b7f4e487b7100000000000000000000000000000000000000000000000000000000600052603260045260246000fd5b7f4e487b7100000000000000000000000000000000000000000000000000000000600052601160045260246000fd5b60006104b48261032c565b91507fffffffffffffffffffffffffffffffffffffffffffffffffffffffffffffffff82036104e6576104e561047a565b5b600182019050919050565b60006104fc8261032c565b91506105078361032c565b925082820390508181111561051f5761051e61047a565b5b9291505056fea2646970667358221220dc066ea94c43975217abbb89f5fa9cd921afd09d109ebfa4388e9d08170a9fb064736f6c63430008120033",
					"opcodes": "PUSH1 0x80 PUSH1 0x40 MSTORE PUSH1 0x40 MLOAD DUP1 PUSH2 0x140 ADD PUSH1 0x40 MSTORE DUP1 PUSH1 0x1 PUSH1 0xFF AND DUP2 MSTORE PUSH1 0x20 ADD PUSH1 0x2 PUSH1 0xFF AND DUP2 MSTORE PUSH1 0x20 ADD PUSH1 0x3 PUSH1 0xFF AND DUP2 MSTORE PUSH1 0x20 ADD PUSH1 0x4 PUSH1 0xFF AND DUP2 MSTORE PUSH1 0x20 ADD PUSH1 0x5 PUSH1 0xFF AND DUP2 MSTORE PUSH1 0x20 ADD PUSH1 0x6 PUSH1 0xFF AND DUP2 MSTORE PUSH1 0x20 ADD PUSH1 0x7 PUSH1 0xFF AND DUP2 MSTORE PUSH1 0x20 ADD PUSH1 0x8 PUSH1 0xFF AND DUP2 MSTORE PUSH1 0x20 ADD PUSH1 0x9 PUSH1 0xFF AND DUP2 MSTORE PUSH1 0x20 ADD PUSH1 0xA PUSH1 0xFF AND DUP2 MSTORE POP PUSH1 0x1 SWAP1 PUSH1 0xA PUSH2 0x82 SWAP3 SWAP2 SWAP1 PUSH2 0xD5 JUMP JUMPDEST POP CALLVALUE DUP1 ISZERO PUSH2 0x8F JUMPI PUSH1 0x0 DUP1 REVERT JUMPDEST POP CALLER PUSH1 0x0 DUP1 PUSH2 0x100 EXP DUP2 SLOAD DUP2 PUSH20 0xFFFFFFFFFFFFFFFFFFFFFFFFFFFFFFFFFFFFFFFF MUL NOT AND SWAP1 DUP4 PUSH20 0xFFFFFFFFFFFFFFFFFFFFFFFFFFFFFFFFFFFFFFFF AND MUL OR SWAP1 SSTORE POP PUSH2 0x144 JUMP JUMPDEST DUP3 DUP1 SLOAD DUP3 DUP3 SSTORE SWAP1 PUSH1 0x0 MSTORE PUSH1 0x20 PUSH1 0x0 KECCAK256 SWAP1 DUP2 ADD SWAP3 DUP3 ISZERO PUSH2 0x116 JUMPI SWAP2 PUSH1 0x20 MUL DUP3 ADD JUMPDEST DUP3 DUP2 GT ISZERO PUSH2 0x115 JUMPI DUP3 MLOAD DUP3 SWAP1 PUSH1 0xFF AND SWAP1 SSTORE SWAP2 PUSH1 0x20 ADD SWAP2 SWAP1 PUSH1 0x1 ADD SWAP1 PUSH2 0xF5 JUMP JUMPDEST JUMPDEST POP SWAP1 POP PUSH2 0x123 SWAP2 SWAP1 PUSH2 0x127 JUMP JUMPDEST POP SWAP1 JUMP JUMPDEST JUMPDEST DUP1 DUP3 GT ISZERO PUSH2 0x140 JUMPI PUSH1 0x0 DUP2 PUSH1 0x0 SWAP1 SSTORE POP PUSH1 0x1 ADD PUSH2 0x128 JUMP JUMPDEST POP SWAP1 JUMP JUMPDEST PUSH2 0x55B DUP1 PUSH2 0x153 PUSH1 0x0 CODECOPY PUSH1 0x0 RETURN INVALID PUSH1 0x80 PUSH1 0x40 MSTORE CALLVALUE DUP1 ISZERO PUSH2 0x10 JUMPI PUSH1 0x0 DUP1 REVERT JUMPDEST POP PUSH1 0x4 CALLDATASIZE LT PUSH2 0x7D JUMPI PUSH1 0x0 CALLDATALOAD PUSH1 0xE0 SHR DUP1 PUSH4 0x8F32D59B GT PUSH2 0x5B JUMPI DUP1 PUSH4 0x8F32D59B EQ PUSH2 0xEE JUMPI DUP1 PUSH4 0x9B1D9980 EQ PUSH2 0x10C JUMPI DUP1 PUSH4 0xA5321D46 EQ PUSH2 0x13C JUMPI DUP1 PUSH4 0xE1780C9D EQ PUSH2 0x15A JUMPI PUSH2 0x7D JUMP JUMPDEST DUP1 PUSH4 0x5E383D21 EQ PUSH2 0x82 JUMPI DUP1 PUSH4 0x62AB8CC1 EQ PUSH2 0xB2 JUMPI DUP1 PUSH4 0x8DA5CB5B EQ PUSH2 0xD0 JUMPI JUMPDEST PUSH1 0x0 DUP1 REVERT JUMPDEST PUSH2 0x9C PUSH1 0x4 DUP1 CALLDATASIZE SUB DUP2 ADD SWAP1 PUSH2 0x97 SWAP2 SWAP1 PUSH2 0x362 JUMP JUMPDEST PUSH2 0x178 JUMP JUMPDEST PUSH1 0x40 MLOAD PUSH2 0xA9 SWAP2 SWAP1 PUSH2 0x39E JUMP JUMPDEST PUSH1 0x40 MLOAD DUP1 SWAP2 SUB SWAP1 RETURN JUMPDEST PUSH2 0xBA PUSH2 0x19C JUMP JUMPDEST PUSH1 0x40 MLOAD PUSH2 0xC7 SWAP2 SWAP1 PUSH2 0x39E JUMP JUMPDEST PUSH1 0x40 MLOAD DUP1 SWAP2 SUB SWAP1 RETURN JUMPDEST PUSH2 0xD8 PUSH2 0x205 JUMP JUMPDEST PUSH1 0x40 MLOAD PUSH2 0xE5 SWAP2 SWAP1 PUSH2 0x3FA JUMP JUMPDEST PUSH1 0x40 MLOAD DUP1 SWAP2 SUB SWAP1 RETURN JUMPDEST PUSH2 0xF6 PUSH2 0x229 JUMP JUMPDEST PUSH1 0x40 MLOAD PUSH2 0x103 SWAP2 SWAP1 PUSH2 0x430 JUMP JUMPDEST PUSH1 0x40 MLOAD DUP1 SWAP2 SUB SWAP1 RETURN JUMPDEST PUSH2 0x126 PUSH1 0x4 DUP1 CALLDATASIZE SUB DUP2 ADD SWAP1 PUSH2 0x121 SWAP2 SWAP1 PUSH2 0x362 JUMP JUMPDEST PUSH2 0x290 JUMP JUMPDEST PUSH1 0x40 MLOAD PUSH2 0x133 SWAP2 SWAP1 PUSH2 0x430 JUMP JUMPDEST PUSH1 0x40 MLOAD DUP1 SWAP2 SUB SWAP1 RETURN JUMPDEST PUSH2 0x144 PUSH2 0x2AE JUMP JUMPDEST PUSH1 0x40 MLOAD PUSH2 0x151 SWAP2 SWAP1 PUSH2 0x39E JUMP JUMPDEST PUSH1 0x40 MLOAD DUP1 SWAP2 SUB SWAP1 RETURN JUMPDEST PUSH2 0x162 PUSH2 0x2EA JUMP JUMPDEST PUSH1 0x40 MLOAD PUSH2 0x16F SWAP2 SWAP1 PUSH2 0x39E JUMP JUMPDEST PUSH1 0x40 MLOAD DUP1 SWAP2 SUB SWAP1 RETURN JUMPDEST PUSH1 0x1 DUP2 DUP2 SLOAD DUP2 LT PUSH2 0x188 JUMPI PUSH1 0x0 DUP1 REVERT JUMPDEST SWAP1 PUSH1 0x0 MSTORE PUSH1 0x20 PUSH1 0x0 KECCAK256 ADD PUSH1 0x0 SWAP2 POP SWAP1 POP SLOAD DUP2 JUMP JUMPDEST PUSH1 0x0 DUP1 PUSH1 0x0 JUMPDEST PUSH1 0x1 DUP1 SLOAD SWAP1 POP DUP2 LT ISZERO PUSH2 0x1FD JUMPI PUSH2 0x1D6 PUSH1 0x1 DUP3 DUP2 SLOAD DUP2 LT PUSH2 0x1C6 JUMPI PUSH2 0x1C5 PUSH2 0x44B JUMP JUMPDEST JUMPDEST SWAP1 PUSH1 0x0 MSTORE PUSH1 0x20 PUSH1 0x0 KECCAK256 ADD SLOAD PUSH2 0x290 JUMP JUMPDEST ISZERO PUSH2 0x1EA JUMPI DUP2 DUP1 PUSH2 0x1E6 SWAP1 PUSH2 0x4A9 JUMP JUMPDEST SWAP3 POP POP JUMPDEST DUP1 DUP1 PUSH2 0x1F5 SWAP1 PUSH2 0x4A9 JUMP JUMPDEST SWAP2 POP POP PUSH2 0x1A2 JUMP JUMPDEST POP DUP1 SWAP2 POP POP SWAP1 JUMP JUMPDEST PUSH1 0x0 DUP1 SLOAD SWAP1 PUSH2 0x100 EXP SWAP1 DIV PUSH20 0xFFFFFFFFFFFFFFFFFFFFFFFFFFFFFFFFFFFFFFFF AND DUP2 JUMP JUMPDEST PUSH1 0x0 DUP1 PUSH1 0x0 SWAP1 SLOAD SWAP1 PUSH2 0x100 EXP SWAP1 DIV PUSH20 0xFFFFFFFFFFFFFFFFFFFFFFFFFFFFFFFFFFFFFFFF AND PUSH20 0xFFFFFFFFFFFFFFFFFFFFFFFFFFFFFFFFFFFFFFFF AND CALLER PUSH20 0xFFFFFFFFFFFFFFFFFFFFFFFFFFFFFFFFFFFFFFFF AND SUB PUSH2 0x288 JUMPI PUSH1 0x1 SWAP1 POP PUSH2 0x28D JUMP JUMPDEST PUSH1 0x0 SWAP1 POP JUMPDEST SWAP1 JUMP JUMPDEST PUSH1 0x0 PUSH1 0x5 DUP3 GT ISZERO PUSH2 0x2A4 JUMPI PUSH1 0x1 SWAP1 POP PUSH2 0x2A9 JUMP JUMPDEST PUSH1 0x0 SWAP1 POP JUMPDEST SWAP2 SWAP1 POP JUMP JUMPDEST PUSH1 0x0 DUP1 PUSH1 0x0 JUMPDEST PUSH1 0x1 DUP1 SLOAD SWAP1 POP DUP2 LT ISZERO PUSH2 0x2E2 JUMPI DUP2 DUP1 PUSH2 0x2CC SWAP1 PUSH2 0x4A9 JUMP JUMPDEST SWAP3 POP POP DUP1 DUP1 PUSH2 0x2DA SWAP1 PUSH2 0x4A9 JUMP JUMPDEST SWAP2 POP POP PUSH2 0x2B4 JUMP JUMPDEST POP DUP1 SWAP2 POP POP SWAP1 JUMP JUMPDEST PUSH1 0x0 DUP1 PUSH1 0xA SWAP1 POP PUSH1 0x0 JUMPDEST PUSH1 0x0 DUP3 GT ISZERO PUSH2 0x31F JUMPI DUP1 DUP1 PUSH2 0x308 SWAP1 PUSH2 0x4A9 JUMP JUMPDEST SWAP2 POP POP PUSH1 0x1 DUP3 PUSH2 0x318 SWAP2 SWAP1 PUSH2 0x4F1 JUMP JUMPDEST SWAP2 POP PUSH2 0x2F4 JUMP JUMPDEST DUP1 SWAP3 POP POP POP SWAP1 JUMP JUMPDEST PUSH1 0x0 DUP1 REVERT JUMPDEST PUSH1 0x0 DUP2 SWAP1 POP SWAP2 SWAP1 POP JUMP JUMPDEST PUSH2 0x33F DUP2 PUSH2 0x32C JUMP JUMPDEST DUP2 EQ PUSH2 0x34A JUMPI PUSH1 0x0 DUP1 REVERT JUMPDEST POP JUMP JUMPDEST PUSH1 0x0 DUP2 CALLDATALOAD SWAP1 POP PUSH2 0x35C DUP2 PUSH2 0x336 JUMP JUMPDEST SWAP3 SWAP2 POP POP JUMP JUMPDEST PUSH1 0x0 PUSH1 0x20 DUP3 DUP5 SUB SLT ISZERO PUSH2 0x378 JUMPI PUSH2 0x377 PUSH2 0x327 JUMP JUMPDEST JUMPDEST PUSH1 0x0 PUSH2 0x386 DUP5 DUP3 DUP6 ADD PUSH2 0x34D JUMP JUMPDEST SWAP2 POP POP SWAP3 SWAP2 POP POP JUMP JUMPDEST PUSH2 0x398 DUP2 PUSH2 0x32C JUMP JUMPDEST DUP3 MSTORE POP POP JUMP JUMPDEST PUSH1 0x0 PUSH1 0x20 DUP3 ADD SWAP1 POP PUSH2 0x3B3 PUSH1 0x0 DUP4 ADD DUP5 PUSH2 0x38F JUMP JUMPDEST SWAP3 SWAP2 POP POP JUMP JUMPDEST PUSH1 0x0 PUSH20 0xFFFFFFFFFFFFFFFFFFFFFFFFFFFFFFFFFFFFFFFF DUP3 AND SWAP1 POP SWAP2 SWAP1 POP JUMP JUMPDEST PUSH1 0x0 PUSH2 0x3E4 DUP3 PUSH2 0x3B9 JUMP JUMPDEST SWAP1 POP SWAP2 SWAP1 POP JUMP JUMPDEST PUSH2 0x3F4 DUP2 PUSH2 0x3D9 JUMP JUMPDEST DUP3 MSTORE POP POP JUMP JUMPDEST PUSH1 0x0 PUSH1 0x20 DUP3 ADD SWAP1 POP PUSH2 0x40F PUSH1 0x0 DUP4 ADD DUP5 PUSH2 0x3EB JUMP JUMPDEST SWAP3 SWAP2 POP POP JUMP JUMPDEST PUSH1 0x0 DUP2 ISZERO ISZERO SWAP1 POP SWAP2 SWAP1 POP JUMP JUMPDEST PUSH2 0x42A DUP2 PUSH2 0x415 JUMP JUMPDEST DUP3 MSTORE POP POP JUMP JUMPDEST PUSH1 0x0 PUSH1 0x20 DUP3 ADD SWAP1 POP PUSH2 0x445 PUSH1 0x0 DUP4 ADD DUP5 PUSH2 0x421 JUMP JUMPDEST SWAP3 SWAP2 POP POP JUMP JUMPDEST PUSH32 0x4E487B7100000000000000000000000000000000000000000000000000000000 PUSH1 0x0 MSTORE PUSH1 0x32 PUSH1 0x4 MSTORE PUSH1 0x24 PUSH1 0x0 REVERT JUMPDEST PUSH32 0x4E487B7100000000000000000000000000000000000000000000000000000000 PUSH1 0x0 MSTORE PUSH1 0x11 PUSH1 0x4 MSTORE PUSH1 0x24 PUSH1 0x0 REVERT JUMPDEST PUSH1 0x0 PUSH2 0x4B4 DUP3 PUSH2 0x32C JUMP JUMPDEST SWAP2 POP PUSH32 0xFFFFFFFFFFFFFFFFFFFFFFFFFFFFFFFFFFFFFFFFFFFFFFFFFFFFFFFFFFFFFFFF DUP3 SUB PUSH2 0x4E6 JUMPI PUSH2 0x4E5 PUSH2 0x47A JUMP JUMPDEST JUMPDEST PUSH1 0x1 DUP3 ADD SWAP1 POP SWAP2 SWAP1 POP JUMP JUMPDEST PUSH1 0x0 PUSH2 0x4FC DUP3 PUSH2 0x32C JUMP JUMPDEST SWAP2 POP PUSH2 0x507 DUP4 PUSH2 0x32C JUMP JUMPDEST SWAP3 POP DUP3 DUP3 SUB SWAP1 POP DUP2 DUP2 GT ISZERO PUSH2 0x51F JUMPI PUSH2 0x51E PUSH2 0x47A JUMP JUMPDEST JUMPDEST SWAP3 SWAP2 POP POP JUMP INVALID LOG2 PUSH5 0x6970667358 0x22 SLT KECCAK256 0xDC MOD PUSH15 0xA94C43975217ABBB89F5FA9CD921AF 0xD0 SWAP14 LT SWAP15 0xBF LOG4 CODESIZE DUP15 SWAP14 ADDMOD OR EXP SWAP16 0xB0 PUSH5 0x736F6C6343 STOP ADDMOD SLT STOP CALLER "
				},
				"gasEstimates": {
					"creation": {
						"codeDepositCost": "274200",
						"executionCost": "infinite",
						"totalCost": "infinite"
					},
					"external": {
						"bigNumber(uint256)": "667",
						"countElements()": "infinite",
						"gotoZero()": "infinite",
						"howMany()": "infinite",
						"isOwner()": "2524",
						"owner()": "2556",
						"values(uint256)": "infinite"
					}
				},
				"methodIdentifiers": {
					"bigNumber(uint256)": "9b1d9980",
					"countElements()": "a5321d46",
					"gotoZero()": "e1780c9d",
					"howMany()": "62ab8cc1",
					"isOwner()": "8f32d59b",
					"owner()": "8da5cb5b",
					"values(uint256)": "5e383d21"
				}
			},
			"storageLayout": {
				"storage": [
					{
						"astId": 3,
						"contract": "Conditionals.sol:Conditionals",
						"label": "owner",
						"offset": 0,
						"slot": "0",
						"type": "t_address"
					},
					{
						"astId": 61,
						"contract": "Conditionals.sol:Conditionals",
						"label": "values",
						"offset": 0,
						"slot": "1",
						"type": "t_array(t_uint256)dyn_storage"
					}
				],
				"types": {
					"t_address": {
						"encoding": "inplace",
						"label": "address",
						"numberOfBytes": "20"
					},
					"t_array(t_uint256)dyn_storage": {
						"base": "t_uint256",
						"encoding": "dynamic_array",
						"label": "uint256[]",
						"numberOfBytes": "32"
					},
					"t_uint256": {
						"encoding": "inplace",
						"label": "uint256",
						"numberOfBytes": "32"
					}
				}
			},
			"userdoc": {
				"kind": "user",
				"methods": {},
				"version": 1
			}
		}
	}
}