{
	"Mappings.sol": {
		"Mapping": {
			"abi": [
				{
					"inputs": [],
					"stateMutability": "nonpayable",
					"type": "constructor"
				},
				{
					"inputs": [
						{
							"internalType": "uint256",
							"name": "_index",
							"type": "uint256"
						},
						{
							"internalType": "string",
							"name": "_maker",
							"type": "string"
						},
						{
							"internalType": "string",
							"name": "_model",
							"type": "string"
						}
					],
					"name": "addCar",
					"outputs": [],
					"stateMutability": "nonpayable",
					"type": "function"
				},
				{
					"inputs": [
						{
							"internalType": "uint256",
							"name": "_index",
							"type": "uint256"
						},
						{
							"internalType": "string",
							"name": "_color",
							"type": "string"
						}
					],
					"name": "addColor",
					"outputs": [],
					"stateMutability": "nonpayable",
					"type": "function"
				},
				{
					"inputs": [
						{
							"internalType": "uint256",
							"name": "_index",
							"type": "uint256"
						},
						{
							"internalType": "string",
							"name": "_maker",
							"type": "string"
						},
						{
							"internalType": "string",
							"name": "_model",
							"type": "string"
						}
					],
					"name": "addPlayerCar",
					"outputs": [],
					"stateMutability": "nonpayable",
					"type": "function"
				},
				{
					"inputs": [
						{
							"internalType": "uint256",
							"name": "",
							"type": "uint256"
						}
					],
					"name": "cars",
					"outputs": [
						{
							"internalType": "string",
							"name": "maker",
							"type": "string"
						},
						{
							"internalType": "string",
							"name": "model",
							"type": "string"
						}
					],
					"stateMutability": "view",
					"type": "function"
				},
				{
					"inputs": [
						{
							"internalType": "uint256",
							"name": "",
							"type": "uint256"
						}
					],
					"name": "colors",
					"outputs": [
						{
							"internalType": "string",
							"name": "",
							"type": "string"
						}
					],
					"stateMutability": "view",
					"type": "function"
				},
				{
					"inputs": [
						{
							"internalType": "address",
							"name": "",
							"type": "address"
						},
						{
							"internalType": "uint256",
							"name": "",
							"type": "uint256"
						}
					],
					"name": "playerCars",
					"outputs": [
						{
							"internalType": "string",
							"name": "maker",
							"type": "string"
						},
						{
							"internalType": "string",
							"name": "model",
							"type": "string"
						}
					],
					"stateMutability": "view",
					"type": "function"
				}
			],
			"devdoc": {
				"kind": "dev",
				"methods": {},
				"version": 1
			},
			"evm": {
				"assembly": "    /* \"Mappings.sol\":70:896  contract Mapping {... */\n  mstore(0x40, 0x80)\n    /* \"Mappings.sol\":140:245  constructor() {... */\n  callvalue\n  dup1\n  iszero\n  tag_1\n  jumpi\n  0x00\n  dup1\n  revert\ntag_1:\n  pop\n    /* \"Mappings.sol\":164:181  colors[1] = \"Red\" */\n  mload(0x40)\n  dup1\n  0x40\n  add\n  0x40\n  mstore\n  dup1\n  0x03\n  dup2\n  mstore\n  0x20\n  add\n  0x5265640000000000000000000000000000000000000000000000000000000000\n  dup2\n  mstore\n  pop\n    /* \"Mappings.sol\":164:170  colors */\n  0x00\n    /* \"Mappings.sol\":164:173  colors[1] */\n  dup1\n    /* \"Mappings.sol\":171:172  1 */\n  0x01\n    /* \"Mappings.sol\":164:173  colors[1] */\n  dup2\n  mstore\n  0x20\n  add\n  swap1\n  dup2\n  mstore\n  0x20\n  add\n  0x00\n  keccak256\n    /* \"Mappings.sol\":164:181  colors[1] = \"Red\" */\n  swap1\n  dup2\n  tag_4\n  swap2\n  swap1\n  tag_5\n  jump\t// in\ntag_4:\n  pop\n    /* \"Mappings.sol\":191:209  colors[2] = \"Blue\" */\n  mload(0x40)\n  dup1\n  0x40\n  add\n  0x40\n  mstore\n  dup1\n  0x04\n  dup2\n  mstore\n  0x20\n  add\n  0x426c756500000000000000000000000000000000000000000000000000000000\n  dup2\n  mstore\n  pop\n    /* \"Mappings.sol\":191:197  colors */\n  0x00\n    /* \"Mappings.sol\":191:200  colors[2] */\n  dup1\n    /* \"Mappings.sol\":198:199  2 */\n  0x02\n    /* \"Mappings.sol\":191:200  colors[2] */\n  dup2\n  mstore\n  0x20\n  add\n  swap1\n  dup2\n  mstore\n  0x20\n  add\n  0x00\n  keccak256\n    /* \"Mappings.sol\":191:209  colors[2] = \"Blue\" */\n  swap1\n  dup2\n  tag_6\n  swap2\n  swap1\n  tag_5\n  jump\t// in\ntag_6:\n  pop\n    /* \"Mappings.sol\":219:238  colors[3] = \"Green\" */\n  mload(0x40)\n  dup1\n  0x40\n  add\n  0x40\n  mstore\n  dup1\n  0x05\n  dup2\n  mstore\n  0x20\n  add\n  0x477265656e000000000000000000000000000000000000000000000000000000\n  dup2\n  mstore\n  pop\n    /* \"Mappings.sol\":219:225  colors */\n  0x00\n    /* \"Mappings.sol\":219:228  colors[3] */\n  dup1\n    /* \"Mappings.sol\":226:227  3 */\n  0x03\n    /* \"Mappings.sol\":219:228  colors[3] */\n  dup2\n  mstore\n  0x20\n  add\n  swap1\n  dup2\n  mstore\n  0x20\n  add\n  0x00\n  keccak256\n    /* \"Mappings.sol\":219:238  colors[3] = \"Green\" */\n  swap1\n  dup2\n  tag_7\n  swap2\n  swap1\n  tag_5\n  jump\t// in\ntag_7:\n  pop\n    /* \"Mappings.sol\":70:896  contract Mapping {... */\n  jump(tag_8)\n    /* \"#utility.yul\":7:106   */\ntag_9:\n    /* \"#utility.yul\":59:65   */\n  0x00\n    /* \"#utility.yul\":93:98   */\n  dup2\n    /* \"#utility.yul\":87:99   */\n  mload\n    /* \"#utility.yul\":77:99   */\n  swap1\n  pop\n    /* \"#utility.yul\":7:106   */\n  swap2\n  swap1\n  pop\n  jump\t// out\n    /* \"#utility.yul\":112:292   */\ntag_10:\n    /* \"#utility.yul\":160:237   */\n  0x4e487b7100000000000000000000000000000000000000000000000000000000\n    /* \"#utility.yul\":157:158   */\n  0x00\n    /* \"#utility.yul\":150:238   */\n  mstore\n    /* \"#utility.yul\":257:261   */\n  0x41\n    /* \"#utility.yul\":254:255   */\n  0x04\n    /* \"#utility.yul\":247:262   */\n  mstore\n    /* \"#utility.yul\":281:285   */\n  0x24\n    /* \"#utility.yul\":278:279   */\n  0x00\n    /* \"#utility.yul\":271:286   */\n  revert\n    /* \"#utility.yul\":298:478   */\ntag_11:\n    /* \"#utility.yul\":346:423   */\n  0x4e487b7100000000000000000000000000000000000000000000000000000000\n    /* \"#utility.yul\":343:344   */\n  0x00\n    /* \"#utility.yul\":336:424   */\n  mstore\n    /* \"#utility.yul\":443:447   */\n  0x22\n    /* \"#utility.yul\":440:441   */\n  0x04\n    /* \"#utility.yul\":433:448   */\n  mstore\n    /* \"#utility.yul\":467:471   */\n  0x24\n    /* \"#utility.yul\":464:465   */\n  0x00\n    /* \"#utility.yul\":457:472   */\n  revert\n    /* \"#utility.yul\":484:804   */\ntag_12:\n    /* \"#utility.yul\":528:534   */\n  0x00\n    /* \"#utility.yul\":565:566   */\n  0x02\n    /* \"#utility.yul\":559:563   */\n  dup3\n    /* \"#utility.yul\":555:567   */\n  div\n    /* \"#utility.yul\":545:567   */\n  swap1\n  pop\n    /* \"#utility.yul\":612:613   */\n  0x01\n    /* \"#utility.yul\":606:610   */\n  dup3\n    /* \"#utility.yul\":602:614   */\n  and\n    /* \"#utility.yul\":633:651   */\n  dup1\n    /* \"#utility.yul\":623:704   */\n  tag_34\n  jumpi\n    /* \"#utility.yul\":689:693   */\n  0x7f\n    /* \"#utility.yul\":681:687   */\n  dup3\n    /* \"#utility.yul\":677:694   */\n  and\n    /* \"#utility.yul\":667:694   */\n  swap2\n  pop\n    /* \"#utility.yul\":623:704   */\ntag_34:\n    /* \"#utility.yul\":751:753   */\n  0x20\n    /* \"#utility.yul\":743:749   */\n  dup3\n    /* \"#utility.yul\":740:754   */\n  lt\n    /* \"#utility.yul\":720:738   */\n  dup2\n    /* \"#utility.yul\":717:755   */\n  sub\n    /* \"#utility.yul\":714:798   */\n  tag_35\n  jumpi\n    /* \"#utility.yul\":770:788   */\n  tag_36\n  tag_11\n  jump\t// in\ntag_36:\n    /* \"#utility.yul\":714:798   */\ntag_35:\n    /* \"#utility.yul\":535:804   */\n  pop\n    /* \"#utility.yul\":484:804   */\n  swap2\n  swap1\n  pop\n  jump\t// out\n    /* \"#utility.yul\":810:951   */\ntag_13:\n    /* \"#utility.yul\":859:863   */\n  0x00\n    /* \"#utility.yul\":882:885   */\n  dup2\n    /* \"#utility.yul\":874:885   */\n  swap1\n  pop\n    /* \"#utility.yul\":905:908   */\n  dup2\n    /* \"#utility.yul\":902:903   */\n  0x00\n    /* \"#utility.yul\":895:909   */\n  mstore\n    /* \"#utility.yul\":939:943   */\n  0x20\n    /* \"#utility.yul\":936:937   */\n  0x00\n    /* \"#utility.yul\":926:944   */\n  keccak256\n    /* \"#utility.yul\":918:944   */\n  swap1\n  pop\n    /* \"#utility.yul\":810:951   */\n  swap2\n  swap1\n  pop\n  jump\t// out\n    /* \"#utility.yul\":957:1050   */\ntag_14:\n    /* \"#utility.yul\":994:1000   */\n  0x00\n    /* \"#utility.yul\":1041:1043   */\n  0x20\n    /* \"#utility.yul\":1036:1038   */\n  0x1f\n    /* \"#utility.yul\":1029:1034   */\n  dup4\n    /* \"#utility.yul\":1025:1039   */\n  add\n    /* \"#utility.yul\":1021:1044   */\n  div\n    /* \"#utility.yul\":1011:1044   */\n  swap1\n  pop\n    /* \"#utility.yul\":957:1050   */\n  swap2\n  swap1\n  pop\n  jump\t// out\n    /* \"#utility.yul\":1056:1163   */\ntag_15:\n    /* \"#utility.yul\":1100:1108   */\n  0x00\n    /* \"#utility.yul\":1150:1155   */\n  dup3\n    /* \"#utility.yul\":1144:1148   */\n  dup3\n    /* \"#utility.yul\":1140:1156   */\n  shl\n    /* \"#utility.yul\":1119:1156   */\n  swap1\n  pop\n    /* \"#utility.yul\":1056:1163   */\n  swap3\n  swap2\n  pop\n  pop\n  jump\t// out\n    /* \"#utility.yul\":1169:1562   */\ntag_16:\n    /* \"#utility.yul\":1238:1244   */\n  0x00\n    /* \"#utility.yul\":1288:1289   */\n  0x08\n    /* \"#utility.yul\":1276:1286   */\n  dup4\n    /* \"#utility.yul\":1272:1290   */\n  mul\n    /* \"#utility.yul\":1311:1408   */\n  tag_41\n    /* \"#utility.yul\":1341:1407   */\n  0xffffffffffffffffffffffffffffffffffffffffffffffffffffffffffffffff\n    /* \"#utility.yul\":1330:1339   */\n  dup3\n    /* \"#utility.yul\":1311:1408   */\n  tag_15\n  jump\t// in\ntag_41:\n    /* \"#utility.yul\":1429:1468   */\n  tag_42\n    /* \"#utility.yul\":1459:1467   */\n  dup7\n    /* \"#utility.yul\":1448:1457   */\n  dup4\n    /* \"#utility.yul\":1429:1468   */\n  tag_15\n  jump\t// in\ntag_42:\n    /* \"#utility.yul\":1417:1468   */\n  swap6\n  pop\n    /* \"#utility.yul\":1501:1505   */\n  dup1\n    /* \"#utility.yul\":1497:1506   */\n  not\n    /* \"#utility.yul\":1490:1495   */\n  dup5\n    /* \"#utility.yul\":1486:1507   */\n  and\n    /* \"#utility.yul\":1477:1507   */\n  swap4\n  pop\n    /* \"#utility.yul\":1550:1554   */\n  dup1\n    /* \"#utility.yul\":1540:1548   */\n  dup7\n    /* \"#utility.yul\":1536:1555   */\n  and\n    /* \"#utility.yul\":1529:1534   */\n  dup5\n    /* \"#utility.yul\":1526:1556   */\n  or\n    /* \"#utility.yul\":1516:1556   */\n  swap3\n  pop\n    /* \"#utility.yul\":1245:1562   */\n  pop\n  pop\n    /* \"#utility.yul\":1169:1562   */\n  swap4\n  swap3\n  pop\n  pop\n  pop\n  jump\t// out\n    /* \"#utility.yul\":1568:1645   */\ntag_17:\n    /* \"#utility.yul\":1605:1612   */\n  0x00\n    /* \"#utility.yul\":1634:1639   */\n  dup2\n    /* \"#utility.yul\":1623:1639   */\n  swap1\n  pop\n    /* \"#utility.yul\":1568:1645   */\n  swap2\n  swap1\n  pop\n  jump\t// out\n    /* \"#utility.yul\":1651:1711   */\ntag_18:\n    /* \"#utility.yul\":1679:1682   */\n  0x00\n    /* \"#utility.yul\":1700:1705   */\n  dup2\n    /* \"#utility.yul\":1693:1705   */\n  swap1\n  pop\n    /* \"#utility.yul\":1651:1711   */\n  swap2\n  swap1\n  pop\n  jump\t// out\n    /* \"#utility.yul\":1717:1859   */\ntag_19:\n    /* \"#utility.yul\":1767:1776   */\n  0x00\n    /* \"#utility.yul\":1800:1853   */\n  tag_46\n    /* \"#utility.yul\":1818:1852   */\n  tag_47\n    /* \"#utility.yul\":1827:1851   */\n  tag_48\n    /* \"#utility.yul\":1845:1850   */\n  dup5\n    /* \"#utility.yul\":1827:1851   */\n  tag_17\n  jump\t// in\ntag_48:\n    /* \"#utility.yul\":1818:1852   */\n  tag_18\n  jump\t// in\ntag_47:\n    /* \"#utility.yul\":1800:1853   */\n  tag_17\n  jump\t// in\ntag_46:\n    /* \"#utility.yul\":1787:1853   */\n  swap1\n  pop\n    /* \"#utility.yul\":1717:1859   */\n  swap2\n  swap1\n  pop\n  jump\t// out\n    /* \"#utility.yul\":1865:1940   */\ntag_20:\n    /* \"#utility.yul\":1908:1911   */\n  0x00\n    /* \"#utility.yul\":1929:1934   */\n  dup2\n    /* \"#utility.yul\":1922:1934   */\n  swap1\n  pop\n    /* \"#utility.yul\":1865:1940   */\n  swap2\n  swap1\n  pop\n  jump\t// out\n    /* \"#utility.yul\":1946:2215   */\ntag_21:\n    /* \"#utility.yul\":2056:2095   */\n  tag_51\n    /* \"#utility.yul\":2087:2094   */\n  dup4\n    /* \"#utility.yul\":2056:2095   */\n  tag_19\n  jump\t// in\ntag_51:\n    /* \"#utility.yul\":2117:2208   */\n  tag_52\n    /* \"#utility.yul\":2166:2207   */\n  tag_53\n    /* \"#utility.yul\":2190:2206   */\n  dup3\n    /* \"#utility.yul\":2166:2207   */\n  tag_20\n  jump\t// in\ntag_53:\n    /* \"#utility.yul\":2158:2164   */\n  dup5\n    /* \"#utility.yul\":2151:2155   */\n  dup5\n    /* \"#utility.yul\":2145:2156   */\n  sload\n    /* \"#utility.yul\":2117:2208   */\n  tag_16\n  jump\t// in\ntag_52:\n    /* \"#utility.yul\":2111:2115   */\n  dup3\n    /* \"#utility.yul\":2104:2209   */\n  sstore\n    /* \"#utility.yul\":2022:2215   */\n  pop\n    /* \"#utility.yul\":1946:2215   */\n  pop\n  pop\n  pop\n  jump\t// out\n    /* \"#utility.yul\":2221:2294   */\ntag_22:\n    /* \"#utility.yul\":2266:2269   */\n  0x00\n    /* \"#utility.yul\":2221:2294   */\n  swap1\n  jump\t// out\n    /* \"#utility.yul\":2300:2489   */\ntag_23:\n    /* \"#utility.yul\":2377:2409   */\n  tag_56\n  tag_22\n  jump\t// in\ntag_56:\n    /* \"#utility.yul\":2418:2483   */\n  tag_57\n    /* \"#utility.yul\":2476:2482   */\n  dup2\n    /* \"#utility.yul\":2468:2474   */\n  dup5\n    /* \"#utility.yul\":2462:2466   */\n  dup5\n    /* \"#utility.yul\":2418:2483   */\n  tag_21\n  jump\t// in\ntag_57:\n    /* \"#utility.yul\":2353:2489   */\n  pop\n    /* \"#utility.yul\":2300:2489   */\n  pop\n  pop\n  jump\t// out\n    /* \"#utility.yul\":2495:2681   */\ntag_24:\n    /* \"#utility.yul\":2555:2675   */\ntag_59:\n    /* \"#utility.yul\":2572:2575   */\n  dup2\n    /* \"#utility.yul\":2565:2570   */\n  dup2\n    /* \"#utility.yul\":2562:2576   */\n  lt\n    /* \"#utility.yul\":2555:2675   */\n  iszero\n  tag_61\n  jumpi\n    /* \"#utility.yul\":2626:2665   */\n  tag_62\n    /* \"#utility.yul\":2663:2664   */\n  0x00\n    /* \"#utility.yul\":2656:2661   */\n  dup3\n    /* \"#utility.yul\":2626:2665   */\n  tag_23\n  jump\t// in\ntag_62:\n    /* \"#utility.yul\":2599:2600   */\n  0x01\n    /* \"#utility.yul\":2592:2597   */\n  dup2\n    /* \"#utility.yul\":2588:2601   */\n  add\n    /* \"#utility.yul\":2579:2601   */\n  swap1\n  pop\n    /* \"#utility.yul\":2555:2675   */\n  jump(tag_59)\ntag_61:\n    /* \"#utility.yul\":2495:2681   */\n  pop\n  pop\n  jump\t// out\n    /* \"#utility.yul\":2687:3230   */\ntag_25:\n    /* \"#utility.yul\":2788:2790   */\n  0x1f\n    /* \"#utility.yul\":2783:2786   */\n  dup3\n    /* \"#utility.yul\":2780:2791   */\n  gt\n    /* \"#utility.yul\":2777:3223   */\n  iszero\n  tag_64\n  jumpi\n    /* \"#utility.yul\":2822:2860   */\n  tag_65\n    /* \"#utility.yul\":2854:2859   */\n  dup2\n    /* \"#utility.yul\":2822:2860   */\n  tag_13\n  jump\t// in\ntag_65:\n    /* \"#utility.yul\":2906:2935   */\n  tag_66\n    /* \"#utility.yul\":2924:2934   */\n  dup5\n    /* \"#utility.yul\":2906:2935   */\n  tag_14\n  jump\t// in\ntag_66:\n    /* \"#utility.yul\":2896:2904   */\n  dup2\n    /* \"#utility.yul\":2892:2936   */\n  add\n    /* \"#utility.yul\":3089:3091   */\n  0x20\n    /* \"#utility.yul\":3077:3087   */\n  dup6\n    /* \"#utility.yul\":3074:3092   */\n  lt\n    /* \"#utility.yul\":3071:3120   */\n  iszero\n  tag_67\n  jumpi\n    /* \"#utility.yul\":3110:3118   */\n  dup2\n    /* \"#utility.yul\":3095:3118   */\n  swap1\n  pop\n    /* \"#utility.yul\":3071:3120   */\ntag_67:\n    /* \"#utility.yul\":3133:3213   */\n  tag_68\n    /* \"#utility.yul\":3189:3211   */\n  tag_69\n    /* \"#utility.yul\":3207:3210   */\n  dup6\n    /* \"#utility.yul\":3189:3211   */\n  tag_14\n  jump\t// in\ntag_69:\n    /* \"#utility.yul\":3179:3187   */\n  dup4\n    /* \"#utility.yul\":3175:3212   */\n  add\n    /* \"#utility.yul\":3162:3173   */\n  dup3\n    /* \"#utility.yul\":3133:3213   */\n  tag_24\n  jump\t// in\ntag_68:\n    /* \"#utility.yul\":2792:3223   */\n  pop\n  pop\n    /* \"#utility.yul\":2777:3223   */\ntag_64:\n    /* \"#utility.yul\":2687:3230   */\n  pop\n  pop\n  pop\n  jump\t// out\n    /* \"#utility.yul\":3236:3353   */\ntag_26:\n    /* \"#utility.yul\":3290:3298   */\n  0x00\n    /* \"#utility.yul\":3340:3345   */\n  dup3\n    /* \"#utility.yul\":3334:3338   */\n  dup3\n    /* \"#utility.yul\":3330:3346   */\n  shr\n    /* \"#utility.yul\":3309:3346   */\n  swap1\n  pop\n    /* \"#utility.yul\":3236:3353   */\n  swap3\n  swap2\n  pop\n  pop\n  jump\t// out\n    /* \"#utility.yul\":3359:3528   */\ntag_27:\n    /* \"#utility.yul\":3403:3409   */\n  0x00\n    /* \"#utility.yul\":3436:3487   */\n  tag_72\n    /* \"#utility.yul\":3484:3485   */\n  0x00\n    /* \"#utility.yul\":3480:3486   */\n  not\n    /* \"#utility.yul\":3472:3477   */\n  dup5\n    /* \"#utility.yul\":3469:3470   */\n  0x08\n    /* \"#utility.yul\":3465:3478   */\n  mul\n    /* \"#utility.yul\":3436:3487   */\n  tag_26\n  jump\t// in\ntag_72:\n    /* \"#utility.yul\":3432:3488   */\n  not\n    /* \"#utility.yul\":3517:3521   */\n  dup1\n    /* \"#utility.yul\":3511:3515   */\n  dup4\n    /* \"#utility.yul\":3507:3522   */\n  and\n    /* \"#utility.yul\":3497:3522   */\n  swap2\n  pop\n    /* \"#utility.yul\":3410:3528   */\n  pop\n    /* \"#utility.yul\":3359:3528   */\n  swap3\n  swap2\n  pop\n  pop\n  jump\t// out\n    /* \"#utility.yul\":3533:3828   */\ntag_28:\n    /* \"#utility.yul\":3609:3613   */\n  0x00\n    /* \"#utility.yul\":3755:3784   */\n  tag_74\n    /* \"#utility.yul\":3780:3783   */\n  dup4\n    /* \"#utility.yul\":3774:3778   */\n  dup4\n    /* \"#utility.yul\":3755:3784   */\n  tag_27\n  jump\t// in\ntag_74:\n    /* \"#utility.yul\":3747:3784   */\n  swap2\n  pop\n    /* \"#utility.yul\":3817:3820   */\n  dup3\n    /* \"#utility.yul\":3814:3815   */\n  0x02\n    /* \"#utility.yul\":3810:3821   */\n  mul\n    /* \"#utility.yul\":3804:3808   */\n  dup3\n    /* \"#utility.yul\":3801:3822   */\n  or\n    /* \"#utility.yul\":3793:3822   */\n  swap1\n  pop\n    /* \"#utility.yul\":3533:3828   */\n  swap3\n  swap2\n  pop\n  pop\n  jump\t// out\n    /* \"#utility.yul\":3833:5228   */\ntag_5:\n    /* \"#utility.yul\":3950:3987   */\n  tag_76\n    /* \"#utility.yul\":3983:3986   */\n  dup3\n    /* \"#utility.yul\":3950:3987   */\n  tag_9\n  jump\t// in\ntag_76:\n    /* \"#utility.yul\":4052:4070   */\n  0xffffffffffffffff\n    /* \"#utility.yul\":4044:4050   */\n  dup2\n    /* \"#utility.yul\":4041:4071   */\n  gt\n    /* \"#utility.yul\":4038:4094   */\n  iszero\n  tag_77\n  jumpi\n    /* \"#utility.yul\":4074:4092   */\n  tag_78\n  tag_10\n  jump\t// in\ntag_78:\n    /* \"#utility.yul\":4038:4094   */\ntag_77:\n    /* \"#utility.yul\":4118:4156   */\n  tag_79\n    /* \"#utility.yul\":4150:4154   */\n  dup3\n    /* \"#utility.yul\":4144:4155   */\n  sload\n    /* \"#utility.yul\":4118:4156   */\n  tag_12\n  jump\t// in\ntag_79:\n    /* \"#utility.yul\":4203:4270   */\n  tag_80\n    /* \"#utility.yul\":4263:4269   */\n  dup3\n    /* \"#utility.yul\":4255:4261   */\n  dup3\n    /* \"#utility.yul\":4249:4253   */\n  dup6\n    /* \"#utility.yul\":4203:4270   */\n  tag_25\n  jump\t// in\ntag_80:\n    /* \"#utility.yul\":4297:4298   */\n  0x00\n    /* \"#utility.yul\":4321:4325   */\n  0x20\n    /* \"#utility.yul\":4308:4325   */\n  swap1\n  pop\n    /* \"#utility.yul\":4353:4355   */\n  0x1f\n    /* \"#utility.yul\":4345:4351   */\n  dup4\n    /* \"#utility.yul\":4342:4356   */\n  gt\n    /* \"#utility.yul\":4370:4371   */\n  0x01\n    /* \"#utility.yul\":4365:4983   */\n  dup2\n  eq\n  tag_82\n  jumpi\n    /* \"#utility.yul\":5027:5028   */\n  0x00\n    /* \"#utility.yul\":5044:5050   */\n  dup5\n    /* \"#utility.yul\":5041:5118   */\n  iszero\n  tag_83\n  jumpi\n    /* \"#utility.yul\":5093:5102   */\n  dup3\n    /* \"#utility.yul\":5088:5091   */\n  dup8\n    /* \"#utility.yul\":5084:5103   */\n  add\n    /* \"#utility.yul\":5078:5104   */\n  mload\n    /* \"#utility.yul\":5069:5104   */\n  swap1\n  pop\n    /* \"#utility.yul\":5041:5118   */\ntag_83:\n    /* \"#utility.yul\":5144:5211   */\n  tag_84\n    /* \"#utility.yul\":5204:5210   */\n  dup6\n    /* \"#utility.yul\":5197:5202   */\n  dup3\n    /* \"#utility.yul\":5144:5211   */\n  tag_28\n  jump\t// in\ntag_84:\n    /* \"#utility.yul\":5138:5142   */\n  dup7\n    /* \"#utility.yul\":5131:5212   */\n  sstore\n    /* \"#utility.yul\":5000:5222   */\n  pop\n    /* \"#utility.yul\":4335:5222   */\n  jump(tag_81)\n    /* \"#utility.yul\":4365:4983   */\ntag_82:\n    /* \"#utility.yul\":4417:4421   */\n  0x1f\n    /* \"#utility.yul\":4413:4422   */\n  not\n    /* \"#utility.yul\":4405:4411   */\n  dup5\n    /* \"#utility.yul\":4401:4423   */\n  and\n    /* \"#utility.yul\":4451:4488   */\n  tag_85\n    /* \"#utility.yul\":4483:4487   */\n  dup7\n    /* \"#utility.yul\":4451:4488   */\n  tag_13\n  jump\t// in\ntag_85:\n    /* \"#utility.yul\":4510:4511   */\n  0x00\n    /* \"#utility.yul\":4524:4732   */\ntag_86:\n    /* \"#utility.yul\":4538:4545   */\n  dup3\n    /* \"#utility.yul\":4535:4536   */\n  dup2\n    /* \"#utility.yul\":4532:4546   */\n  lt\n    /* \"#utility.yul\":4524:4732   */\n  iszero\n  tag_88\n  jumpi\n    /* \"#utility.yul\":4617:4626   */\n  dup5\n    /* \"#utility.yul\":4612:4615   */\n  dup10\n    /* \"#utility.yul\":4608:4627   */\n  add\n    /* \"#utility.yul\":4602:4628   */\n  mload\n    /* \"#utility.yul\":4594:4600   */\n  dup3\n    /* \"#utility.yul\":4587:4629   */\n  sstore\n    /* \"#utility.yul\":4668:4669   */\n  0x01\n    /* \"#utility.yul\":4660:4666   */\n  dup3\n    /* \"#utility.yul\":4656:4670   */\n  add\n    /* \"#utility.yul\":4646:4670   */\n  swap2\n  pop\n    /* \"#utility.yul\":4715:4717   */\n  0x20\n    /* \"#utility.yul\":4704:4713   */\n  dup6\n    /* \"#utility.yul\":4700:4718   */\n  add\n    /* \"#utility.yul\":4687:4718   */\n  swap5\n  pop\n    /* \"#utility.yul\":4561:4565   */\n  0x20\n    /* \"#utility.yul\":4558:4559   */\n  dup2\n    /* \"#utility.yul\":4554:4566   */\n  add\n    /* \"#utility.yul\":4549:4566   */\n  swap1\n  pop\n    /* \"#utility.yul\":4524:4732   */\n  jump(tag_86)\ntag_88:\n    /* \"#utility.yul\":4760:4766   */\n  dup7\n    /* \"#utility.yul\":4751:4758   */\n  dup4\n    /* \"#utility.yul\":4748:4767   */\n  lt\n    /* \"#utility.yul\":4745:4924   */\n  iszero\n  tag_89\n  jumpi\n    /* \"#utility.yul\":4818:4827   */\n  dup5\n    /* \"#utility.yul\":4813:4816   */\n  dup10\n    /* \"#utility.yul\":4809:4828   */\n  add\n    /* \"#utility.yul\":4803:4829   */\n  mload\n    /* \"#utility.yul\":4861:4909   */\n  tag_90\n    /* \"#utility.yul\":4903:4907   */\n  0x1f\n    /* \"#utility.yul\":4895:4901   */\n  dup10\n    /* \"#utility.yul\":4891:4908   */\n  and\n    /* \"#utility.yul\":4880:4889   */\n  dup3\n    /* \"#utility.yul\":4861:4909   */\n  tag_27\n  jump\t// in\ntag_90:\n    /* \"#utility.yul\":4853:4859   */\n  dup4\n    /* \"#utility.yul\":4846:4910   */\n  sstore\n    /* \"#utility.yul\":4768:4924   */\n  pop\n    /* \"#utility.yul\":4745:4924   */\ntag_89:\n    /* \"#utility.yul\":4970:4971   */\n  0x01\n    /* \"#utility.yul\":4966:4967   */\n  0x02\n    /* \"#utility.yul\":4958:4964   */\n  dup9\n    /* \"#utility.yul\":4954:4968   */\n  mul\n    /* \"#utility.yul\":4950:4972   */\n  add\n    /* \"#utility.yul\":4944:4948   */\n  dup9\n    /* \"#utility.yul\":4937:4973   */\n  sstore\n    /* \"#utility.yul\":4372:4983   */\n  pop\n  pop\n  pop\n    /* \"#utility.yul\":4335:5222   */\ntag_81:\n  pop\n    /* \"#utility.yul\":3925:5228   */\n  pop\n  pop\n  pop\n    /* \"#utility.yul\":3833:5228   */\n  pop\n  pop\n  jump\t// out\n    /* \"Mappings.sol\":70:896  contract Mapping {... */\ntag_8:\n  dataSize(sub_0)\n  dup1\n  dataOffset(sub_0)\n  0x00\n  codecopy\n  0x00\n  return\nstop\n\nsub_0: assembly {\n        /* \"Mappings.sol\":70:896  contract Mapping {... */\n      mstore(0x40, 0x80)\n      callvalue\n      dup1\n      iszero\n      tag_1\n      jumpi\n      0x00\n      dup1\n      revert\n    tag_1:\n      pop\n      jumpi(tag_2, lt(calldatasize, 0x04))\n      shr(0xe0, calldataload(0x00))\n      dup1\n      0x1c0a1667\n      eq\n      tag_3\n      jumpi\n      dup1\n      0x66815166\n      eq\n      tag_4\n      jumpi\n      dup1\n      0x6a6d6270\n      eq\n      tag_5\n      jumpi\n      dup1\n      0xbd11f69d\n      eq\n      tag_6\n      jumpi\n      dup1\n      0xeb3aa834\n      eq\n      tag_7\n      jumpi\n      dup1\n      0xf7746e36\n      eq\n      tag_8\n      jumpi\n    tag_2:\n      0x00\n      dup1\n      revert\n        /* \"Mappings.sol\":469:633  function addCar(... */\n    tag_3:\n      tag_9\n      0x04\n      dup1\n      calldatasize\n      sub\n      dup2\n      add\n      swap1\n      tag_10\n      swap2\n      swap1\n      tag_11\n      jump\t// in\n    tag_10:\n      tag_12\n      jump\t// in\n    tag_9:\n      stop\n        /* \"Mappings.sol\":251:354  function addColor(uint256 _index, string memory _color) public {... */\n    tag_4:\n      tag_13\n      0x04\n      dup1\n      calldatasize\n      sub\n      dup2\n      add\n      swap1\n      tag_14\n      swap2\n      swap1\n      tag_15\n      jump\t// in\n    tag_14:\n      tag_16\n      jump\t// in\n    tag_13:\n      stop\n        /* \"Mappings.sol\":634:692  mapping(address => mapping(uint => Car)) public playerCars */\n    tag_5:\n      tag_17\n      0x04\n      dup1\n      calldatasize\n      sub\n      dup2\n      add\n      swap1\n      tag_18\n      swap2\n      swap1\n      tag_19\n      jump\t// in\n    tag_18:\n      tag_20\n      jump\t// in\n    tag_17:\n      mload(0x40)\n      tag_21\n      swap3\n      swap2\n      swap1\n      tag_22\n      jump\t// in\n    tag_21:\n      mload(0x40)\n      dup1\n      swap2\n      sub\n      swap1\n      return\n        /* \"Mappings.sol\":93:133  mapping(uint256 => string) public colors */\n    tag_6:\n      tag_23\n      0x04\n      dup1\n      calldatasize\n      sub\n      dup2\n      add\n      swap1\n      tag_24\n      swap2\n      swap1\n      tag_25\n      jump\t// in\n    tag_24:\n      tag_26\n      jump\t// in\n    tag_23:\n      mload(0x40)\n      tag_27\n      swap2\n      swap1\n      tag_28\n      jump\t// in\n    tag_27:\n      mload(0x40)\n      dup1\n      swap2\n      sub\n      swap1\n      return\n        /* \"Mappings.sol\":696:893  function addPlayerCar(... */\n    tag_7:\n      tag_29\n      0x04\n      dup1\n      calldatasize\n      sub\n      dup2\n      add\n      swap1\n      tag_30\n      swap2\n      swap1\n      tag_11\n      jump\t// in\n    tag_30:\n      tag_31\n      jump\t// in\n    tag_29:\n      stop\n        /* \"Mappings.sol\":427:462  mapping(uint256 => Car) public cars */\n    tag_8:\n      tag_32\n      0x04\n      dup1\n      calldatasize\n      sub\n      dup2\n      add\n      swap1\n      tag_33\n      swap2\n      swap1\n      tag_25\n      jump\t// in\n    tag_33:\n      tag_34\n      jump\t// in\n    tag_32:\n      mload(0x40)\n      tag_35\n      swap3\n      swap2\n      swap1\n      tag_22\n      jump\t// in\n    tag_35:\n      mload(0x40)\n      dup1\n      swap2\n      sub\n      swap1\n      return\n        /* \"Mappings.sol\":469:633  function addCar(... */\n    tag_12:\n        /* \"Mappings.sol\":607:626  Car(_maker, _model) */\n      mload(0x40)\n      dup1\n      0x40\n      add\n      0x40\n      mstore\n      dup1\n        /* \"Mappings.sol\":611:617  _maker */\n      dup4\n        /* \"Mappings.sol\":607:626  Car(_maker, _model) */\n      dup2\n      mstore\n      0x20\n      add\n        /* \"Mappings.sol\":619:625  _model */\n      dup3\n        /* \"Mappings.sol\":607:626  Car(_maker, _model) */\n      dup2\n      mstore\n      pop\n        /* \"Mappings.sol\":592:596  cars */\n      0x01\n        /* \"Mappings.sol\":592:604  cars[_index] */\n      0x00\n        /* \"Mappings.sol\":597:603  _index */\n      dup6\n        /* \"Mappings.sol\":592:604  cars[_index] */\n      dup2\n      mstore\n      0x20\n      add\n      swap1\n      dup2\n      mstore\n      0x20\n      add\n      0x00\n      keccak256\n        /* \"Mappings.sol\":592:626  cars[_index] = Car(_maker, _model) */\n      0x00\n      dup3\n      add\n      mload\n      dup2\n      0x00\n      add\n      swap1\n      dup2\n      tag_37\n      swap2\n      swap1\n      tag_38\n      jump\t// in\n    tag_37:\n      pop\n      0x20\n      dup3\n      add\n      mload\n      dup2\n      0x01\n      add\n      swap1\n      dup2\n      tag_39\n      swap2\n      swap1\n      tag_38\n      jump\t// in\n    tag_39:\n      pop\n      swap1\n      pop\n      pop\n        /* \"Mappings.sol\":469:633  function addCar(... */\n      pop\n      pop\n      pop\n      jump\t// out\n        /* \"Mappings.sol\":251:354  function addColor(uint256 _index, string memory _color) public {... */\n    tag_16:\n        /* \"Mappings.sol\":341:347  _color */\n      dup1\n        /* \"Mappings.sol\":324:330  colors */\n      0x00\n        /* \"Mappings.sol\":324:338  colors[_index] */\n      dup1\n        /* \"Mappings.sol\":331:337  _index */\n      dup5\n        /* \"Mappings.sol\":324:338  colors[_index] */\n      dup2\n      mstore\n      0x20\n      add\n      swap1\n      dup2\n      mstore\n      0x20\n      add\n      0x00\n      keccak256\n        /* \"Mappings.sol\":324:347  colors[_index] = _color */\n      swap1\n      dup2\n      tag_41\n      swap2\n      swap1\n      tag_38\n      jump\t// in\n    tag_41:\n      pop\n        /* \"Mappings.sol\":251:354  function addColor(uint256 _index, string memory _color) public {... */\n      pop\n      pop\n      jump\t// out\n        /* \"Mappings.sol\":634:692  mapping(address => mapping(uint => Car)) public playerCars */\n    tag_20:\n      mstore(0x20, 0x02)\n      dup2\n      0x00\n      mstore\n      mstore(0x20, keccak256(0x00, 0x40))\n      dup1\n      0x00\n      mstore\n      keccak256(0x00, 0x40)\n      0x00\n      swap2\n      pop\n      swap2\n      pop\n      pop\n      dup1\n      0x00\n      add\n      dup1\n      sload\n      tag_42\n      swap1\n      tag_43\n      jump\t// in\n    tag_42:\n      dup1\n      0x1f\n      add\n      0x20\n      dup1\n      swap2\n      div\n      mul\n      0x20\n      add\n      mload(0x40)\n      swap1\n      dup2\n      add\n      0x40\n      mstore\n      dup1\n      swap3\n      swap2\n      swap1\n      dup2\n      dup2\n      mstore\n      0x20\n      add\n      dup3\n      dup1\n      sload\n      tag_44\n      swap1\n      tag_43\n      jump\t// in\n    tag_44:\n      dup1\n      iszero\n      tag_45\n      jumpi\n      dup1\n      0x1f\n      lt\n      tag_46\n      jumpi\n      0x0100\n      dup1\n      dup4\n      sload\n      div\n      mul\n      dup4\n      mstore\n      swap2\n      0x20\n      add\n      swap2\n      jump(tag_45)\n    tag_46:\n      dup3\n      add\n      swap2\n      swap1\n      0x00\n      mstore\n      keccak256(0x00, 0x20)\n      swap1\n    tag_47:\n      dup2\n      sload\n      dup2\n      mstore\n      swap1\n      0x01\n      add\n      swap1\n      0x20\n      add\n      dup1\n      dup4\n      gt\n      tag_47\n      jumpi\n      dup3\n      swap1\n      sub\n      0x1f\n      and\n      dup3\n      add\n      swap2\n    tag_45:\n      pop\n      pop\n      pop\n      pop\n      pop\n      swap1\n      dup1\n      0x01\n      add\n      dup1\n      sload\n      tag_48\n      swap1\n      tag_43\n      jump\t// in\n    tag_48:\n      dup1\n      0x1f\n      add\n      0x20\n      dup1\n      swap2\n      div\n      mul\n      0x20\n      add\n      mload(0x40)\n      swap1\n      dup2\n      add\n      0x40\n      mstore\n      dup1\n      swap3\n      swap2\n      swap1\n      dup2\n      dup2\n      mstore\n      0x20\n      add\n      dup3\n      dup1\n      sload\n      tag_49\n      swap1\n      tag_43\n      jump\t// in\n    tag_49:\n      dup1\n      iszero\n      tag_50\n      jumpi\n      dup1\n      0x1f\n      lt\n      tag_51\n      jumpi\n      0x0100\n      dup1\n      dup4\n      sload\n      div\n      mul\n      dup4\n      mstore\n      swap2\n      0x20\n      add\n      swap2\n      jump(tag_50)\n    tag_51:\n      dup3\n      add\n      swap2\n      swap1\n      0x00\n      mstore\n      keccak256(0x00, 0x20)\n      swap1\n    tag_52:\n      dup2\n      sload\n      dup2\n      mstore\n      swap1\n      0x01\n      add\n      swap1\n      0x20\n      add\n      dup1\n      dup4\n      gt\n      tag_52\n      jumpi\n      dup3\n      swap1\n      sub\n      0x1f\n      and\n      dup3\n      add\n      swap2\n    tag_50:\n      pop\n      pop\n      pop\n      pop\n      pop\n      swap1\n      pop\n      dup3\n      jump\t// out\n        /* \"Mappings.sol\":93:133  mapping(uint256 => string) public colors */\n    tag_26:\n      mstore(0x20, 0x00)\n      dup1\n      0x00\n      mstore\n      keccak256(0x00, 0x40)\n      0x00\n      swap2\n      pop\n      swap1\n      pop\n      dup1\n      sload\n      tag_53\n      swap1\n      tag_43\n      jump\t// in\n    tag_53:\n      dup1\n      0x1f\n      add\n      0x20\n      dup1\n      swap2\n      div\n      mul\n      0x20\n      add\n      mload(0x40)\n      swap1\n      dup2\n      add\n      0x40\n      mstore\n      dup1\n      swap3\n      swap2\n      swap1\n      dup2\n      dup2\n      mstore\n      0x20\n      add\n      dup3\n      dup1\n      sload\n      tag_54\n      swap1\n      tag_43\n      jump\t// in\n    tag_54:\n      dup1\n      iszero\n      tag_55\n      jumpi\n      dup1\n      0x1f\n      lt\n      tag_56\n      jumpi\n      0x0100\n      dup1\n      dup4\n      sload\n      div\n      mul\n      dup4\n      mstore\n      swap2\n      0x20\n      add\n      swap2\n      jump(tag_55)\n    tag_56:\n      dup3\n      add\n      swap2\n      swap1\n      0x00\n      mstore\n      keccak256(0x00, 0x20)\n      swap1\n    tag_57:\n      dup2\n      sload\n      dup2\n      mstore\n      swap1\n      0x01\n      add\n      swap1\n      0x20\n      add\n      dup1\n      dup4\n      gt\n      tag_57\n      jumpi\n      dup3\n      swap1\n      sub\n      0x1f\n      and\n      dup3\n      add\n      swap2\n    tag_55:\n      pop\n      pop\n      pop\n      pop\n      pop\n      dup2\n      jump\t// out\n        /* \"Mappings.sol\":696:893  function addPlayerCar(... */\n    tag_31:\n        /* \"Mappings.sol\":858:877  Car(_maker, _model) */\n      mload(0x40)\n      dup1\n      0x40\n      add\n      0x40\n      mstore\n      dup1\n        /* \"Mappings.sol\":862:868  _maker */\n      dup4\n        /* \"Mappings.sol\":858:877  Car(_maker, _model) */\n      dup2\n      mstore\n      0x20\n      add\n        /* \"Mappings.sol\":870:876  _model */\n      dup3\n        /* \"Mappings.sol\":858:877  Car(_maker, _model) */\n      dup2\n      mstore\n      pop\n        /* \"Mappings.sol\":825:835  playerCars */\n      0x02\n        /* \"Mappings.sol\":825:847  playerCars[msg.sender] */\n      0x00\n        /* \"Mappings.sol\":836:846  msg.sender */\n      caller\n        /* \"Mappings.sol\":825:847  playerCars[msg.sender] */\n      0xffffffffffffffffffffffffffffffffffffffff\n      and\n      0xffffffffffffffffffffffffffffffffffffffff\n      and\n      dup2\n      mstore\n      0x20\n      add\n      swap1\n      dup2\n      mstore\n      0x20\n      add\n      0x00\n      keccak256\n        /* \"Mappings.sol\":825:855  playerCars[msg.sender][_index] */\n      0x00\n        /* \"Mappings.sol\":848:854  _index */\n      dup6\n        /* \"Mappings.sol\":825:855  playerCars[msg.sender][_index] */\n      dup2\n      mstore\n      0x20\n      add\n      swap1\n      dup2\n      mstore\n      0x20\n      add\n      0x00\n      keccak256\n        /* \"Mappings.sol\":825:877  playerCars[msg.sender][_index] = Car(_maker, _model) */\n      0x00\n      dup3\n      add\n      mload\n      dup2\n      0x00\n      add\n      swap1\n      dup2\n      tag_59\n      swap2\n      swap1\n      tag_38\n      jump\t// in\n    tag_59:\n      pop\n      0x20\n      dup3\n      add\n      mload\n      dup2\n      0x01\n      add\n      swap1\n      dup2\n      tag_60\n      swap2\n      swap1\n      tag_38\n      jump\t// in\n    tag_60:\n      pop\n      swap1\n      pop\n      pop\n        /* \"Mappings.sol\":696:893  function addPlayerCar(... */\n      pop\n      pop\n      pop\n      jump\t// out\n        /* \"Mappings.sol\":427:462  mapping(uint256 => Car) public cars */\n    tag_34:\n      mstore(0x20, 0x01)\n      dup1\n      0x00\n      mstore\n      keccak256(0x00, 0x40)\n      0x00\n      swap2\n      pop\n      swap1\n      pop\n      dup1\n      0x00\n      add\n      dup1\n      sload\n      tag_61\n      swap1\n      tag_43\n      jump\t// in\n    tag_61:\n      dup1\n      0x1f\n      add\n      0x20\n      dup1\n      swap2\n      div\n      mul\n      0x20\n      add\n      mload(0x40)\n      swap1\n      dup2\n      add\n      0x40\n      mstore\n      dup1\n      swap3\n      swap2\n      swap1\n      dup2\n      dup2\n      mstore\n      0x20\n      add\n      dup3\n      dup1\n      sload\n      tag_62\n      swap1\n      tag_43\n      jump\t// in\n    tag_62:\n      dup1\n      iszero\n      tag_63\n      jumpi\n      dup1\n      0x1f\n      lt\n      tag_64\n      jumpi\n      0x0100\n      dup1\n      dup4\n      sload\n      div\n      mul\n      dup4\n      mstore\n      swap2\n      0x20\n      add\n      swap2\n      jump(tag_63)\n    tag_64:\n      dup3\n      add\n      swap2\n      swap1\n      0x00\n      mstore\n      keccak256(0x00, 0x20)\n      swap1\n    tag_65:\n      dup2\n      sload\n      dup2\n      mstore\n      swap1\n      0x01\n      add\n      swap1\n      0x20\n      add\n      dup1\n      dup4\n      gt\n      tag_65\n      jumpi\n      dup3\n      swap1\n      sub\n      0x1f\n      and\n      dup3\n      add\n      swap2\n    tag_63:\n      pop\n      pop\n      pop\n      pop\n      pop\n      swap1\n      dup1\n      0x01\n      add\n      dup1\n      sload\n      tag_66\n      swap1\n      tag_43\n      jump\t// in\n    tag_66:\n      dup1\n      0x1f\n      add\n      0x20\n      dup1\n      swap2\n      div\n      mul\n      0x20\n      add\n      mload(0x40)\n      swap1\n      dup2\n      add\n      0x40\n      mstore\n      dup1\n      swap3\n      swap2\n      swap1\n      dup2\n      dup2\n      mstore\n      0x20\n      add\n      dup3\n      dup1\n      sload\n      tag_67\n      swap1\n      tag_43\n      jump\t// in\n    tag_67:\n      dup1\n      iszero\n      tag_68\n      jumpi\n      dup1\n      0x1f\n      lt\n      tag_69\n      jumpi\n      0x0100\n      dup1\n      dup4\n      sload\n      div\n      mul\n      dup4\n      mstore\n      swap2\n      0x20\n      add\n      swap2\n      jump(tag_68)\n    tag_69:\n      dup3\n      add\n      swap2\n      swap1\n      0x00\n      mstore\n      keccak256(0x00, 0x20)\n      swap1\n    tag_70:\n      dup2\n      sload\n      dup2\n      mstore\n      swap1\n      0x01\n      add\n      swap1\n      0x20\n      add\n      dup1\n      dup4\n      gt\n      tag_70\n      jumpi\n      dup3\n      swap1\n      sub\n      0x1f\n      and\n      dup3\n      add\n      swap2\n    tag_68:\n      pop\n      pop\n      pop\n      pop\n      pop\n      swap1\n      pop\n      dup3\n      jump\t// out\n        /* \"#utility.yul\":7:82   */\n    tag_71:\n        /* \"#utility.yul\":40:46   */\n      0x00\n        /* \"#utility.yul\":73:75   */\n      0x40\n        /* \"#utility.yul\":67:76   */\n      mload\n        /* \"#utility.yul\":57:76   */\n      swap1\n      pop\n        /* \"#utility.yul\":7:82   */\n      swap1\n      jump\t// out\n        /* \"#utility.yul\":88:205   */\n    tag_72:\n        /* \"#utility.yul\":197:198   */\n      0x00\n        /* \"#utility.yul\":194:195   */\n      dup1\n        /* \"#utility.yul\":187:199   */\n      revert\n        /* \"#utility.yul\":211:328   */\n    tag_73:\n        /* \"#utility.yul\":320:321   */\n      0x00\n        /* \"#utility.yul\":317:318   */\n      dup1\n        /* \"#utility.yul\":310:322   */\n      revert\n        /* \"#utility.yul\":334:411   */\n    tag_74:\n        /* \"#utility.yul\":371:378   */\n      0x00\n        /* \"#utility.yul\":400:405   */\n      dup2\n        /* \"#utility.yul\":389:405   */\n      swap1\n      pop\n        /* \"#utility.yul\":334:411   */\n      swap2\n      swap1\n      pop\n      jump\t// out\n        /* \"#utility.yul\":417:539   */\n    tag_75:\n        /* \"#utility.yul\":490:514   */\n      tag_117\n        /* \"#utility.yul\":508:513   */\n      dup2\n        /* \"#utility.yul\":490:514   */\n      tag_74\n      jump\t// in\n    tag_117:\n        /* \"#utility.yul\":483:488   */\n      dup2\n        /* \"#utility.yul\":480:515   */\n      eq\n        /* \"#utility.yul\":470:533   */\n      tag_118\n      jumpi\n        /* \"#utility.yul\":529:530   */\n      0x00\n        /* \"#utility.yul\":526:527   */\n      dup1\n        /* \"#utility.yul\":519:531   */\n      revert\n        /* \"#utility.yul\":470:533   */\n    tag_118:\n        /* \"#utility.yul\":417:539   */\n      pop\n      jump\t// out\n        /* \"#utility.yul\":545:684   */\n    tag_76:\n        /* \"#utility.yul\":591:596   */\n      0x00\n        /* \"#utility.yul\":629:635   */\n      dup2\n        /* \"#utility.yul\":616:636   */\n      calldataload\n        /* \"#utility.yul\":607:636   */\n      swap1\n      pop\n        /* \"#utility.yul\":645:678   */\n      tag_120\n        /* \"#utility.yul\":672:677   */\n      dup2\n        /* \"#utility.yul\":645:678   */\n      tag_75\n      jump\t// in\n    tag_120:\n        /* \"#utility.yul\":545:684   */\n      swap3\n      swap2\n      pop\n      pop\n      jump\t// out\n        /* \"#utility.yul\":690:807   */\n    tag_77:\n        /* \"#utility.yul\":799:800   */\n      0x00\n        /* \"#utility.yul\":796:797   */\n      dup1\n        /* \"#utility.yul\":789:801   */\n      revert\n        /* \"#utility.yul\":813:930   */\n    tag_78:\n        /* \"#utility.yul\":922:923   */\n      0x00\n        /* \"#utility.yul\":919:920   */\n      dup1\n        /* \"#utility.yul\":912:924   */\n      revert\n        /* \"#utility.yul\":936:1038   */\n    tag_79:\n        /* \"#utility.yul\":977:983   */\n      0x00\n        /* \"#utility.yul\":1028:1030   */\n      0x1f\n        /* \"#utility.yul\":1024:1031   */\n      not\n        /* \"#utility.yul\":1019:1021   */\n      0x1f\n        /* \"#utility.yul\":1012:1017   */\n      dup4\n        /* \"#utility.yul\":1008:1022   */\n      add\n        /* \"#utility.yul\":1004:1032   */\n      and\n        /* \"#utility.yul\":994:1032   */\n      swap1\n      pop\n        /* \"#utility.yul\":936:1038   */\n      swap2\n      swap1\n      pop\n      jump\t// out\n        /* \"#utility.yul\":1044:1224   */\n    tag_80:\n        /* \"#utility.yul\":1092:1169   */\n      0x4e487b7100000000000000000000000000000000000000000000000000000000\n        /* \"#utility.yul\":1089:1090   */\n      0x00\n        /* \"#utility.yul\":1082:1170   */\n      mstore\n        /* \"#utility.yul\":1189:1193   */\n      0x41\n        /* \"#utility.yul\":1186:1187   */\n      0x04\n        /* \"#utility.yul\":1179:1194   */\n      mstore\n        /* \"#utility.yul\":1213:1217   */\n      0x24\n        /* \"#utility.yul\":1210:1211   */\n      0x00\n        /* \"#utility.yul\":1203:1218   */\n      revert\n        /* \"#utility.yul\":1230:1511   */\n    tag_81:\n        /* \"#utility.yul\":1313:1340   */\n      tag_126\n        /* \"#utility.yul\":1335:1339   */\n      dup3\n        /* \"#utility.yul\":1313:1340   */\n      tag_79\n      jump\t// in\n    tag_126:\n        /* \"#utility.yul\":1305:1311   */\n      dup2\n        /* \"#utility.yul\":1301:1341   */\n      add\n        /* \"#utility.yul\":1443:1449   */\n      dup2\n        /* \"#utility.yul\":1431:1441   */\n      dup2\n        /* \"#utility.yul\":1428:1450   */\n      lt\n        /* \"#utility.yul\":1407:1425   */\n      0xffffffffffffffff\n        /* \"#utility.yul\":1395:1405   */\n      dup3\n        /* \"#utility.yul\":1392:1426   */\n      gt\n        /* \"#utility.yul\":1389:1451   */\n      or\n        /* \"#utility.yul\":1386:1474   */\n      iszero\n      tag_127\n      jumpi\n        /* \"#utility.yul\":1454:1472   */\n      tag_128\n      tag_80\n      jump\t// in\n    tag_128:\n        /* \"#utility.yul\":1386:1474   */\n    tag_127:\n        /* \"#utility.yul\":1494:1504   */\n      dup1\n        /* \"#utility.yul\":1490:1492   */\n      0x40\n        /* \"#utility.yul\":1483:1505   */\n      mstore\n        /* \"#utility.yul\":1273:1511   */\n      pop\n        /* \"#utility.yul\":1230:1511   */\n      pop\n      pop\n      jump\t// out\n        /* \"#utility.yul\":1517:1646   */\n    tag_82:\n        /* \"#utility.yul\":1551:1557   */\n      0x00\n        /* \"#utility.yul\":1578:1598   */\n      tag_130\n      tag_71\n      jump\t// in\n    tag_130:\n        /* \"#utility.yul\":1568:1598   */\n      swap1\n      pop\n        /* \"#utility.yul\":1607:1640   */\n      tag_131\n        /* \"#utility.yul\":1635:1639   */\n      dup3\n        /* \"#utility.yul\":1627:1633   */\n      dup3\n        /* \"#utility.yul\":1607:1640   */\n      tag_81\n      jump\t// in\n    tag_131:\n        /* \"#utility.yul\":1517:1646   */\n      swap2\n      swap1\n      pop\n      jump\t// out\n        /* \"#utility.yul\":1652:1960   */\n    tag_83:\n        /* \"#utility.yul\":1714:1718   */\n      0x00\n        /* \"#utility.yul\":1804:1822   */\n      0xffffffffffffffff\n        /* \"#utility.yul\":1796:1802   */\n      dup3\n        /* \"#utility.yul\":1793:1823   */\n      gt\n        /* \"#utility.yul\":1790:1846   */\n      iszero\n      tag_133\n      jumpi\n        /* \"#utility.yul\":1826:1844   */\n      tag_134\n      tag_80\n      jump\t// in\n    tag_134:\n        /* \"#utility.yul\":1790:1846   */\n    tag_133:\n        /* \"#utility.yul\":1864:1893   */\n      tag_135\n        /* \"#utility.yul\":1886:1892   */\n      dup3\n        /* \"#utility.yul\":1864:1893   */\n      tag_79\n      jump\t// in\n    tag_135:\n        /* \"#utility.yul\":1856:1893   */\n      swap1\n      pop\n        /* \"#utility.yul\":1948:1952   */\n      0x20\n        /* \"#utility.yul\":1942:1946   */\n      dup2\n        /* \"#utility.yul\":1938:1953   */\n      add\n        /* \"#utility.yul\":1930:1953   */\n      swap1\n      pop\n        /* \"#utility.yul\":1652:1960   */\n      swap2\n      swap1\n      pop\n      jump\t// out\n        /* \"#utility.yul\":1966:2112   */\n    tag_84:\n        /* \"#utility.yul\":2063:2069   */\n      dup3\n        /* \"#utility.yul\":2058:2061   */\n      dup2\n        /* \"#utility.yul\":2053:2056   */\n      dup4\n        /* \"#utility.yul\":2040:2070   */\n      calldatacopy\n        /* \"#utility.yul\":2104:2105   */\n      0x00\n        /* \"#utility.yul\":2095:2101   */\n      dup4\n        /* \"#utility.yul\":2090:2093   */\n      dup4\n        /* \"#utility.yul\":2086:2102   */\n      add\n        /* \"#utility.yul\":2079:2106   */\n      mstore\n        /* \"#utility.yul\":1966:2112   */\n      pop\n      pop\n      pop\n      jump\t// out\n        /* \"#utility.yul\":2118:2543   */\n    tag_85:\n        /* \"#utility.yul\":2196:2201   */\n      0x00\n        /* \"#utility.yul\":2221:2287   */\n      tag_138\n        /* \"#utility.yul\":2237:2286   */\n      tag_139\n        /* \"#utility.yul\":2279:2285   */\n      dup5\n        /* \"#utility.yul\":2237:2286   */\n      tag_83\n      jump\t// in\n    tag_139:\n        /* \"#utility.yul\":2221:2287   */\n      tag_82\n      jump\t// in\n    tag_138:\n        /* \"#utility.yul\":2212:2287   */\n      swap1\n      pop\n        /* \"#utility.yul\":2310:2316   */\n      dup3\n        /* \"#utility.yul\":2303:2308   */\n      dup2\n        /* \"#utility.yul\":2296:2317   */\n      mstore\n        /* \"#utility.yul\":2348:2352   */\n      0x20\n        /* \"#utility.yul\":2341:2346   */\n      dup2\n        /* \"#utility.yul\":2337:2353   */\n      add\n        /* \"#utility.yul\":2386:2389   */\n      dup5\n        /* \"#utility.yul\":2377:2383   */\n      dup5\n        /* \"#utility.yul\":2372:2375   */\n      dup5\n        /* \"#utility.yul\":2368:2384   */\n      add\n        /* \"#utility.yul\":2365:2390   */\n      gt\n        /* \"#utility.yul\":2362:2474   */\n      iszero\n      tag_140\n      jumpi\n        /* \"#utility.yul\":2393:2472   */\n      tag_141\n      tag_78\n      jump\t// in\n    tag_141:\n        /* \"#utility.yul\":2362:2474   */\n    tag_140:\n        /* \"#utility.yul\":2483:2537   */\n      tag_142\n        /* \"#utility.yul\":2530:2536   */\n      dup5\n        /* \"#utility.yul\":2525:2528   */\n      dup3\n        /* \"#utility.yul\":2520:2523   */\n      dup6\n        /* \"#utility.yul\":2483:2537   */\n      tag_84\n      jump\t// in\n    tag_142:\n        /* \"#utility.yul\":2202:2543   */\n      pop\n        /* \"#utility.yul\":2118:2543   */\n      swap4\n      swap3\n      pop\n      pop\n      pop\n      jump\t// out\n        /* \"#utility.yul\":2563:2903   */\n    tag_86:\n        /* \"#utility.yul\":2619:2624   */\n      0x00\n        /* \"#utility.yul\":2668:2671   */\n      dup3\n        /* \"#utility.yul\":2661:2665   */\n      0x1f\n        /* \"#utility.yul\":2653:2659   */\n      dup4\n        /* \"#utility.yul\":2649:2666   */\n      add\n        /* \"#utility.yul\":2645:2672   */\n      slt\n        /* \"#utility.yul\":2635:2757   */\n      tag_144\n      jumpi\n        /* \"#utility.yul\":2676:2755   */\n      tag_145\n      tag_77\n      jump\t// in\n    tag_145:\n        /* \"#utility.yul\":2635:2757   */\n    tag_144:\n        /* \"#utility.yul\":2793:2799   */\n      dup2\n        /* \"#utility.yul\":2780:2800   */\n      calldataload\n        /* \"#utility.yul\":2818:2897   */\n      tag_146\n        /* \"#utility.yul\":2893:2896   */\n      dup5\n        /* \"#utility.yul\":2885:2891   */\n      dup3\n        /* \"#utility.yul\":2878:2882   */\n      0x20\n        /* \"#utility.yul\":2870:2876   */\n      dup7\n        /* \"#utility.yul\":2866:2883   */\n      add\n        /* \"#utility.yul\":2818:2897   */\n      tag_85\n      jump\t// in\n    tag_146:\n        /* \"#utility.yul\":2809:2897   */\n      swap2\n      pop\n        /* \"#utility.yul\":2625:2903   */\n      pop\n        /* \"#utility.yul\":2563:2903   */\n      swap3\n      swap2\n      pop\n      pop\n      jump\t// out\n        /* \"#utility.yul\":2909:3888   */\n    tag_11:\n        /* \"#utility.yul\":3006:3012   */\n      0x00\n        /* \"#utility.yul\":3014:3020   */\n      dup1\n        /* \"#utility.yul\":3022:3028   */\n      0x00\n        /* \"#utility.yul\":3071:3073   */\n      0x60\n        /* \"#utility.yul\":3059:3068   */\n      dup5\n        /* \"#utility.yul\":3050:3057   */\n      dup7\n        /* \"#utility.yul\":3046:3069   */\n      sub\n        /* \"#utility.yul\":3042:3074   */\n      slt\n        /* \"#utility.yul\":3039:3158   */\n      iszero\n      tag_148\n      jumpi\n        /* \"#utility.yul\":3077:3156   */\n      tag_149\n      tag_72\n      jump\t// in\n    tag_149:\n        /* \"#utility.yul\":3039:3158   */\n    tag_148:\n        /* \"#utility.yul\":3197:3198   */\n      0x00\n        /* \"#utility.yul\":3222:3275   */\n      tag_150\n        /* \"#utility.yul\":3267:3274   */\n      dup7\n        /* \"#utility.yul\":3258:3264   */\n      dup3\n        /* \"#utility.yul\":3247:3256   */\n      dup8\n        /* \"#utility.yul\":3243:3265   */\n      add\n        /* \"#utility.yul\":3222:3275   */\n      tag_76\n      jump\t// in\n    tag_150:\n        /* \"#utility.yul\":3212:3275   */\n      swap4\n      pop\n        /* \"#utility.yul\":3168:3285   */\n      pop\n        /* \"#utility.yul\":3352:3354   */\n      0x20\n        /* \"#utility.yul\":3341:3350   */\n      dup5\n        /* \"#utility.yul\":3337:3355   */\n      add\n        /* \"#utility.yul\":3324:3356   */\n      calldataload\n        /* \"#utility.yul\":3383:3401   */\n      0xffffffffffffffff\n        /* \"#utility.yul\":3375:3381   */\n      dup2\n        /* \"#utility.yul\":3372:3402   */\n      gt\n        /* \"#utility.yul\":3369:3486   */\n      iszero\n      tag_151\n      jumpi\n        /* \"#utility.yul\":3405:3484   */\n      tag_152\n      tag_73\n      jump\t// in\n    tag_152:\n        /* \"#utility.yul\":3369:3486   */\n    tag_151:\n        /* \"#utility.yul\":3510:3573   */\n      tag_153\n        /* \"#utility.yul\":3565:3572   */\n      dup7\n        /* \"#utility.yul\":3556:3562   */\n      dup3\n        /* \"#utility.yul\":3545:3554   */\n      dup8\n        /* \"#utility.yul\":3541:3563   */\n      add\n        /* \"#utility.yul\":3510:3573   */\n      tag_86\n      jump\t// in\n    tag_153:\n        /* \"#utility.yul\":3500:3573   */\n      swap3\n      pop\n        /* \"#utility.yul\":3295:3583   */\n      pop\n        /* \"#utility.yul\":3650:3652   */\n      0x40\n        /* \"#utility.yul\":3639:3648   */\n      dup5\n        /* \"#utility.yul\":3635:3653   */\n      add\n        /* \"#utility.yul\":3622:3654   */\n      calldataload\n        /* \"#utility.yul\":3681:3699   */\n      0xffffffffffffffff\n        /* \"#utility.yul\":3673:3679   */\n      dup2\n        /* \"#utility.yul\":3670:3700   */\n      gt\n        /* \"#utility.yul\":3667:3784   */\n      iszero\n      tag_154\n      jumpi\n        /* \"#utility.yul\":3703:3782   */\n      tag_155\n      tag_73\n      jump\t// in\n    tag_155:\n        /* \"#utility.yul\":3667:3784   */\n    tag_154:\n        /* \"#utility.yul\":3808:3871   */\n      tag_156\n        /* \"#utility.yul\":3863:3870   */\n      dup7\n        /* \"#utility.yul\":3854:3860   */\n      dup3\n        /* \"#utility.yul\":3843:3852   */\n      dup8\n        /* \"#utility.yul\":3839:3861   */\n      add\n        /* \"#utility.yul\":3808:3871   */\n      tag_86\n      jump\t// in\n    tag_156:\n        /* \"#utility.yul\":3798:3871   */\n      swap2\n      pop\n        /* \"#utility.yul\":3593:3881   */\n      pop\n        /* \"#utility.yul\":2909:3888   */\n      swap3\n      pop\n      swap3\n      pop\n      swap3\n      jump\t// out\n        /* \"#utility.yul\":3894:4548   */\n    tag_15:\n        /* \"#utility.yul\":3972:3978   */\n      0x00\n        /* \"#utility.yul\":3980:3986   */\n      dup1\n        /* \"#utility.yul\":4029:4031   */\n      0x40\n        /* \"#utility.yul\":4017:4026   */\n      dup4\n        /* \"#utility.yul\":4008:4015   */\n      dup6\n        /* \"#utility.yul\":4004:4027   */\n      sub\n        /* \"#utility.yul\":4000:4032   */\n      slt\n        /* \"#utility.yul\":3997:4116   */\n      iszero\n      tag_158\n      jumpi\n        /* \"#utility.yul\":4035:4114   */\n      tag_159\n      tag_72\n      jump\t// in\n    tag_159:\n        /* \"#utility.yul\":3997:4116   */\n    tag_158:\n        /* \"#utility.yul\":4155:4156   */\n      0x00\n        /* \"#utility.yul\":4180:4233   */\n      tag_160\n        /* \"#utility.yul\":4225:4232   */\n      dup6\n        /* \"#utility.yul\":4216:4222   */\n      dup3\n        /* \"#utility.yul\":4205:4214   */\n      dup7\n        /* \"#utility.yul\":4201:4223   */\n      add\n        /* \"#utility.yul\":4180:4233   */\n      tag_76\n      jump\t// in\n    tag_160:\n        /* \"#utility.yul\":4170:4233   */\n      swap3\n      pop\n        /* \"#utility.yul\":4126:4243   */\n      pop\n        /* \"#utility.yul\":4310:4312   */\n      0x20\n        /* \"#utility.yul\":4299:4308   */\n      dup4\n        /* \"#utility.yul\":4295:4313   */\n      add\n        /* \"#utility.yul\":4282:4314   */\n      calldataload\n        /* \"#utility.yul\":4341:4359   */\n      0xffffffffffffffff\n        /* \"#utility.yul\":4333:4339   */\n      dup2\n        /* \"#utility.yul\":4330:4360   */\n      gt\n        /* \"#utility.yul\":4327:4444   */\n      iszero\n      tag_161\n      jumpi\n        /* \"#utility.yul\":4363:4442   */\n      tag_162\n      tag_73\n      jump\t// in\n    tag_162:\n        /* \"#utility.yul\":4327:4444   */\n    tag_161:\n        /* \"#utility.yul\":4468:4531   */\n      tag_163\n        /* \"#utility.yul\":4523:4530   */\n      dup6\n        /* \"#utility.yul\":4514:4520   */\n      dup3\n        /* \"#utility.yul\":4503:4512   */\n      dup7\n        /* \"#utility.yul\":4499:4521   */\n      add\n        /* \"#utility.yul\":4468:4531   */\n      tag_86\n      jump\t// in\n    tag_163:\n        /* \"#utility.yul\":4458:4531   */\n      swap2\n      pop\n        /* \"#utility.yul\":4253:4541   */\n      pop\n        /* \"#utility.yul\":3894:4548   */\n      swap3\n      pop\n      swap3\n      swap1\n      pop\n      jump\t// out\n        /* \"#utility.yul\":4554:4680   */\n    tag_87:\n        /* \"#utility.yul\":4591:4598   */\n      0x00\n        /* \"#utility.yul\":4631:4673   */\n      0xffffffffffffffffffffffffffffffffffffffff\n        /* \"#utility.yul\":4624:4629   */\n      dup3\n        /* \"#utility.yul\":4620:4674   */\n      and\n        /* \"#utility.yul\":4609:4674   */\n      swap1\n      pop\n        /* \"#utility.yul\":4554:4680   */\n      swap2\n      swap1\n      pop\n      jump\t// out\n        /* \"#utility.yul\":4686:4782   */\n    tag_88:\n        /* \"#utility.yul\":4723:4730   */\n      0x00\n        /* \"#utility.yul\":4752:4776   */\n      tag_166\n        /* \"#utility.yul\":4770:4775   */\n      dup3\n        /* \"#utility.yul\":4752:4776   */\n      tag_87\n      jump\t// in\n    tag_166:\n        /* \"#utility.yul\":4741:4776   */\n      swap1\n      pop\n        /* \"#utility.yul\":4686:4782   */\n      swap2\n      swap1\n      pop\n      jump\t// out\n        /* \"#utility.yul\":4788:4910   */\n    tag_89:\n        /* \"#utility.yul\":4861:4885   */\n      tag_168\n        /* \"#utility.yul\":4879:4884   */\n      dup2\n        /* \"#utility.yul\":4861:4885   */\n      tag_88\n      jump\t// in\n    tag_168:\n        /* \"#utility.yul\":4854:4859   */\n      dup2\n        /* \"#utility.yul\":4851:4886   */\n      eq\n        /* \"#utility.yul\":4841:4904   */\n      tag_169\n      jumpi\n        /* \"#utility.yul\":4900:4901   */\n      0x00\n        /* \"#utility.yul\":4897:4898   */\n      dup1\n        /* \"#utility.yul\":4890:4902   */\n      revert\n        /* \"#utility.yul\":4841:4904   */\n    tag_169:\n        /* \"#utility.yul\":4788:4910   */\n      pop\n      jump\t// out\n        /* \"#utility.yul\":4916:5055   */\n    tag_90:\n        /* \"#utility.yul\":4962:4967   */\n      0x00\n        /* \"#utility.yul\":5000:5006   */\n      dup2\n        /* \"#utility.yul\":4987:5007   */\n      calldataload\n        /* \"#utility.yul\":4978:5007   */\n      swap1\n      pop\n        /* \"#utility.yul\":5016:5049   */\n      tag_171\n        /* \"#utility.yul\":5043:5048   */\n      dup2\n        /* \"#utility.yul\":5016:5049   */\n      tag_89\n      jump\t// in\n    tag_171:\n        /* \"#utility.yul\":4916:5055   */\n      swap3\n      swap2\n      pop\n      pop\n      jump\t// out\n        /* \"#utility.yul\":5061:5535   */\n    tag_19:\n        /* \"#utility.yul\":5129:5135   */\n      0x00\n        /* \"#utility.yul\":5137:5143   */\n      dup1\n        /* \"#utility.yul\":5186:5188   */\n      0x40\n        /* \"#utility.yul\":5174:5183   */\n      dup4\n        /* \"#utility.yul\":5165:5172   */\n      dup6\n        /* \"#utility.yul\":5161:5184   */\n      sub\n        /* \"#utility.yul\":5157:5189   */\n      slt\n        /* \"#utility.yul\":5154:5273   */\n      iszero\n      tag_173\n      jumpi\n        /* \"#utility.yul\":5192:5271   */\n      tag_174\n      tag_72\n      jump\t// in\n    tag_174:\n        /* \"#utility.yul\":5154:5273   */\n    tag_173:\n        /* \"#utility.yul\":5312:5313   */\n      0x00\n        /* \"#utility.yul\":5337:5390   */\n      tag_175\n        /* \"#utility.yul\":5382:5389   */\n      dup6\n        /* \"#utility.yul\":5373:5379   */\n      dup3\n        /* \"#utility.yul\":5362:5371   */\n      dup7\n        /* \"#utility.yul\":5358:5380   */\n      add\n        /* \"#utility.yul\":5337:5390   */\n      tag_90\n      jump\t// in\n    tag_175:\n        /* \"#utility.yul\":5327:5390   */\n      swap3\n      pop\n        /* \"#utility.yul\":5283:5400   */\n      pop\n        /* \"#utility.yul\":5439:5441   */\n      0x20\n        /* \"#utility.yul\":5465:5518   */\n      tag_176\n        /* \"#utility.yul\":5510:5517   */\n      dup6\n        /* \"#utility.yul\":5501:5507   */\n      dup3\n        /* \"#utility.yul\":5490:5499   */\n      dup7\n        /* \"#utility.yul\":5486:5508   */\n      add\n        /* \"#utility.yul\":5465:5518   */\n      tag_76\n      jump\t// in\n    tag_176:\n        /* \"#utility.yul\":5455:5518   */\n      swap2\n      pop\n        /* \"#utility.yul\":5410:5528   */\n      pop\n        /* \"#utility.yul\":5061:5535   */\n      swap3\n      pop\n      swap3\n      swap1\n      pop\n      jump\t// out\n        /* \"#utility.yul\":5541:5640   */\n    tag_91:\n        /* \"#utility.yul\":5593:5599   */\n      0x00\n        /* \"#utility.yul\":5627:5632   */\n      dup2\n        /* \"#utility.yul\":5621:5633   */\n      mload\n        /* \"#utility.yul\":5611:5633   */\n      swap1\n      pop\n        /* \"#utility.yul\":5541:5640   */\n      swap2\n      swap1\n      pop\n      jump\t// out\n        /* \"#utility.yul\":5646:5815   */\n    tag_92:\n        /* \"#utility.yul\":5730:5741   */\n      0x00\n        /* \"#utility.yul\":5764:5770   */\n      dup3\n        /* \"#utility.yul\":5759:5762   */\n      dup3\n        /* \"#utility.yul\":5752:5771   */\n      mstore\n        /* \"#utility.yul\":5804:5808   */\n      0x20\n        /* \"#utility.yul\":5799:5802   */\n      dup3\n        /* \"#utility.yul\":5795:5809   */\n      add\n        /* \"#utility.yul\":5780:5809   */\n      swap1\n      pop\n        /* \"#utility.yul\":5646:5815   */\n      swap3\n      swap2\n      pop\n      pop\n      jump\t// out\n        /* \"#utility.yul\":5821:6067   */\n    tag_93:\n        /* \"#utility.yul\":5902:5903   */\n      0x00\n        /* \"#utility.yul\":5912:6025   */\n    tag_180:\n        /* \"#utility.yul\":5926:5932   */\n      dup4\n        /* \"#utility.yul\":5923:5924   */\n      dup2\n        /* \"#utility.yul\":5920:5933   */\n      lt\n        /* \"#utility.yul\":5912:6025   */\n      iszero\n      tag_182\n      jumpi\n        /* \"#utility.yul\":6011:6012   */\n      dup1\n        /* \"#utility.yul\":6006:6009   */\n      dup3\n        /* \"#utility.yul\":6002:6013   */\n      add\n        /* \"#utility.yul\":5996:6014   */\n      mload\n        /* \"#utility.yul\":5992:5993   */\n      dup2\n        /* \"#utility.yul\":5987:5990   */\n      dup5\n        /* \"#utility.yul\":5983:5994   */\n      add\n        /* \"#utility.yul\":5976:6015   */\n      mstore\n        /* \"#utility.yul\":5948:5950   */\n      0x20\n        /* \"#utility.yul\":5945:5946   */\n      dup2\n        /* \"#utility.yul\":5941:5951   */\n      add\n        /* \"#utility.yul\":5936:5951   */\n      swap1\n      pop\n        /* \"#utility.yul\":5912:6025   */\n      jump(tag_180)\n    tag_182:\n        /* \"#utility.yul\":6059:6060   */\n      0x00\n        /* \"#utility.yul\":6050:6056   */\n      dup5\n        /* \"#utility.yul\":6045:6048   */\n      dup5\n        /* \"#utility.yul\":6041:6057   */\n      add\n        /* \"#utility.yul\":6034:6061   */\n      mstore\n        /* \"#utility.yul\":5883:6067   */\n      pop\n        /* \"#utility.yul\":5821:6067   */\n      pop\n      pop\n      pop\n      jump\t// out\n        /* \"#utility.yul\":6073:6450   */\n    tag_94:\n        /* \"#utility.yul\":6161:6164   */\n      0x00\n        /* \"#utility.yul\":6189:6228   */\n      tag_184\n        /* \"#utility.yul\":6222:6227   */\n      dup3\n        /* \"#utility.yul\":6189:6228   */\n      tag_91\n      jump\t// in\n    tag_184:\n        /* \"#utility.yul\":6244:6315   */\n      tag_185\n        /* \"#utility.yul\":6308:6314   */\n      dup2\n        /* \"#utility.yul\":6303:6306   */\n      dup6\n        /* \"#utility.yul\":6244:6315   */\n      tag_92\n      jump\t// in\n    tag_185:\n        /* \"#utility.yul\":6237:6315   */\n      swap4\n      pop\n        /* \"#utility.yul\":6324:6389   */\n      tag_186\n        /* \"#utility.yul\":6382:6388   */\n      dup2\n        /* \"#utility.yul\":6377:6380   */\n      dup6\n        /* \"#utility.yul\":6370:6374   */\n      0x20\n        /* \"#utility.yul\":6363:6368   */\n      dup7\n        /* \"#utility.yul\":6359:6375   */\n      add\n        /* \"#utility.yul\":6324:6389   */\n      tag_93\n      jump\t// in\n    tag_186:\n        /* \"#utility.yul\":6414:6443   */\n      tag_187\n        /* \"#utility.yul\":6436:6442   */\n      dup2\n        /* \"#utility.yul\":6414:6443   */\n      tag_79\n      jump\t// in\n    tag_187:\n        /* \"#utility.yul\":6409:6412   */\n      dup5\n        /* \"#utility.yul\":6405:6444   */\n      add\n        /* \"#utility.yul\":6398:6444   */\n      swap2\n      pop\n        /* \"#utility.yul\":6165:6450   */\n      pop\n        /* \"#utility.yul\":6073:6450   */\n      swap3\n      swap2\n      pop\n      pop\n      jump\t// out\n        /* \"#utility.yul\":6456:6970   */\n    tag_22:\n        /* \"#utility.yul\":6617:6621   */\n      0x00\n        /* \"#utility.yul\":6655:6657   */\n      0x40\n        /* \"#utility.yul\":6644:6653   */\n      dup3\n        /* \"#utility.yul\":6640:6658   */\n      add\n        /* \"#utility.yul\":6632:6658   */\n      swap1\n      pop\n        /* \"#utility.yul\":6704:6713   */\n      dup2\n        /* \"#utility.yul\":6698:6702   */\n      dup2\n        /* \"#utility.yul\":6694:6714   */\n      sub\n        /* \"#utility.yul\":6690:6691   */\n      0x00\n        /* \"#utility.yul\":6679:6688   */\n      dup4\n        /* \"#utility.yul\":6675:6692   */\n      add\n        /* \"#utility.yul\":6668:6715   */\n      mstore\n        /* \"#utility.yul\":6732:6810   */\n      tag_189\n        /* \"#utility.yul\":6805:6809   */\n      dup2\n        /* \"#utility.yul\":6796:6802   */\n      dup6\n        /* \"#utility.yul\":6732:6810   */\n      tag_94\n      jump\t// in\n    tag_189:\n        /* \"#utility.yul\":6724:6810   */\n      swap1\n      pop\n        /* \"#utility.yul\":6857:6866   */\n      dup2\n        /* \"#utility.yul\":6851:6855   */\n      dup2\n        /* \"#utility.yul\":6847:6867   */\n      sub\n        /* \"#utility.yul\":6842:6844   */\n      0x20\n        /* \"#utility.yul\":6831:6840   */\n      dup4\n        /* \"#utility.yul\":6827:6845   */\n      add\n        /* \"#utility.yul\":6820:6868   */\n      mstore\n        /* \"#utility.yul\":6885:6963   */\n      tag_190\n        /* \"#utility.yul\":6958:6962   */\n      dup2\n        /* \"#utility.yul\":6949:6955   */\n      dup5\n        /* \"#utility.yul\":6885:6963   */\n      tag_94\n      jump\t// in\n    tag_190:\n        /* \"#utility.yul\":6877:6963   */\n      swap1\n      pop\n        /* \"#utility.yul\":6456:6970   */\n      swap4\n      swap3\n      pop\n      pop\n      pop\n      jump\t// out\n        /* \"#utility.yul\":6976:7305   */\n    tag_25:\n        /* \"#utility.yul\":7035:7041   */\n      0x00\n        /* \"#utility.yul\":7084:7086   */\n      0x20\n        /* \"#utility.yul\":7072:7081   */\n      dup3\n        /* \"#utility.yul\":7063:7070   */\n      dup5\n        /* \"#utility.yul\":7059:7082   */\n      sub\n        /* \"#utility.yul\":7055:7087   */\n      slt\n        /* \"#utility.yul\":7052:7171   */\n      iszero\n      tag_192\n      jumpi\n        /* \"#utility.yul\":7090:7169   */\n      tag_193\n      tag_72\n      jump\t// in\n    tag_193:\n        /* \"#utility.yul\":7052:7171   */\n    tag_192:\n        /* \"#utility.yul\":7210:7211   */\n      0x00\n        /* \"#utility.yul\":7235:7288   */\n      tag_194\n        /* \"#utility.yul\":7280:7287   */\n      dup5\n        /* \"#utility.yul\":7271:7277   */\n      dup3\n        /* \"#utility.yul\":7260:7269   */\n      dup6\n        /* \"#utility.yul\":7256:7278   */\n      add\n        /* \"#utility.yul\":7235:7288   */\n      tag_76\n      jump\t// in\n    tag_194:\n        /* \"#utility.yul\":7225:7288   */\n      swap2\n      pop\n        /* \"#utility.yul\":7181:7298   */\n      pop\n        /* \"#utility.yul\":6976:7305   */\n      swap3\n      swap2\n      pop\n      pop\n      jump\t// out\n        /* \"#utility.yul\":7311:7624   */\n    tag_28:\n        /* \"#utility.yul\":7424:7428   */\n      0x00\n        /* \"#utility.yul\":7462:7464   */\n      0x20\n        /* \"#utility.yul\":7451:7460   */\n      dup3\n        /* \"#utility.yul\":7447:7465   */\n      add\n        /* \"#utility.yul\":7439:7465   */\n      swap1\n      pop\n        /* \"#utility.yul\":7511:7520   */\n      dup2\n        /* \"#utility.yul\":7505:7509   */\n      dup2\n        /* \"#utility.yul\":7501:7521   */\n      sub\n        /* \"#utility.yul\":7497:7498   */\n      0x00\n        /* \"#utility.yul\":7486:7495   */\n      dup4\n        /* \"#utility.yul\":7482:7499   */\n      add\n        /* \"#utility.yul\":7475:7522   */\n      mstore\n        /* \"#utility.yul\":7539:7617   */\n      tag_196\n        /* \"#utility.yul\":7612:7616   */\n      dup2\n        /* \"#utility.yul\":7603:7609   */\n      dup5\n        /* \"#utility.yul\":7539:7617   */\n      tag_94\n      jump\t// in\n    tag_196:\n        /* \"#utility.yul\":7531:7617   */\n      swap1\n      pop\n        /* \"#utility.yul\":7311:7624   */\n      swap3\n      swap2\n      pop\n      pop\n      jump\t// out\n        /* \"#utility.yul\":7630:7810   */\n    tag_95:\n        /* \"#utility.yul\":7678:7755   */\n      0x4e487b7100000000000000000000000000000000000000000000000000000000\n        /* \"#utility.yul\":7675:7676   */\n      0x00\n        /* \"#utility.yul\":7668:7756   */\n      mstore\n        /* \"#utility.yul\":7775:7779   */\n      0x22\n        /* \"#utility.yul\":7772:7773   */\n      0x04\n        /* \"#utility.yul\":7765:7780   */\n      mstore\n        /* \"#utility.yul\":7799:7803   */\n      0x24\n        /* \"#utility.yul\":7796:7797   */\n      0x00\n        /* \"#utility.yul\":7789:7804   */\n      revert\n        /* \"#utility.yul\":7816:8136   */\n    tag_43:\n        /* \"#utility.yul\":7860:7866   */\n      0x00\n        /* \"#utility.yul\":7897:7898   */\n      0x02\n        /* \"#utility.yul\":7891:7895   */\n      dup3\n        /* \"#utility.yul\":7887:7899   */\n      div\n        /* \"#utility.yul\":7877:7899   */\n      swap1\n      pop\n        /* \"#utility.yul\":7944:7945   */\n      0x01\n        /* \"#utility.yul\":7938:7942   */\n      dup3\n        /* \"#utility.yul\":7934:7946   */\n      and\n        /* \"#utility.yul\":7965:7983   */\n      dup1\n        /* \"#utility.yul\":7955:8036   */\n      tag_199\n      jumpi\n        /* \"#utility.yul\":8021:8025   */\n      0x7f\n        /* \"#utility.yul\":8013:8019   */\n      dup3\n        /* \"#utility.yul\":8009:8026   */\n      and\n        /* \"#utility.yul\":7999:8026   */\n      swap2\n      pop\n        /* \"#utility.yul\":7955:8036   */\n    tag_199:\n        /* \"#utility.yul\":8083:8085   */\n      0x20\n        /* \"#utility.yul\":8075:8081   */\n      dup3\n        /* \"#utility.yul\":8072:8086   */\n      lt\n        /* \"#utility.yul\":8052:8070   */\n      dup2\n        /* \"#utility.yul\":8049:8087   */\n      sub\n        /* \"#utility.yul\":8046:8130   */\n      tag_200\n      jumpi\n        /* \"#utility.yul\":8102:8120   */\n      tag_201\n      tag_95\n      jump\t// in\n    tag_201:\n        /* \"#utility.yul\":8046:8130   */\n    tag_200:\n        /* \"#utility.yul\":7867:8136   */\n      pop\n        /* \"#utility.yul\":7816:8136   */\n      swap2\n      swap1\n      pop\n      jump\t// out\n        /* \"#utility.yul\":8142:8283   */\n    tag_96:\n        /* \"#utility.yul\":8191:8195   */\n      0x00\n        /* \"#utility.yul\":8214:8217   */\n      dup2\n        /* \"#utility.yul\":8206:8217   */\n      swap1\n      pop\n        /* \"#utility.yul\":8237:8240   */\n      dup2\n        /* \"#utility.yul\":8234:8235   */\n      0x00\n        /* \"#utility.yul\":8227:8241   */\n      mstore\n        /* \"#utility.yul\":8271:8275   */\n      0x20\n        /* \"#utility.yul\":8268:8269   */\n      0x00\n        /* \"#utility.yul\":8258:8276   */\n      keccak256\n        /* \"#utility.yul\":8250:8276   */\n      swap1\n      pop\n        /* \"#utility.yul\":8142:8283   */\n      swap2\n      swap1\n      pop\n      jump\t// out\n        /* \"#utility.yul\":8289:8382   */\n    tag_97:\n        /* \"#utility.yul\":8326:8332   */\n      0x00\n        /* \"#utility.yul\":8373:8375   */\n      0x20\n        /* \"#utility.yul\":8368:8370   */\n      0x1f\n        /* \"#utility.yul\":8361:8366   */\n      dup4\n        /* \"#utility.yul\":8357:8371   */\n      add\n        /* \"#utility.yul\":8353:8376   */\n      div\n        /* \"#utility.yul\":8343:8376   */\n      swap1\n      pop\n        /* \"#utility.yul\":8289:8382   */\n      swap2\n      swap1\n      pop\n      jump\t// out\n        /* \"#utility.yul\":8388:8495   */\n    tag_98:\n        /* \"#utility.yul\":8432:8440   */\n      0x00\n        /* \"#utility.yul\":8482:8487   */\n      dup3\n        /* \"#utility.yul\":8476:8480   */\n      dup3\n        /* \"#utility.yul\":8472:8488   */\n      shl\n        /* \"#utility.yul\":8451:8488   */\n      swap1\n      pop\n        /* \"#utility.yul\":8388:8495   */\n      swap3\n      swap2\n      pop\n      pop\n      jump\t// out\n        /* \"#utility.yul\":8501:8894   */\n    tag_99:\n        /* \"#utility.yul\":8570:8576   */\n      0x00\n        /* \"#utility.yul\":8620:8621   */\n      0x08\n        /* \"#utility.yul\":8608:8618   */\n      dup4\n        /* \"#utility.yul\":8604:8622   */\n      mul\n        /* \"#utility.yul\":8643:8740   */\n      tag_206\n        /* \"#utility.yul\":8673:8739   */\n      0xffffffffffffffffffffffffffffffffffffffffffffffffffffffffffffffff\n        /* \"#utility.yul\":8662:8671   */\n      dup3\n        /* \"#utility.yul\":8643:8740   */\n      tag_98\n      jump\t// in\n    tag_206:\n        /* \"#utility.yul\":8761:8800   */\n      tag_207\n        /* \"#utility.yul\":8791:8799   */\n      dup7\n        /* \"#utility.yul\":8780:8789   */\n      dup4\n        /* \"#utility.yul\":8761:8800   */\n      tag_98\n      jump\t// in\n    tag_207:\n        /* \"#utility.yul\":8749:8800   */\n      swap6\n      pop\n        /* \"#utility.yul\":8833:8837   */\n      dup1\n        /* \"#utility.yul\":8829:8838   */\n      not\n        /* \"#utility.yul\":8822:8827   */\n      dup5\n        /* \"#utility.yul\":8818:8839   */\n      and\n        /* \"#utility.yul\":8809:8839   */\n      swap4\n      pop\n        /* \"#utility.yul\":8882:8886   */\n      dup1\n        /* \"#utility.yul\":8872:8880   */\n      dup7\n        /* \"#utility.yul\":8868:8887   */\n      and\n        /* \"#utility.yul\":8861:8866   */\n      dup5\n        /* \"#utility.yul\":8858:8888   */\n      or\n        /* \"#utility.yul\":8848:8888   */\n      swap3\n      pop\n        /* \"#utility.yul\":8577:8894   */\n      pop\n      pop\n        /* \"#utility.yul\":8501:8894   */\n      swap4\n      swap3\n      pop\n      pop\n      pop\n      jump\t// out\n        /* \"#utility.yul\":8900:8960   */\n    tag_100:\n        /* \"#utility.yul\":8928:8931   */\n      0x00\n        /* \"#utility.yul\":8949:8954   */\n      dup2\n        /* \"#utility.yul\":8942:8954   */\n      swap1\n      pop\n        /* \"#utility.yul\":8900:8960   */\n      swap2\n      swap1\n      pop\n      jump\t// out\n        /* \"#utility.yul\":8966:9108   */\n    tag_101:\n        /* \"#utility.yul\":9016:9025   */\n      0x00\n        /* \"#utility.yul\":9049:9102   */\n      tag_210\n        /* \"#utility.yul\":9067:9101   */\n      tag_211\n        /* \"#utility.yul\":9076:9100   */\n      tag_212\n        /* \"#utility.yul\":9094:9099   */\n      dup5\n        /* \"#utility.yul\":9076:9100   */\n      tag_74\n      jump\t// in\n    tag_212:\n        /* \"#utility.yul\":9067:9101   */\n      tag_100\n      jump\t// in\n    tag_211:\n        /* \"#utility.yul\":9049:9102   */\n      tag_74\n      jump\t// in\n    tag_210:\n        /* \"#utility.yul\":9036:9102   */\n      swap1\n      pop\n        /* \"#utility.yul\":8966:9108   */\n      swap2\n      swap1\n      pop\n      jump\t// out\n        /* \"#utility.yul\":9114:9189   */\n    tag_102:\n        /* \"#utility.yul\":9157:9160   */\n      0x00\n        /* \"#utility.yul\":9178:9183   */\n      dup2\n        /* \"#utility.yul\":9171:9183   */\n      swap1\n      pop\n        /* \"#utility.yul\":9114:9189   */\n      swap2\n      swap1\n      pop\n      jump\t// out\n        /* \"#utility.yul\":9195:9464   */\n    tag_103:\n        /* \"#utility.yul\":9305:9344   */\n      tag_215\n        /* \"#utility.yul\":9336:9343   */\n      dup4\n        /* \"#utility.yul\":9305:9344   */\n      tag_101\n      jump\t// in\n    tag_215:\n        /* \"#utility.yul\":9366:9457   */\n      tag_216\n        /* \"#utility.yul\":9415:9456   */\n      tag_217\n        /* \"#utility.yul\":9439:9455   */\n      dup3\n        /* \"#utility.yul\":9415:9456   */\n      tag_102\n      jump\t// in\n    tag_217:\n        /* \"#utility.yul\":9407:9413   */\n      dup5\n        /* \"#utility.yul\":9400:9404   */\n      dup5\n        /* \"#utility.yul\":9394:9405   */\n      sload\n        /* \"#utility.yul\":9366:9457   */\n      tag_99\n      jump\t// in\n    tag_216:\n        /* \"#utility.yul\":9360:9364   */\n      dup3\n        /* \"#utility.yul\":9353:9458   */\n      sstore\n        /* \"#utility.yul\":9271:9464   */\n      pop\n        /* \"#utility.yul\":9195:9464   */\n      pop\n      pop\n      pop\n      jump\t// out\n        /* \"#utility.yul\":9470:9543   */\n    tag_104:\n        /* \"#utility.yul\":9515:9518   */\n      0x00\n        /* \"#utility.yul\":9470:9543   */\n      swap1\n      jump\t// out\n        /* \"#utility.yul\":9549:9738   */\n    tag_105:\n        /* \"#utility.yul\":9626:9658   */\n      tag_220\n      tag_104\n      jump\t// in\n    tag_220:\n        /* \"#utility.yul\":9667:9732   */\n      tag_221\n        /* \"#utility.yul\":9725:9731   */\n      dup2\n        /* \"#utility.yul\":9717:9723   */\n      dup5\n        /* \"#utility.yul\":9711:9715   */\n      dup5\n        /* \"#utility.yul\":9667:9732   */\n      tag_103\n      jump\t// in\n    tag_221:\n        /* \"#utility.yul\":9602:9738   */\n      pop\n        /* \"#utility.yul\":9549:9738   */\n      pop\n      pop\n      jump\t// out\n        /* \"#utility.yul\":9744:9930   */\n    tag_106:\n        /* \"#utility.yul\":9804:9924   */\n    tag_223:\n        /* \"#utility.yul\":9821:9824   */\n      dup2\n        /* \"#utility.yul\":9814:9819   */\n      dup2\n        /* \"#utility.yul\":9811:9825   */\n      lt\n        /* \"#utility.yul\":9804:9924   */\n      iszero\n      tag_225\n      jumpi\n        /* \"#utility.yul\":9875:9914   */\n      tag_226\n        /* \"#utility.yul\":9912:9913   */\n      0x00\n        /* \"#utility.yul\":9905:9910   */\n      dup3\n        /* \"#utility.yul\":9875:9914   */\n      tag_105\n      jump\t// in\n    tag_226:\n        /* \"#utility.yul\":9848:9849   */\n      0x01\n        /* \"#utility.yul\":9841:9846   */\n      dup2\n        /* \"#utility.yul\":9837:9850   */\n      add\n        /* \"#utility.yul\":9828:9850   */\n      swap1\n      pop\n        /* \"#utility.yul\":9804:9924   */\n      jump(tag_223)\n    tag_225:\n        /* \"#utility.yul\":9744:9930   */\n      pop\n      pop\n      jump\t// out\n        /* \"#utility.yul\":9936:10479   */\n    tag_107:\n        /* \"#utility.yul\":10037:10039   */\n      0x1f\n        /* \"#utility.yul\":10032:10035   */\n      dup3\n        /* \"#utility.yul\":10029:10040   */\n      gt\n        /* \"#utility.yul\":10026:10472   */\n      iszero\n      tag_228\n      jumpi\n        /* \"#utility.yul\":10071:10109   */\n      tag_229\n        /* \"#utility.yul\":10103:10108   */\n      dup2\n        /* \"#utility.yul\":10071:10109   */\n      tag_96\n      jump\t// in\n    tag_229:\n        /* \"#utility.yul\":10155:10184   */\n      tag_230\n        /* \"#utility.yul\":10173:10183   */\n      dup5\n        /* \"#utility.yul\":10155:10184   */\n      tag_97\n      jump\t// in\n    tag_230:\n        /* \"#utility.yul\":10145:10153   */\n      dup2\n        /* \"#utility.yul\":10141:10185   */\n      add\n        /* \"#utility.yul\":10338:10340   */\n      0x20\n        /* \"#utility.yul\":10326:10336   */\n      dup6\n        /* \"#utility.yul\":10323:10341   */\n      lt\n        /* \"#utility.yul\":10320:10369   */\n      iszero\n      tag_231\n      jumpi\n        /* \"#utility.yul\":10359:10367   */\n      dup2\n        /* \"#utility.yul\":10344:10367   */\n      swap1\n      pop\n        /* \"#utility.yul\":10320:10369   */\n    tag_231:\n        /* \"#utility.yul\":10382:10462   */\n      tag_232\n        /* \"#utility.yul\":10438:10460   */\n      tag_233\n        /* \"#utility.yul\":10456:10459   */\n      dup6\n        /* \"#utility.yul\":10438:10460   */\n      tag_97\n      jump\t// in\n    tag_233:\n        /* \"#utility.yul\":10428:10436   */\n      dup4\n        /* \"#utility.yul\":10424:10461   */\n      add\n        /* \"#utility.yul\":10411:10422   */\n      dup3\n        /* \"#utility.yul\":10382:10462   */\n      tag_106\n      jump\t// in\n    tag_232:\n        /* \"#utility.yul\":10041:10472   */\n      pop\n      pop\n        /* \"#utility.yul\":10026:10472   */\n    tag_228:\n        /* \"#utility.yul\":9936:10479   */\n      pop\n      pop\n      pop\n      jump\t// out\n        /* \"#utility.yul\":10485:10602   */\n    tag_108:\n        /* \"#utility.yul\":10539:10547   */\n      0x00\n        /* \"#utility.yul\":10589:10594   */\n      dup3\n        /* \"#utility.yul\":10583:10587   */\n      dup3\n        /* \"#utility.yul\":10579:10595   */\n      shr\n        /* \"#utility.yul\":10558:10595   */\n      swap1\n      pop\n        /* \"#utility.yul\":10485:10602   */\n      swap3\n      swap2\n      pop\n      pop\n      jump\t// out\n        /* \"#utility.yul\":10608:10777   */\n    tag_109:\n        /* \"#utility.yul\":10652:10658   */\n      0x00\n        /* \"#utility.yul\":10685:10736   */\n      tag_236\n        /* \"#utility.yul\":10733:10734   */\n      0x00\n        /* \"#utility.yul\":10729:10735   */\n      not\n        /* \"#utility.yul\":10721:10726   */\n      dup5\n        /* \"#utility.yul\":10718:10719   */\n      0x08\n        /* \"#utility.yul\":10714:10727   */\n      mul\n        /* \"#utility.yul\":10685:10736   */\n      tag_108\n      jump\t// in\n    tag_236:\n        /* \"#utility.yul\":10681:10737   */\n      not\n        /* \"#utility.yul\":10766:10770   */\n      dup1\n        /* \"#utility.yul\":10760:10764   */\n      dup4\n        /* \"#utility.yul\":10756:10771   */\n      and\n        /* \"#utility.yul\":10746:10771   */\n      swap2\n      pop\n        /* \"#utility.yul\":10659:10777   */\n      pop\n        /* \"#utility.yul\":10608:10777   */\n      swap3\n      swap2\n      pop\n      pop\n      jump\t// out\n        /* \"#utility.yul\":10782:11077   */\n    tag_110:\n        /* \"#utility.yul\":10858:10862   */\n      0x00\n        /* \"#utility.yul\":11004:11033   */\n      tag_238\n        /* \"#utility.yul\":11029:11032   */\n      dup4\n        /* \"#utility.yul\":11023:11027   */\n      dup4\n        /* \"#utility.yul\":11004:11033   */\n      tag_109\n      jump\t// in\n    tag_238:\n        /* \"#utility.yul\":10996:11033   */\n      swap2\n      pop\n        /* \"#utility.yul\":11066:11069   */\n      dup3\n        /* \"#utility.yul\":11063:11064   */\n      0x02\n        /* \"#utility.yul\":11059:11070   */\n      mul\n        /* \"#utility.yul\":11053:11057   */\n      dup3\n        /* \"#utility.yul\":11050:11071   */\n      or\n        /* \"#utility.yul\":11042:11071   */\n      swap1\n      pop\n        /* \"#utility.yul\":10782:11077   */\n      swap3\n      swap2\n      pop\n      pop\n      jump\t// out\n        /* \"#utility.yul\":11082:12477   */\n    tag_38:\n        /* \"#utility.yul\":11199:11236   */\n      tag_240\n        /* \"#utility.yul\":11232:11235   */\n      dup3\n        /* \"#utility.yul\":11199:11236   */\n      tag_91\n      jump\t// in\n    tag_240:\n        /* \"#utility.yul\":11301:11319   */\n      0xffffffffffffffff\n        /* \"#utility.yul\":11293:11299   */\n      dup2\n        /* \"#utility.yul\":11290:11320   */\n      gt\n        /* \"#utility.yul\":11287:11343   */\n      iszero\n      tag_241\n      jumpi\n        /* \"#utility.yul\":11323:11341   */\n      tag_242\n      tag_80\n      jump\t// in\n    tag_242:\n        /* \"#utility.yul\":11287:11343   */\n    tag_241:\n        /* \"#utility.yul\":11367:11405   */\n      tag_243\n        /* \"#utility.yul\":11399:11403   */\n      dup3\n        /* \"#utility.yul\":11393:11404   */\n      sload\n        /* \"#utility.yul\":11367:11405   */\n      tag_43\n      jump\t// in\n    tag_243:\n        /* \"#utility.yul\":11452:11519   */\n      tag_244\n        /* \"#utility.yul\":11512:11518   */\n      dup3\n        /* \"#utility.yul\":11504:11510   */\n      dup3\n        /* \"#utility.yul\":11498:11502   */\n      dup6\n        /* \"#utility.yul\":11452:11519   */\n      tag_107\n      jump\t// in\n    tag_244:\n        /* \"#utility.yul\":11546:11547   */\n      0x00\n        /* \"#utility.yul\":11570:11574   */\n      0x20\n        /* \"#utility.yul\":11557:11574   */\n      swap1\n      pop\n        /* \"#utility.yul\":11602:11604   */\n      0x1f\n        /* \"#utility.yul\":11594:11600   */\n      dup4\n        /* \"#utility.yul\":11591:11605   */\n      gt\n        /* \"#utility.yul\":11619:11620   */\n      0x01\n        /* \"#utility.yul\":11614:12232   */\n      dup2\n      eq\n      tag_246\n      jumpi\n        /* \"#utility.yul\":12276:12277   */\n      0x00\n        /* \"#utility.yul\":12293:12299   */\n      dup5\n        /* \"#utility.yul\":12290:12367   */\n      iszero\n      tag_247\n      jumpi\n        /* \"#utility.yul\":12342:12351   */\n      dup3\n        /* \"#utility.yul\":12337:12340   */\n      dup8\n        /* \"#utility.yul\":12333:12352   */\n      add\n        /* \"#utility.yul\":12327:12353   */\n      mload\n        /* \"#utility.yul\":12318:12353   */\n      swap1\n      pop\n        /* \"#utility.yul\":12290:12367   */\n    tag_247:\n        /* \"#utility.yul\":12393:12460   */\n      tag_248\n        /* \"#utility.yul\":12453:12459   */\n      dup6\n        /* \"#utility.yul\":12446:12451   */\n      dup3\n        /* \"#utility.yul\":12393:12460   */\n      tag_110\n      jump\t// in\n    tag_248:\n        /* \"#utility.yul\":12387:12391   */\n      dup7\n        /* \"#utility.yul\":12380:12461   */\n      sstore\n        /* \"#utility.yul\":12249:12471   */\n      pop\n        /* \"#utility.yul\":11584:12471   */\n      jump(tag_245)\n        /* \"#utility.yul\":11614:12232   */\n    tag_246:\n        /* \"#utility.yul\":11666:11670   */\n      0x1f\n        /* \"#utility.yul\":11662:11671   */\n      not\n        /* \"#utility.yul\":11654:11660   */\n      dup5\n        /* \"#utility.yul\":11650:11672   */\n      and\n        /* \"#utility.yul\":11700:11737   */\n      tag_249\n        /* \"#utility.yul\":11732:11736   */\n      dup7\n        /* \"#utility.yul\":11700:11737   */\n      tag_96\n      jump\t// in\n    tag_249:\n        /* \"#utility.yul\":11759:11760   */\n      0x00\n        /* \"#utility.yul\":11773:11981   */\n    tag_250:\n        /* \"#utility.yul\":11787:11794   */\n      dup3\n        /* \"#utility.yul\":11784:11785   */\n      dup2\n        /* \"#utility.yul\":11781:11795   */\n      lt\n        /* \"#utility.yul\":11773:11981   */\n      iszero\n      tag_252\n      jumpi\n        /* \"#utility.yul\":11866:11875   */\n      dup5\n        /* \"#utility.yul\":11861:11864   */\n      dup10\n        /* \"#utility.yul\":11857:11876   */\n      add\n        /* \"#utility.yul\":11851:11877   */\n      mload\n        /* \"#utility.yul\":11843:11849   */\n      dup3\n        /* \"#utility.yul\":11836:11878   */\n      sstore\n        /* \"#utility.yul\":11917:11918   */\n      0x01\n        /* \"#utility.yul\":11909:11915   */\n      dup3\n        /* \"#utility.yul\":11905:11919   */\n      add\n        /* \"#utility.yul\":11895:11919   */\n      swap2\n      pop\n        /* \"#utility.yul\":11964:11966   */\n      0x20\n        /* \"#utility.yul\":11953:11962   */\n      dup6\n        /* \"#utility.yul\":11949:11967   */\n      add\n        /* \"#utility.yul\":11936:11967   */\n      swap5\n      pop\n        /* \"#utility.yul\":11810:11814   */\n      0x20\n        /* \"#utility.yul\":11807:11808   */\n      dup2\n        /* \"#utility.yul\":11803:11815   */\n      add\n        /* \"#utility.yul\":11798:11815   */\n      swap1\n      pop\n        /* \"#utility.yul\":11773:11981   */\n      jump(tag_250)\n    tag_252:\n        /* \"#utility.yul\":12009:12015   */\n      dup7\n        /* \"#utility.yul\":12000:12007   */\n      dup4\n        /* \"#utility.yul\":11997:12016   */\n      lt\n        /* \"#utility.yul\":11994:12173   */\n      iszero\n      tag_253\n      jumpi\n        /* \"#utility.yul\":12067:12076   */\n      dup5\n        /* \"#utility.yul\":12062:12065   */\n      dup10\n        /* \"#utility.yul\":12058:12077   */\n      add\n        /* \"#utility.yul\":12052:12078   */\n      mload\n        /* \"#utility.yul\":12110:12158   */\n      tag_254\n        /* \"#utility.yul\":12152:12156   */\n      0x1f\n        /* \"#utility.yul\":12144:12150   */\n      dup10\n        /* \"#utility.yul\":12140:12157   */\n      and\n        /* \"#utility.yul\":12129:12138   */\n      dup3\n        /* \"#utility.yul\":12110:12158   */\n      tag_109\n      jump\t// in\n    tag_254:\n        /* \"#utility.yul\":12102:12108   */\n      dup4\n        /* \"#utility.yul\":12095:12159   */\n      sstore\n        /* \"#utility.yul\":12017:12173   */\n      pop\n        /* \"#utility.yul\":11994:12173   */\n    tag_253:\n        /* \"#utility.yul\":12219:12220   */\n      0x01\n        /* \"#utility.yul\":12215:12216   */\n      0x02\n        /* \"#utility.yul\":12207:12213   */\n      dup9\n        /* \"#utility.yul\":12203:12217   */\n      mul\n        /* \"#utility.yul\":12199:12221   */\n      add\n        /* \"#utility.yul\":12193:12197   */\n      dup9\n        /* \"#utility.yul\":12186:12222   */\n      sstore\n        /* \"#utility.yul\":11621:12232   */\n      pop\n      pop\n      pop\n        /* \"#utility.yul\":11584:12471   */\n    tag_245:\n      pop\n        /* \"#utility.yul\":11174:12477   */\n      pop\n      pop\n      pop\n        /* \"#utility.yul\":11082:12477   */\n      pop\n      pop\n      jump\t// out\n\n    auxdata: 0xa264697066735822122018d6645c041bf903d21b1a2a89c18aae4a9d2d22bd7ca79293aa52dda11ba39b64736f6c63430008120033\n}\n",
				"bytecode": {
					"linkReferences": {},
					"object": "60806040523480156200001157600080fd5b506040518060400160405280600381526020017f52656400000000000000000000000000000000000000000000000000000000008152506000806001815260200190815260200160002090816200006991906200039a565b506040518060400160405280600481526020017f426c756500000000000000000000000000000000000000000000000000000000815250600080600281526020019081526020016000209081620000c191906200039a565b506040518060400160405280600581526020017f477265656e0000000000000000000000000000000000000000000000000000008152506000806003815260200190815260200160002090816200011991906200039a565b5062000481565b600081519050919050565b7f4e487b7100000000000000000000000000000000000000000000000000000000600052604160045260246000fd5b7f4e487b7100000000000000000000000000000000000000000000000000000000600052602260045260246000fd5b60006002820490506001821680620001a257607f821691505b602082108103620001b857620001b76200015a565b5b50919050565b60008190508160005260206000209050919050565b60006020601f8301049050919050565b600082821b905092915050565b600060088302620002227fffffffffffffffffffffffffffffffffffffffffffffffffffffffffffffffff82620001e3565b6200022e8683620001e3565b95508019841693508086168417925050509392505050565b6000819050919050565b6000819050919050565b60006200027b620002756200026f8462000246565b62000250565b62000246565b9050919050565b6000819050919050565b62000297836200025a565b620002af620002a68262000282565b848454620001f0565b825550505050565b600090565b620002c6620002b7565b620002d38184846200028c565b505050565b5b81811015620002fb57620002ef600082620002bc565b600181019050620002d9565b5050565b601f8211156200034a576200031481620001be565b6200031f84620001d3565b810160208510156200032f578190505b620003476200033e85620001d3565b830182620002d8565b50505b505050565b600082821c905092915050565b60006200036f600019846008026200034f565b1980831691505092915050565b60006200038a83836200035c565b9150826002028217905092915050565b620003a58262000120565b67ffffffffffffffff811115620003c157620003c06200012b565b5b620003cd825462000189565b620003da828285620002ff565b600060209050601f831160018114620004125760008415620003fd578287015190505b6200040985826200037c565b86555062000479565b601f1984166200042286620001be565b60005b828110156200044c5784890151825560018201915060208501945060208101905062000425565b868310156200046c578489015162000468601f8916826200035c565b8355505b6001600288020188555050505b505050505050565b610ca980620004916000396000f3fe608060405234801561001057600080fd5b50600436106100625760003560e01c80631c0a16671461006757806366815166146100835780636a6d62701461009f578063bd11f69d146100d0578063eb3aa83414610100578063f7746e361461011c575b600080fd5b610081600480360381019061007c919061070b565b61014d565b005b61009d60048036038101906100989190610796565b6101a9565b005b6100b960048036038101906100b49190610850565b6101cd565b6040516100c792919061090f565b60405180910390f35b6100ea60048036038101906100e59190610946565b61030e565b6040516100f79190610973565b60405180910390f35b61011a6004803603810190610115919061070b565b6103ae565b005b61013660048036038101906101319190610946565b610447565b60405161014492919061090f565b60405180910390f35b60405180604001604052808381526020018281525060016000858152602001908152602001600020600082015181600001908161018a9190610ba1565b5060208201518160010190816101a09190610ba1565b50905050505050565b8060008084815260200190815260200160002090816101c89190610ba1565b505050565b6002602052816000526040600020602052806000526040600020600091509150508060000180546101fd906109c4565b80601f0160208091040260200160405190810160405280929190818152602001828054610229906109c4565b80156102765780601f1061024b57610100808354040283529160200191610276565b820191906000526020600020905b81548152906001019060200180831161025957829003601f168201915b50505050509080600101805461028b906109c4565b80601f01602080910402602001604051908101604052809291908181526020018280546102b7906109c4565b80156103045780601f106102d957610100808354040283529160200191610304565b820191906000526020600020905b8154815290600101906020018083116102e757829003601f168201915b5050505050905082565b6000602052806000526040600020600091509050805461032d906109c4565b80601f0160208091040260200160405190810160405280929190818152602001828054610359906109c4565b80156103a65780601f1061037b576101008083540402835291602001916103a6565b820191906000526020600020905b81548152906001019060200180831161038957829003601f168201915b505050505081565b604051806040016040528083815260200182815250600260003373ffffffffffffffffffffffffffffffffffffffff1673ffffffffffffffffffffffffffffffffffffffff168152602001908152602001600020600085815260200190815260200160002060008201518160000190816104289190610ba1565b50602082015181600101908161043e9190610ba1565b50905050505050565b600160205280600052604060002060009150905080600001805461046a906109c4565b80601f0160208091040260200160405190810160405280929190818152602001828054610496906109c4565b80156104e35780601f106104b8576101008083540402835291602001916104e3565b820191906000526020600020905b8154815290600101906020018083116104c657829003601f168201915b5050505050908060010180546104f8906109c4565b80601f0160208091040260200160405190810160405280929190818152602001828054610524906109c4565b80156105715780601f1061054657610100808354040283529160200191610571565b820191906000526020600020905b81548152906001019060200180831161055457829003601f168201915b5050505050905082565b6000604051905090565b600080fd5b600080fd5b6000819050919050565b6105a28161058f565b81146105ad57600080fd5b50565b6000813590506105bf81610599565b92915050565b600080fd5b600080fd5b6000601f19601f8301169050919050565b7f4e487b7100000000000000000000000000000000000000000000000000000000600052604160045260246000fd5b610618826105cf565b810181811067ffffffffffffffff82111715610637576106366105e0565b5b80604052505050565b600061064a61057b565b9050610656828261060f565b919050565b600067ffffffffffffffff821115610676576106756105e0565b5b61067f826105cf565b9050602081019050919050565b82818337600083830152505050565b60006106ae6106a98461065b565b610640565b9050828152602081018484840111156106ca576106c96105ca565b5b6106d584828561068c565b509392505050565b600082601f8301126106f2576106f16105c5565b5b813561070284826020860161069b565b91505092915050565b60008060006060848603121561072457610723610585565b5b6000610732868287016105b0565b935050602084013567ffffffffffffffff8111156107535761075261058a565b5b61075f868287016106dd565b925050604084013567ffffffffffffffff8111156107805761077f61058a565b5b61078c868287016106dd565b9150509250925092565b600080604083850312156107ad576107ac610585565b5b60006107bb858286016105b0565b925050602083013567ffffffffffffffff8111156107dc576107db61058a565b5b6107e8858286016106dd565b9150509250929050565b600073ffffffffffffffffffffffffffffffffffffffff82169050919050565b600061081d826107f2565b9050919050565b61082d81610812565b811461083857600080fd5b50565b60008135905061084a81610824565b92915050565b6000806040838503121561086757610866610585565b5b60006108758582860161083b565b9250506020610886858286016105b0565b9150509250929050565b600081519050919050565b600082825260208201905092915050565b60005b838110156108ca5780820151818401526020810190506108af565b60008484015250505050565b60006108e182610890565b6108eb818561089b565b93506108fb8185602086016108ac565b610904816105cf565b840191505092915050565b6000604082019050818103600083015261092981856108d6565b9050818103602083015261093d81846108d6565b90509392505050565b60006020828403121561095c5761095b610585565b5b600061096a848285016105b0565b91505092915050565b6000602082019050818103600083015261098d81846108d6565b905092915050565b7f4e487b7100000000000000000000000000000000000000000000000000000000600052602260045260246000fd5b600060028204905060018216806109dc57607f821691505b6020821081036109ef576109ee610995565b5b50919050565b60008190508160005260206000209050919050565b60006020601f8301049050919050565b600082821b905092915050565b600060088302610a577fffffffffffffffffffffffffffffffffffffffffffffffffffffffffffffffff82610a1a565b610a618683610a1a565b95508019841693508086168417925050509392505050565b6000819050919050565b6000610a9e610a99610a948461058f565b610a79565b61058f565b9050919050565b6000819050919050565b610ab883610a83565b610acc610ac482610aa5565b848454610a27565b825550505050565b600090565b610ae1610ad4565b610aec818484610aaf565b505050565b5b81811015610b1057610b05600082610ad9565b600181019050610af2565b5050565b601f821115610b5557610b26816109f5565b610b2f84610a0a565b81016020851015610b3e578190505b610b52610b4a85610a0a565b830182610af1565b50505b505050565b600082821c905092915050565b6000610b7860001984600802610b5a565b1980831691505092915050565b6000610b918383610b67565b9150826002028217905092915050565b610baa82610890565b67ffffffffffffffff811115610bc357610bc26105e0565b5b610bcd82546109c4565b610bd8828285610b14565b600060209050601f831160018114610c0b5760008415610bf9578287015190505b610c038582610b85565b865550610c6b565b601f198416610c19866109f5565b60005b82811015610c4157848901518255600182019150602085019450602081019050610c1c565b86831015610c5e5784890151610c5a601f891682610b67565b8355505b6001600288020188555050505b50505050505056fea264697066735822122018d6645c041bf903d21b1a2a89c18aae4a9d2d22bd7ca79293aa52dda11ba39b64736f6c63430008120033",
					"opcodes": "PUSH1 0x80 PUSH1 0x40 MSTORE CALLVALUE DUP1 ISZERO PUSH3 0x11 JUMPI PUSH1 0x0 DUP1 REVERT JUMPDEST POP PUSH1 0x40 MLOAD DUP1 PUSH1 0x40 ADD PUSH1 0x40 MSTORE DUP1 PUSH1 0x3 DUP2 MSTORE PUSH1 0x20 ADD PUSH32 0x5265640000000000000000000000000000000000000000000000000000000000 DUP2 MSTORE POP PUSH1 0x0 DUP1 PUSH1 0x1 DUP2 MSTORE PUSH1 0x20 ADD SWAP1 DUP2 MSTORE PUSH1 0x20 ADD PUSH1 0x0 KECCAK256 SWAP1 DUP2 PUSH3 0x69 SWAP2 SWAP1 PUSH3 0x39A JUMP JUMPDEST POP PUSH1 0x40 MLOAD DUP1 PUSH1 0x40 ADD PUSH1 0x40 MSTORE DUP1 PUSH1 0x4 DUP2 MSTORE PUSH1 0x20 ADD PUSH32 0x426C756500000000000000000000000000000000000000000000000000000000 DUP2 MSTORE POP PUSH1 0x0 DUP1 PUSH1 0x2 DUP2 MSTORE PUSH1 0x20 ADD SWAP1 DUP2 MSTORE PUSH1 0x20 ADD PUSH1 0x0 KECCAK256 SWAP1 DUP2 PUSH3 0xC1 SWAP2 SWAP1 PUSH3 0x39A JUMP JUMPDEST POP PUSH1 0x40 MLOAD DUP1 PUSH1 0x40 ADD PUSH1 0x40 MSTORE DUP1 PUSH1 0x5 DUP2 MSTORE PUSH1 0x20 ADD PUSH32 0x477265656E000000000000000000000000000000000000000000000000000000 DUP2 MSTORE POP PUSH1 0x0 DUP1 PUSH1 0x3 DUP2 MSTORE PUSH1 0x20 ADD SWAP1 DUP2 MSTORE PUSH1 0x20 ADD PUSH1 0x0 KECCAK256 SWAP1 DUP2 PUSH3 0x119 SWAP2 SWAP1 PUSH3 0x39A JUMP JUMPDEST POP PUSH3 0x481 JUMP JUMPDEST PUSH1 0x0 DUP2 MLOAD SWAP1 POP SWAP2 SWAP1 POP JUMP JUMPDEST PUSH32 0x4E487B7100000000000000000000000000000000000000000000000000000000 PUSH1 0x0 MSTORE PUSH1 0x41 PUSH1 0x4 MSTORE PUSH1 0x24 PUSH1 0x0 REVERT JUMPDEST PUSH32 0x4E487B7100000000000000000000000000000000000000000000000000000000 PUSH1 0x0 MSTORE PUSH1 0x22 PUSH1 0x4 MSTORE PUSH1 0x24 PUSH1 0x0 REVERT JUMPDEST PUSH1 0x0 PUSH1 0x2 DUP3 DIV SWAP1 POP PUSH1 0x1 DUP3 AND DUP1 PUSH3 0x1A2 JUMPI PUSH1 0x7F DUP3 AND SWAP2 POP JUMPDEST PUSH1 0x20 DUP3 LT DUP2 SUB PUSH3 0x1B8 JUMPI PUSH3 0x1B7 PUSH3 0x15A JUMP JUMPDEST JUMPDEST POP SWAP2 SWAP1 POP JUMP JUMPDEST PUSH1 0x0 DUP2 SWAP1 POP DUP2 PUSH1 0x0 MSTORE PUSH1 0x20 PUSH1 0x0 KECCAK256 SWAP1 POP SWAP2 SWAP1 POP JUMP JUMPDEST PUSH1 0x0 PUSH1 0x20 PUSH1 0x1F DUP4 ADD DIV SWAP1 POP SWAP2 SWAP1 POP JUMP JUMPDEST PUSH1 0x0 DUP3 DUP3 SHL SWAP1 POP SWAP3 SWAP2 POP POP JUMP JUMPDEST PUSH1 0x0 PUSH1 0x8 DUP4 MUL PUSH3 0x222 PUSH32 0xFFFFFFFFFFFFFFFFFFFFFFFFFFFFFFFFFFFFFFFFFFFFFFFFFFFFFFFFFFFFFFFF DUP3 PUSH3 0x1E3 JUMP JUMPDEST PUSH3 0x22E DUP7 DUP4 PUSH3 0x1E3 JUMP JUMPDEST SWAP6 POP DUP1 NOT DUP5 AND SWAP4 POP DUP1 DUP7 AND DUP5 OR SWAP3 POP POP POP SWAP4 SWAP3 POP POP POP JUMP JUMPDEST PUSH1 0x0 DUP2 SWAP1 POP SWAP2 SWAP1 POP JUMP JUMPDEST PUSH1 0x0 DUP2 SWAP1 POP SWAP2 SWAP1 POP JUMP JUMPDEST PUSH1 0x0 PUSH3 0x27B PUSH3 0x275 PUSH3 0x26F DUP5 PUSH3 0x246 JUMP JUMPDEST PUSH3 0x250 JUMP JUMPDEST PUSH3 0x246 JUMP JUMPDEST SWAP1 POP SWAP2 SWAP1 POP JUMP JUMPDEST PUSH1 0x0 DUP2 SWAP1 POP SWAP2 SWAP1 POP JUMP JUMPDEST PUSH3 0x297 DUP4 PUSH3 0x25A JUMP JUMPDEST PUSH3 0x2AF PUSH3 0x2A6 DUP3 PUSH3 0x282 JUMP JUMPDEST DUP5 DUP5 SLOAD PUSH3 0x1F0 JUMP JUMPDEST DUP3 SSTORE POP POP POP POP JUMP JUMPDEST PUSH1 0x0 SWAP1 JUMP JUMPDEST PUSH3 0x2C6 PUSH3 0x2B7 JUMP JUMPDEST PUSH3 0x2D3 DUP2 DUP5 DUP5 PUSH3 0x28C JUMP JUMPDEST POP POP POP JUMP JUMPDEST JUMPDEST DUP2 DUP2 LT ISZERO PUSH3 0x2FB JUMPI PUSH3 0x2EF PUSH1 0x0 DUP3 PUSH3 0x2BC JUMP JUMPDEST PUSH1 0x1 DUP2 ADD SWAP1 POP PUSH3 0x2D9 JUMP JUMPDEST POP POP JUMP JUMPDEST PUSH1 0x1F DUP3 GT ISZERO PUSH3 0x34A JUMPI PUSH3 0x314 DUP2 PUSH3 0x1BE JUMP JUMPDEST PUSH3 0x31F DUP5 PUSH3 0x1D3 JUMP JUMPDEST DUP2 ADD PUSH1 0x20 DUP6 LT ISZERO PUSH3 0x32F JUMPI DUP2 SWAP1 POP JUMPDEST PUSH3 0x347 PUSH3 0x33E DUP6 PUSH3 0x1D3 JUMP JUMPDEST DUP4 ADD DUP3 PUSH3 0x2D8 JUMP JUMPDEST POP POP JUMPDEST POP POP POP JUMP JUMPDEST PUSH1 0x0 DUP3 DUP3 SHR SWAP1 POP SWAP3 SWAP2 POP POP JUMP JUMPDEST PUSH1 0x0 PUSH3 0x36F PUSH1 0x0 NOT DUP5 PUSH1 0x8 MUL PUSH3 0x34F JUMP JUMPDEST NOT DUP1 DUP4 AND SWAP2 POP POP SWAP3 SWAP2 POP POP JUMP JUMPDEST PUSH1 0x0 PUSH3 0x38A DUP4 DUP4 PUSH3 0x35C JUMP JUMPDEST SWAP2 POP DUP3 PUSH1 0x2 MUL DUP3 OR SWAP1 POP SWAP3 SWAP2 POP POP JUMP JUMPDEST PUSH3 0x3A5 DUP3 PUSH3 0x120 JUMP JUMPDEST PUSH8 0xFFFFFFFFFFFFFFFF DUP2 GT ISZERO PUSH3 0x3C1 JUMPI PUSH3 0x3C0 PUSH3 0x12B JUMP JUMPDEST JUMPDEST PUSH3 0x3CD DUP3 SLOAD PUSH3 0x189 JUMP JUMPDEST PUSH3 0x3DA DUP3 DUP3 DUP6 PUSH3 0x2FF JUMP JUMPDEST PUSH1 0x0 PUSH1 0x20 SWAP1 POP PUSH1 0x1F DUP4 GT PUSH1 0x1 DUP2 EQ PUSH3 0x412 JUMPI PUSH1 0x0 DUP5 ISZERO PUSH3 0x3FD JUMPI DUP3 DUP8 ADD MLOAD SWAP1 POP JUMPDEST PUSH3 0x409 DUP6 DUP3 PUSH3 0x37C JUMP JUMPDEST DUP7 SSTORE POP PUSH3 0x479 JUMP JUMPDEST PUSH1 0x1F NOT DUP5 AND PUSH3 0x422 DUP7 PUSH3 0x1BE JUMP JUMPDEST PUSH1 0x0 JUMPDEST DUP3 DUP2 LT ISZERO PUSH3 0x44C JUMPI DUP5 DUP10 ADD MLOAD DUP3 SSTORE PUSH1 0x1 DUP3 ADD SWAP2 POP PUSH1 0x20 DUP6 ADD SWAP5 POP PUSH1 0x20 DUP2 ADD SWAP1 POP PUSH3 0x425 JUMP JUMPDEST DUP7 DUP4 LT ISZERO PUSH3 0x46C JUMPI DUP5 DUP10 ADD MLOAD PUSH3 0x468 PUSH1 0x1F DUP10 AND DUP3 PUSH3 0x35C JUMP JUMPDEST DUP4 SSTORE POP JUMPDEST PUSH1 0x1 PUSH1 0x2 DUP9 MUL ADD DUP9 SSTORE POP POP POP JUMPDEST POP POP POP POP POP POP JUMP JUMPDEST PUSH2 0xCA9 DUP1 PUSH3 0x491 PUSH1 0x0 CODECOPY PUSH1 0x0 RETURN INVALID PUSH1 0x80 PUSH1 0x40 MSTORE CALLVALUE DUP1 ISZERO PUSH2 0x10 JUMPI PUSH1 0x0 DUP1 REVERT JUMPDEST POP PUSH1 0x4 CALLDATASIZE LT PUSH2 0x62 JUMPI PUSH1 0x0 CALLDATALOAD PUSH1 0xE0 SHR DUP1 PUSH4 0x1C0A1667 EQ PUSH2 0x67 JUMPI DUP1 PUSH4 0x66815166 EQ PUSH2 0x83 JUMPI DUP1 PUSH4 0x6A6D6270 EQ PUSH2 0x9F JUMPI DUP1 PUSH4 0xBD11F69D EQ PUSH2 0xD0 JUMPI DUP1 PUSH4 0xEB3AA834 EQ PUSH2 0x100 JUMPI DUP1 PUSH4 0xF7746E36 EQ PUSH2 0x11C JUMPI JUMPDEST PUSH1 0x0 DUP1 REVERT JUMPDEST PUSH2 0x81 PUSH1 0x4 DUP1 CALLDATASIZE SUB DUP2 ADD SWAP1 PUSH2 0x7C SWAP2 SWAP1 PUSH2 0x70B JUMP JUMPDEST PUSH2 0x14D JUMP JUMPDEST STOP JUMPDEST PUSH2 0x9D PUSH1 0x4 DUP1 CALLDATASIZE SUB DUP2 ADD SWAP1 PUSH2 0x98 SWAP2 SWAP1 PUSH2 0x796 JUMP JUMPDEST PUSH2 0x1A9 JUMP JUMPDEST STOP JUMPDEST PUSH2 0xB9 PUSH1 0x4 DUP1 CALLDATASIZE SUB DUP2 ADD SWAP1 PUSH2 0xB4 SWAP2 SWAP1 PUSH2 0x850 JUMP JUMPDEST PUSH2 0x1CD JUMP JUMPDEST PUSH1 0x40 MLOAD PUSH2 0xC7 SWAP3 SWAP2 SWAP1 PUSH2 0x90F JUMP JUMPDEST PUSH1 0x40 MLOAD DUP1 SWAP2 SUB SWAP1 RETURN JUMPDEST PUSH2 0xEA PUSH1 0x4 DUP1 CALLDATASIZE SUB DUP2 ADD SWAP1 PUSH2 0xE5 SWAP2 SWAP1 PUSH2 0x946 JUMP JUMPDEST PUSH2 0x30E JUMP JUMPDEST PUSH1 0x40 MLOAD PUSH2 0xF7 SWAP2 SWAP1 PUSH2 0x973 JUMP JUMPDEST PUSH1 0x40 MLOAD DUP1 SWAP2 SUB SWAP1 RETURN JUMPDEST PUSH2 0x11A PUSH1 0x4 DUP1 CALLDATASIZE SUB DUP2 ADD SWAP1 PUSH2 0x115 SWAP2 SWAP1 PUSH2 0x70B JUMP JUMPDEST PUSH2 0x3AE JUMP JUMPDEST STOP JUMPDEST PUSH2 0x136 PUSH1 0x4 DUP1 CALLDATASIZE SUB DUP2 ADD SWAP1 PUSH2 0x131 SWAP2 SWAP1 PUSH2 0x946 JUMP JUMPDEST PUSH2 0x447 JUMP JUMPDEST PUSH1 0x40 MLOAD PUSH2 0x144 SWAP3 SWAP2 SWAP1 PUSH2 0x90F JUMP JUMPDEST PUSH1 0x40 MLOAD DUP1 SWAP2 SUB SWAP1 RETURN JUMPDEST PUSH1 0x40 MLOAD DUP1 PUSH1 0x40 ADD PUSH1 0x40 MSTORE DUP1 DUP4 DUP2 MSTORE PUSH1 0x20 ADD DUP3 DUP2 MSTORE POP PUSH1 0x1 PUSH1 0x0 DUP6 DUP2 MSTORE PUSH1 0x20 ADD SWAP1 DUP2 MSTORE PUSH1 0x20 ADD PUSH1 0x0 KECCAK256 PUSH1 0x0 DUP3 ADD MLOAD DUP2 PUSH1 0x0 ADD SWAP1 DUP2 PUSH2 0x18A SWAP2 SWAP1 PUSH2 0xBA1 JUMP JUMPDEST POP PUSH1 0x20 DUP3 ADD MLOAD DUP2 PUSH1 0x1 ADD SWAP1 DUP2 PUSH2 0x1A0 SWAP2 SWAP1 PUSH2 0xBA1 JUMP JUMPDEST POP SWAP1 POP POP POP POP POP JUMP JUMPDEST DUP1 PUSH1 0x0 DUP1 DUP5 DUP2 MSTORE PUSH1 0x20 ADD SWAP1 DUP2 MSTORE PUSH1 0x20 ADD PUSH1 0x0 KECCAK256 SWAP1 DUP2 PUSH2 0x1C8 SWAP2 SWAP1 PUSH2 0xBA1 JUMP JUMPDEST POP POP POP JUMP JUMPDEST PUSH1 0x2 PUSH1 0x20 MSTORE DUP2 PUSH1 0x0 MSTORE PUSH1 0x40 PUSH1 0x0 KECCAK256 PUSH1 0x20 MSTORE DUP1 PUSH1 0x0 MSTORE PUSH1 0x40 PUSH1 0x0 KECCAK256 PUSH1 0x0 SWAP2 POP SWAP2 POP POP DUP1 PUSH1 0x0 ADD DUP1 SLOAD PUSH2 0x1FD SWAP1 PUSH2 0x9C4 JUMP JUMPDEST DUP1 PUSH1 0x1F ADD PUSH1 0x20 DUP1 SWAP2 DIV MUL PUSH1 0x20 ADD PUSH1 0x40 MLOAD SWAP1 DUP2 ADD PUSH1 0x40 MSTORE DUP1 SWAP3 SWAP2 SWAP1 DUP2 DUP2 MSTORE PUSH1 0x20 ADD DUP3 DUP1 SLOAD PUSH2 0x229 SWAP1 PUSH2 0x9C4 JUMP JUMPDEST DUP1 ISZERO PUSH2 0x276 JUMPI DUP1 PUSH1 0x1F LT PUSH2 0x24B JUMPI PUSH2 0x100 DUP1 DUP4 SLOAD DIV MUL DUP4 MSTORE SWAP2 PUSH1 0x20 ADD SWAP2 PUSH2 0x276 JUMP JUMPDEST DUP3 ADD SWAP2 SWAP1 PUSH1 0x0 MSTORE PUSH1 0x20 PUSH1 0x0 KECCAK256 SWAP1 JUMPDEST DUP2 SLOAD DUP2 MSTORE SWAP1 PUSH1 0x1 ADD SWAP1 PUSH1 0x20 ADD DUP1 DUP4 GT PUSH2 0x259 JUMPI DUP3 SWAP1 SUB PUSH1 0x1F AND DUP3 ADD SWAP2 JUMPDEST POP POP POP POP POP SWAP1 DUP1 PUSH1 0x1 ADD DUP1 SLOAD PUSH2 0x28B SWAP1 PUSH2 0x9C4 JUMP JUMPDEST DUP1 PUSH1 0x1F ADD PUSH1 0x20 DUP1 SWAP2 DIV MUL PUSH1 0x20 ADD PUSH1 0x40 MLOAD SWAP1 DUP2 ADD PUSH1 0x40 MSTORE DUP1 SWAP3 SWAP2 SWAP1 DUP2 DUP2 MSTORE PUSH1 0x20 ADD DUP3 DUP1 SLOAD PUSH2 0x2B7 SWAP1 PUSH2 0x9C4 JUMP JUMPDEST DUP1 ISZERO PUSH2 0x304 JUMPI DUP1 PUSH1 0x1F LT PUSH2 0x2D9 JUMPI PUSH2 0x100 DUP1 DUP4 SLOAD DIV MUL DUP4 MSTORE SWAP2 PUSH1 0x20 ADD SWAP2 PUSH2 0x304 JUMP JUMPDEST DUP3 ADD SWAP2 SWAP1 PUSH1 0x0 MSTORE PUSH1 0x20 PUSH1 0x0 KECCAK256 SWAP1 JUMPDEST DUP2 SLOAD DUP2 MSTORE SWAP1 PUSH1 0x1 ADD SWAP1 PUSH1 0x20 ADD DUP1 DUP4 GT PUSH2 0x2E7 JUMPI DUP3 SWAP1 SUB PUSH1 0x1F AND DUP3 ADD SWAP2 JUMPDEST POP POP POP POP POP SWAP1 POP DUP3 JUMP JUMPDEST PUSH1 0x0 PUSH1 0x20 MSTORE DUP1 PUSH1 0x0 MSTORE PUSH1 0x40 PUSH1 0x0 KECCAK256 PUSH1 0x0 SWAP2 POP SWAP1 POP DUP1 SLOAD PUSH2 0x32D SWAP1 PUSH2 0x9C4 JUMP JUMPDEST DUP1 PUSH1 0x1F ADD PUSH1 0x20 DUP1 SWAP2 DIV MUL PUSH1 0x20 ADD PUSH1 0x40 MLOAD SWAP1 DUP2 ADD PUSH1 0x40 MSTORE DUP1 SWAP3 SWAP2 SWAP1 DUP2 DUP2 MSTORE PUSH1 0x20 ADD DUP3 DUP1 SLOAD PUSH2 0x359 SWAP1 PUSH2 0x9C4 JUMP JUMPDEST DUP1 ISZERO PUSH2 0x3A6 JUMPI DUP1 PUSH1 0x1F LT PUSH2 0x37B JUMPI PUSH2 0x100 DUP1 DUP4 SLOAD DIV MUL DUP4 MSTORE SWAP2 PUSH1 0x20 ADD SWAP2 PUSH2 0x3A6 JUMP JUMPDEST DUP3 ADD SWAP2 SWAP1 PUSH1 0x0 MSTORE PUSH1 0x20 PUSH1 0x0 KECCAK256 SWAP1 JUMPDEST DUP2 SLOAD DUP2 MSTORE SWAP1 PUSH1 0x1 ADD SWAP1 PUSH1 0x20 ADD DUP1 DUP4 GT PUSH2 0x389 JUMPI DUP3 SWAP1 SUB PUSH1 0x1F AND DUP3 ADD SWAP2 JUMPDEST POP POP POP POP POP DUP2 JUMP JUMPDEST PUSH1 0x40 MLOAD DUP1 PUSH1 0x40 ADD PUSH1 0x40 MSTORE DUP1 DUP4 DUP2 MSTORE PUSH1 0x20 ADD DUP3 DUP2 MSTORE POP PUSH1 0x2 PUSH1 0x0 CALLER PUSH20 0xFFFFFFFFFFFFFFFFFFFFFFFFFFFFFFFFFFFFFFFF AND PUSH20 0xFFFFFFFFFFFFFFFFFFFFFFFFFFFFFFFFFFFFFFFF AND DUP2 MSTORE PUSH1 0x20 ADD SWAP1 DUP2 MSTORE PUSH1 0x20 ADD PUSH1 0x0 KECCAK256 PUSH1 0x0 DUP6 DUP2 MSTORE PUSH1 0x20 ADD SWAP1 DUP2 MSTORE PUSH1 0x20 ADD PUSH1 0x0 KECCAK256 PUSH1 0x0 DUP3 ADD MLOAD DUP2 PUSH1 0x0 ADD SWAP1 DUP2 PUSH2 0x428 SWAP2 SWAP1 PUSH2 0xBA1 JUMP JUMPDEST POP PUSH1 0x20 DUP3 ADD MLOAD DUP2 PUSH1 0x1 ADD SWAP1 DUP2 PUSH2 0x43E SWAP2 SWAP1 PUSH2 0xBA1 JUMP JUMPDEST POP SWAP1 POP POP POP POP POP JUMP JUMPDEST PUSH1 0x1 PUSH1 0x20 MSTORE DUP1 PUSH1 0x0 MSTORE PUSH1 0x40 PUSH1 0x0 KECCAK256 PUSH1 0x0 SWAP2 POP SWAP1 POP DUP1 PUSH1 0x0 ADD DUP1 SLOAD PUSH2 0x46A SWAP1 PUSH2 0x9C4 JUMP JUMPDEST DUP1 PUSH1 0x1F ADD PUSH1 0x20 DUP1 SWAP2 DIV MUL PUSH1 0x20 ADD PUSH1 0x40 MLOAD SWAP1 DUP2 ADD PUSH1 0x40 MSTORE DUP1 SWAP3 SWAP2 SWAP1 DUP2 DUP2 MSTORE PUSH1 0x20 ADD DUP3 DUP1 SLOAD PUSH2 0x496 SWAP1 PUSH2 0x9C4 JUMP JUMPDEST DUP1 ISZERO PUSH2 0x4E3 JUMPI DUP1 PUSH1 0x1F LT PUSH2 0x4B8 JUMPI PUSH2 0x100 DUP1 DUP4 SLOAD DIV MUL DUP4 MSTORE SWAP2 PUSH1 0x20 ADD SWAP2 PUSH2 0x4E3 JUMP JUMPDEST DUP3 ADD SWAP2 SWAP1 PUSH1 0x0 MSTORE PUSH1 0x20 PUSH1 0x0 KECCAK256 SWAP1 JUMPDEST DUP2 SLOAD DUP2 MSTORE SWAP1 PUSH1 0x1 ADD SWAP1 PUSH1 0x20 ADD DUP1 DUP4 GT PUSH2 0x4C6 JUMPI DUP3 SWAP1 SUB PUSH1 0x1F AND DUP3 ADD SWAP2 JUMPDEST POP POP POP POP POP SWAP1 DUP1 PUSH1 0x1 ADD DUP1 SLOAD PUSH2 0x4F8 SWAP1 PUSH2 0x9C4 JUMP JUMPDEST DUP1 PUSH1 0x1F ADD PUSH1 0x20 DUP1 SWAP2 DIV MUL PUSH1 0x20 ADD PUSH1 0x40 MLOAD SWAP1 DUP2 ADD PUSH1 0x40 MSTORE DUP1 SWAP3 SWAP2 SWAP1 DUP2 DUP2 MSTORE PUSH1 0x20 ADD DUP3 DUP1 SLOAD PUSH2 0x524 SWAP1 PUSH2 0x9C4 JUMP JUMPDEST DUP1 ISZERO PUSH2 0x571 JUMPI DUP1 PUSH1 0x1F LT PUSH2 0x546 JUMPI PUSH2 0x100 DUP1 DUP4 SLOAD DIV MUL DUP4 MSTORE SWAP2 PUSH1 0x20 ADD SWAP2 PUSH2 0x571 JUMP JUMPDEST DUP3 ADD SWAP2 SWAP1 PUSH1 0x0 MSTORE PUSH1 0x20 PUSH1 0x0 KECCAK256 SWAP1 JUMPDEST DUP2 SLOAD DUP2 MSTORE SWAP1 PUSH1 0x1 ADD SWAP1 PUSH1 0x20 ADD DUP1 DUP4 GT PUSH2 0x554 JUMPI DUP3 SWAP1 SUB PUSH1 0x1F AND DUP3 ADD SWAP2 JUMPDEST POP POP POP POP POP SWAP1 POP DUP3 JUMP JUMPDEST PUSH1 0x0 PUSH1 0x40 MLOAD SWAP1 POP SWAP1 JUMP JUMPDEST PUSH1 0x0 DUP1 REVERT JUMPDEST PUSH1 0x0 DUP1 REVERT JUMPDEST PUSH1 0x0 DUP2 SWAP1 POP SWAP2 SWAP1 POP JUMP JUMPDEST PUSH2 0x5A2 DUP2 PUSH2 0x58F JUMP JUMPDEST DUP2 EQ PUSH2 0x5AD JUMPI PUSH1 0x0 DUP1 REVERT JUMPDEST POP JUMP JUMPDEST PUSH1 0x0 DUP2 CALLDATALOAD SWAP1 POP PUSH2 0x5BF DUP2 PUSH2 0x599 JUMP JUMPDEST SWAP3 SWAP2 POP POP JUMP JUMPDEST PUSH1 0x0 DUP1 REVERT JUMPDEST PUSH1 0x0 DUP1 REVERT JUMPDEST PUSH1 0x0 PUSH1 0x1F NOT PUSH1 0x1F DUP4 ADD AND SWAP1 POP SWAP2 SWAP1 POP JUMP JUMPDEST PUSH32 0x4E487B7100000000000000000000000000000000000000000000000000000000 PUSH1 0x0 MSTORE PUSH1 0x41 PUSH1 0x4 MSTORE PUSH1 0x24 PUSH1 0x0 REVERT JUMPDEST PUSH2 0x618 DUP3 PUSH2 0x5CF JUMP JUMPDEST DUP2 ADD DUP2 DUP2 LT PUSH8 0xFFFFFFFFFFFFFFFF DUP3 GT OR ISZERO PUSH2 0x637 JUMPI PUSH2 0x636 PUSH2 0x5E0 JUMP JUMPDEST JUMPDEST DUP1 PUSH1 0x40 MSTORE POP POP POP JUMP JUMPDEST PUSH1 0x0 PUSH2 0x64A PUSH2 0x57B JUMP JUMPDEST SWAP1 POP PUSH2 0x656 DUP3 DUP3 PUSH2 0x60F JUMP JUMPDEST SWAP2 SWAP1 POP JUMP JUMPDEST PUSH1 0x0 PUSH8 0xFFFFFFFFFFFFFFFF DUP3 GT ISZERO PUSH2 0x676 JUMPI PUSH2 0x675 PUSH2 0x5E0 JUMP JUMPDEST JUMPDEST PUSH2 0x67F DUP3 PUSH2 0x5CF JUMP JUMPDEST SWAP1 POP PUSH1 0x20 DUP2 ADD SWAP1 POP SWAP2 SWAP1 POP JUMP JUMPDEST DUP3 DUP2 DUP4 CALLDATACOPY PUSH1 0x0 DUP4 DUP4 ADD MSTORE POP POP POP JUMP JUMPDEST PUSH1 0x0 PUSH2 0x6AE PUSH2 0x6A9 DUP5 PUSH2 0x65B JUMP JUMPDEST PUSH2 0x640 JUMP JUMPDEST SWAP1 POP DUP3 DUP2 MSTORE PUSH1 0x20 DUP2 ADD DUP5 DUP5 DUP5 ADD GT ISZERO PUSH2 0x6CA JUMPI PUSH2 0x6C9 PUSH2 0x5CA JUMP JUMPDEST JUMPDEST PUSH2 0x6D5 DUP5 DUP3 DUP6 PUSH2 0x68C JUMP JUMPDEST POP SWAP4 SWAP3 POP POP POP JUMP JUMPDEST PUSH1 0x0 DUP3 PUSH1 0x1F DUP4 ADD SLT PUSH2 0x6F2 JUMPI PUSH2 0x6F1 PUSH2 0x5C5 JUMP JUMPDEST JUMPDEST DUP2 CALLDATALOAD PUSH2 0x702 DUP5 DUP3 PUSH1 0x20 DUP7 ADD PUSH2 0x69B JUMP JUMPDEST SWAP2 POP POP SWAP3 SWAP2 POP POP JUMP JUMPDEST PUSH1 0x0 DUP1 PUSH1 0x0 PUSH1 0x60 DUP5 DUP7 SUB SLT ISZERO PUSH2 0x724 JUMPI PUSH2 0x723 PUSH2 0x585 JUMP JUMPDEST JUMPDEST PUSH1 0x0 PUSH2 0x732 DUP7 DUP3 DUP8 ADD PUSH2 0x5B0 JUMP JUMPDEST SWAP4 POP POP PUSH1 0x20 DUP5 ADD CALLDATALOAD PUSH8 0xFFFFFFFFFFFFFFFF DUP2 GT ISZERO PUSH2 0x753 JUMPI PUSH2 0x752 PUSH2 0x58A JUMP JUMPDEST JUMPDEST PUSH2 0x75F DUP7 DUP3 DUP8 ADD PUSH2 0x6DD JUMP JUMPDEST SWAP3 POP POP PUSH1 0x40 DUP5 ADD CALLDATALOAD PUSH8 0xFFFFFFFFFFFFFFFF DUP2 GT ISZERO PUSH2 0x780 JUMPI PUSH2 0x77F PUSH2 0x58A JUMP JUMPDEST JUMPDEST PUSH2 0x78C DUP7 DUP3 DUP8 ADD PUSH2 0x6DD JUMP JUMPDEST SWAP2 POP POP SWAP3 POP SWAP3 POP SWAP3 JUMP JUMPDEST PUSH1 0x0 DUP1 PUSH1 0x40 DUP4 DUP6 SUB SLT ISZERO PUSH2 0x7AD JUMPI PUSH2 0x7AC PUSH2 0x585 JUMP JUMPDEST JUMPDEST PUSH1 0x0 PUSH2 0x7BB DUP6 DUP3 DUP7 ADD PUSH2 0x5B0 JUMP JUMPDEST SWAP3 POP POP PUSH1 0x20 DUP4 ADD CALLDATALOAD PUSH8 0xFFFFFFFFFFFFFFFF DUP2 GT ISZERO PUSH2 0x7DC JUMPI PUSH2 0x7DB PUSH2 0x58A JUMP JUMPDEST JUMPDEST PUSH2 0x7E8 DUP6 DUP3 DUP7 ADD PUSH2 0x6DD JUMP JUMPDEST SWAP2 POP POP SWAP3 POP SWAP3 SWAP1 POP JUMP JUMPDEST PUSH1 0x0 PUSH20 0xFFFFFFFFFFFFFFFFFFFFFFFFFFFFFFFFFFFFFFFF DUP3 AND SWAP1 POP SWAP2 SWAP1 POP JUMP JUMPDEST PUSH1 0x0 PUSH2 0x81D DUP3 PUSH2 0x7F2 JUMP JUMPDEST SWAP1 POP SWAP2 SWAP1 POP JUMP JUMPDEST PUSH2 0x82D DUP2 PUSH2 0x812 JUMP JUMPDEST DUP2 EQ PUSH2 0x838 JUMPI PUSH1 0x0 DUP1 REVERT JUMPDEST POP JUMP JUMPDEST PUSH1 0x0 DUP2 CALLDATALOAD SWAP1 POP PUSH2 0x84A DUP2 PUSH2 0x824 JUMP JUMPDEST SWAP3 SWAP2 POP POP JUMP JUMPDEST PUSH1 0x0 DUP1 PUSH1 0x40 DUP4 DUP6 SUB SLT ISZERO PUSH2 0x867 JUMPI PUSH2 0x866 PUSH2 0x585 JUMP JUMPDEST JUMPDEST PUSH1 0x0 PUSH2 0x875 DUP6 DUP3 DUP7 ADD PUSH2 0x83B JUMP JUMPDEST SWAP3 POP POP PUSH1 0x20 PUSH2 0x886 DUP6 DUP3 DUP7 ADD PUSH2 0x5B0 JUMP JUMPDEST SWAP2 POP POP SWAP3 POP SWAP3 SWAP1 POP JUMP JUMPDEST PUSH1 0x0 DUP2 MLOAD SWAP1 POP SWAP2 SWAP1 POP JUMP JUMPDEST PUSH1 0x0 DUP3 DUP3 MSTORE PUSH1 0x20 DUP3 ADD SWAP1 POP SWAP3 SWAP2 POP POP JUMP JUMPDEST PUSH1 0x0 JUMPDEST DUP4 DUP2 LT ISZERO PUSH2 0x8CA JUMPI DUP1 DUP3 ADD MLOAD DUP2 DUP5 ADD MSTORE PUSH1 0x20 DUP2 ADD SWAP1 POP PUSH2 0x8AF JUMP JUMPDEST PUSH1 0x0 DUP5 DUP5 ADD MSTORE POP POP POP POP JUMP JUMPDEST PUSH1 0x0 PUSH2 0x8E1 DUP3 PUSH2 0x890 JUMP JUMPDEST PUSH2 0x8EB DUP2 DUP6 PUSH2 0x89B JUMP JUMPDEST SWAP4 POP PUSH2 0x8FB DUP2 DUP6 PUSH1 0x20 DUP7 ADD PUSH2 0x8AC JUMP JUMPDEST PUSH2 0x904 DUP2 PUSH2 0x5CF JUMP JUMPDEST DUP5 ADD SWAP2 POP POP SWAP3 SWAP2 POP POP JUMP JUMPDEST PUSH1 0x0 PUSH1 0x40 DUP3 ADD SWAP1 POP DUP2 DUP2 SUB PUSH1 0x0 DUP4 ADD MSTORE PUSH2 0x929 DUP2 DUP6 PUSH2 0x8D6 JUMP JUMPDEST SWAP1 POP DUP2 DUP2 SUB PUSH1 0x20 DUP4 ADD MSTORE PUSH2 0x93D DUP2 DUP5 PUSH2 0x8D6 JUMP JUMPDEST SWAP1 POP SWAP4 SWAP3 POP POP POP JUMP JUMPDEST PUSH1 0x0 PUSH1 0x20 DUP3 DUP5 SUB SLT ISZERO PUSH2 0x95C JUMPI PUSH2 0x95B PUSH2 0x585 JUMP JUMPDEST JUMPDEST PUSH1 0x0 PUSH2 0x96A DUP5 DUP3 DUP6 ADD PUSH2 0x5B0 JUMP JUMPDEST SWAP2 POP POP SWAP3 SWAP2 POP POP JUMP JUMPDEST PUSH1 0x0 PUSH1 0x20 DUP3 ADD SWAP1 POP DUP2 DUP2 SUB PUSH1 0x0 DUP4 ADD MSTORE PUSH2 0x98D DUP2 DUP5 PUSH2 0x8D6 JUMP JUMPDEST SWAP1 POP SWAP3 SWAP2 POP POP JUMP JUMPDEST PUSH32 0x4E487B7100000000000000000000000000000000000000000000000000000000 PUSH1 0x0 MSTORE PUSH1 0x22 PUSH1 0x4 MSTORE PUSH1 0x24 PUSH1 0x0 REVERT JUMPDEST PUSH1 0x0 PUSH1 0x2 DUP3 DIV SWAP1 POP PUSH1 0x1 DUP3 AND DUP1 PUSH2 0x9DC JUMPI PUSH1 0x7F DUP3 AND SWAP2 POP JUMPDEST PUSH1 0x20 DUP3 LT DUP2 SUB PUSH2 0x9EF JUMPI PUSH2 0x9EE PUSH2 0x995 JUMP JUMPDEST JUMPDEST POP SWAP2 SWAP1 POP JUMP JUMPDEST PUSH1 0x0 DUP2 SWAP1 POP DUP2 PUSH1 0x0 MSTORE PUSH1 0x20 PUSH1 0x0 KECCAK256 SWAP1 POP SWAP2 SWAP1 POP JUMP JUMPDEST PUSH1 0x0 PUSH1 0x20 PUSH1 0x1F DUP4 ADD DIV SWAP1 POP SWAP2 SWAP1 POP JUMP JUMPDEST PUSH1 0x0 DUP3 DUP3 SHL SWAP1 POP SWAP3 SWAP2 POP POP JUMP JUMPDEST PUSH1 0x0 PUSH1 0x8 DUP4 MUL PUSH2 0xA57 PUSH32 0xFFFFFFFFFFFFFFFFFFFFFFFFFFFFFFFFFFFFFFFFFFFFFFFFFFFFFFFFFFFFFFFF DUP3 PUSH2 0xA1A JUMP JUMPDEST PUSH2 0xA61 DUP7 DUP4 PUSH2 0xA1A JUMP JUMPDEST SWAP6 POP DUP1 NOT DUP5 AND SWAP4 POP DUP1 DUP7 AND DUP5 OR SWAP3 POP POP POP SWAP4 SWAP3 POP POP POP JUMP JUMPDEST PUSH1 0x0 DUP2 SWAP1 POP SWAP2 SWAP1 POP JUMP JUMPDEST PUSH1 0x0 PUSH2 0xA9E PUSH2 0xA99 PUSH2 0xA94 DUP5 PUSH2 0x58F JUMP JUMPDEST PUSH2 0xA79 JUMP JUMPDEST PUSH2 0x58F JUMP JUMPDEST SWAP1 POP SWAP2 SWAP1 POP JUMP JUMPDEST PUSH1 0x0 DUP2 SWAP1 POP SWAP2 SWAP1 POP JUMP JUMPDEST PUSH2 0xAB8 DUP4 PUSH2 0xA83 JUMP JUMPDEST PUSH2 0xACC PUSH2 0xAC4 DUP3 PUSH2 0xAA5 JUMP JUMPDEST DUP5 DUP5 SLOAD PUSH2 0xA27 JUMP JUMPDEST DUP3 SSTORE POP POP POP POP JUMP JUMPDEST PUSH1 0x0 SWAP1 JUMP JUMPDEST PUSH2 0xAE1 PUSH2 0xAD4 JUMP JUMPDEST PUSH2 0xAEC DUP2 DUP5 DUP5 PUSH2 0xAAF JUMP JUMPDEST POP POP POP JUMP JUMPDEST JUMPDEST DUP2 DUP2 LT ISZERO PUSH2 0xB10 JUMPI PUSH2 0xB05 PUSH1 0x0 DUP3 PUSH2 0xAD9 JUMP JUMPDEST PUSH1 0x1 DUP2 ADD SWAP1 POP PUSH2 0xAF2 JUMP JUMPDEST POP POP JUMP JUMPDEST PUSH1 0x1F DUP3 GT ISZERO PUSH2 0xB55 JUMPI PUSH2 0xB26 DUP2 PUSH2 0x9F5 JUMP JUMPDEST PUSH2 0xB2F DUP5 PUSH2 0xA0A JUMP JUMPDEST DUP2 ADD PUSH1 0x20 DUP6 LT ISZERO PUSH2 0xB3E JUMPI DUP2 SWAP1 POP JUMPDEST PUSH2 0xB52 PUSH2 0xB4A DUP6 PUSH2 0xA0A JUMP JUMPDEST DUP4 ADD DUP3 PUSH2 0xAF1 JUMP JUMPDEST POP POP JUMPDEST POP POP POP JUMP JUMPDEST PUSH1 0x0 DUP3 DUP3 SHR SWAP1 POP SWAP3 SWAP2 POP POP JUMP JUMPDEST PUSH1 0x0 PUSH2 0xB78 PUSH1 0x0 NOT DUP5 PUSH1 0x8 MUL PUSH2 0xB5A JUMP JUMPDEST NOT DUP1 DUP4 AND SWAP2 POP POP SWAP3 SWAP2 POP POP JUMP JUMPDEST PUSH1 0x0 PUSH2 0xB91 DUP4 DUP4 PUSH2 0xB67 JUMP JUMPDEST SWAP2 POP DUP3 PUSH1 0x2 MUL DUP3 OR SWAP1 POP SWAP3 SWAP2 POP POP JUMP JUMPDEST PUSH2 0xBAA DUP3 PUSH2 0x890 JUMP JUMPDEST PUSH8 0xFFFFFFFFFFFFFFFF DUP2 GT ISZERO PUSH2 0xBC3 JUMPI PUSH2 0xBC2 PUSH2 0x5E0 JUMP JUMPDEST JUMPDEST PUSH2 0xBCD DUP3 SLOAD PUSH2 0x9C4 JUMP JUMPDEST PUSH2 0xBD8 DUP3 DUP3 DUP6 PUSH2 0xB14 JUMP JUMPDEST PUSH1 0x0 PUSH1 0x20 SWAP1 POP PUSH1 0x1F DUP4 GT PUSH1 0x1 DUP2 EQ PUSH2 0xC0B JUMPI PUSH1 0x0 DUP5 ISZERO PUSH2 0xBF9 JUMPI DUP3 DUP8 ADD MLOAD SWAP1 POP JUMPDEST PUSH2 0xC03 DUP6 DUP3 PUSH2 0xB85 JUMP JUMPDEST DUP7 SSTORE POP PUSH2 0xC6B JUMP JUMPDEST PUSH1 0x1F NOT DUP5 AND PUSH2 0xC19 DUP7 PUSH2 0x9F5 JUMP JUMPDEST PUSH1 0x0 JUMPDEST DUP3 DUP2 LT ISZERO PUSH2 0xC41 JUMPI DUP5 DUP10 ADD MLOAD DUP3 SSTORE PUSH1 0x1 DUP3 ADD SWAP2 POP PUSH1 0x20 DUP6 ADD SWAP5 POP PUSH1 0x20 DUP2 ADD SWAP1 POP PUSH2 0xC1C JUMP JUMPDEST DUP7 DUP4 LT ISZERO PUSH2 0xC5E JUMPI DUP5 DUP10 ADD MLOAD PUSH2 0xC5A PUSH1 0x1F DUP10 AND DUP3 PUSH2 0xB67 JUMP JUMPDEST DUP4 SSTORE POP JUMPDEST PUSH1 0x1 PUSH1 0x2 DUP9 MUL ADD DUP9 SSTORE POP POP POP JUMPDEST POP POP POP POP POP POP JUMP INVALID LOG2 PUSH5 0x6970667358 0x22 SLT KECCAK256 XOR 0xD6 PUSH5 0x5C041BF903 0xD2 SHL BYTE 0x2A DUP10 0xC1 DUP11 0xAE 0x4A SWAP14 0x2D 0x22 0xBD PUSH29 0xA79293AA52DDA11BA39B64736F6C634300081200330000000000000000 "
				},
				"gasEstimates": {
					"creation": {
						"codeDepositCost": "648200",
						"executionCost": "infinite",
						"totalCost": "infinite"
					},
					"external": {
						"addCar(uint256,string,string)": "infinite",
						"addColor(uint256,string)": "infinite",
						"addPlayerCar(uint256,string,string)": "infinite",
						"cars(uint256)": "infinite",
						"colors(uint256)": "infinite",
						"playerCars(address,uint256)": "infinite"
					}
				},
				"methodIdentifiers": {
					"addCar(uint256,string,string)": "1c0a1667",
					"addColor(uint256,string)": "66815166",
					"addPlayerCar(uint256,string,string)": "eb3aa834",
					"cars(uint256)": "f7746e36",
					"colors(uint256)": "bd11f69d",
					"playerCars(address,uint256)": "6a6d6270"
				}
			},
			"storageLayout": {
				"storage": [
					{
						"astId": 5,
						"contract": "Mappings.sol:Mapping",
						"label": "colors",
						"offset": 0,
						"slot": "0",
						"type": "t_mapping(t_uint256,t_string_storage)"
					},
					{
						"astId": 51,
						"contract": "Mappings.sol:Mapping",
						"label": "cars",
						"offset": 0,
						"slot": "1",
						"type": "t_mapping(t_uint256,t_struct(Car)46_storage)"
					},
					{
						"astId": 77,
						"contract": "Mappings.sol:Mapping",
						"label": "playerCars",
						"offset": 0,
						"slot": "2",
						"type": "t_mapping(t_address,t_mapping(t_uint256,t_struct(Car)46_storage))"
					}
				],
				"types": {
					"t_address": {
						"encoding": "inplace",
						"label": "address",
						"numberOfBytes": "20"
					},
					"t_mapping(t_address,t_mapping(t_uint256,t_struct(Car)46_storage))": {
						"encoding": "mapping",
						"key": "t_address",
						"label": "mapping(address => mapping(uint256 => struct Mapping.Car))",
						"numberOfBytes": "32",
						"value": "t_mapping(t_uint256,t_struct(Car)46_storage)"
					},
					"t_mapping(t_uint256,t_string_storage)": {
						"encoding": "mapping",
						"key": "t_uint256",
						"label": "mapping(uint256 => string)",
						"numberOfBytes": "32",
						"value": "t_string_storage"
					},
					"t_mapping(t_uint256,t_struct(Car)46_storage)": {
						"encoding": "mapping",
						"key": "t_uint256",
						"label": "mapping(uint256 => struct Mapping.Car)",
						"numberOfBytes": "32",
						"value": "t_struct(Car)46_storage"
					},
					"t_string_storage": {
						"encoding": "bytes",
						"label": "string",
						"numberOfBytes": "32"
					},
					"t_struct(Car)46_storage": {
						"encoding": "inplace",
						"label": "struct Mapping.Car",
						"members": [
							{
								"astId": 43,
								"contract": "Mappings.sol:Mapping",
								"label": "maker",
								"offset": 0,
								"slot": "0",
								"type": "t_string_storage"
							},
							{
								"astId": 45,
								"contract": "Mappings.sol:Mapping",
								"label": "model",
								"offset": 0,
								"slot": "1",
								"type": "t_string_storage"
							}
						],
						"numberOfBytes": "64"
					},
					"t_uint256": {
						"encoding": "inplace",
						"label": "uint256",
						"numberOfBytes": "32"
					}
				}
			},
			"userdoc": {
				"kind": "user",
				"methods": {},
				"version": 1
			}
		}
	}
}