{
	"data": {
		"bytecode": {
			"linkReferences": {},
			"object": "608060405234801561001057600080fd5b50336000806101000a81548173ffffffffffffffffffffffffffffffffffffffff021916908373ffffffffffffffffffffffffffffffffffffffff16021790555060008060146101000a81548160ff0219169083600181111561007657610075610080565b5b02179055506100af565b7f4e487b7100000000000000000000000000000000000000000000000000000000600052602160045260246000fd5b6106b9806100be6000396000f3fe6080604052600436106100435760003560e01c80636184f2d7146101dc578063680baeb8146101e6578063ac51777414610211578063ce606ee014610228576101d7565b366101d7576000600181111561005c5761005b610449565b5b600060149054906101000a900460ff16600181111561007e5761007d610449565b5b146100be576040517f08c379a00000000000000000000000000000000000000000000000000000000081526004016100b5906104d5565b60405180910390fd5b671bc16d674ec800008034101561010a576040517f08c379a000000000000000000000000000000000000000000000000000000000815260040161010190610541565b60405180910390fd5b60008054906101000a900473ffffffffffffffffffffffffffffffffffffffff1673ffffffffffffffffffffffffffffffffffffffff166108fc349081150290604051600060405180830381858888f19350505050158015610170573d6000803e3d6000fd5b506001600060146101000a81548160ff0219169083600181111561019757610196610449565b5b02179055507f8a1baed21859112417dade4135990d21555a912a901803f24316a19a8d6ad8b033346040516101cd9291906105bb565b60405180910390a1005b600080fd5b6101e4610253565b005b3480156101f257600080fd5b506101fb6103e3565b604051610208919061062c565b60405180910390f35b34801561021d57600080fd5b506102266103f9565b005b34801561023457600080fd5b5061023d610425565b60405161024a9190610668565b60405180910390f35b6000600181111561026757610266610449565b5b600060149054906101000a900460ff16600181111561028957610288610449565b5b146102c9576040517f08c379a00000000000000000000000000000000000000000000000000000000081526004016102c0906104d5565b60405180910390fd5b671bc16d674ec8000080341015610315576040517f08c379a000000000000000000000000000000000000000000000000000000000815260040161030c90610541565b60405180910390fd5b60008054906101000a900473ffffffffffffffffffffffffffffffffffffffff1673ffffffffffffffffffffffffffffffffffffffff166108fc349081150290604051600060405180830381858888f1935050505015801561037b573d6000803e3d6000fd5b506001600060146101000a81548160ff021916908360018111156103a2576103a1610449565b5b02179055507f8a1baed21859112417dade4135990d21555a912a901803f24316a19a8d6ad8b033346040516103d89291906105bb565b60405180910390a150565b60008060149054906101000a900460ff16905090565b60008060146101000a81548160ff0219169083600181111561041e5761041d610449565b5b0217905550565b60008054906101000a900473ffffffffffffffffffffffffffffffffffffffff1681565b7f4e487b7100000000000000000000000000000000000000000000000000000000600052602160045260246000fd5b600082825260208201905092915050565b7f546865204c616d626f20697320616c72656164792072656e7465640000000000600082015250565b60006104bf601b83610478565b91506104ca82610489565b602082019050919050565b600060208201905081810360008301526104ee816104b2565b9050919050565b7f4e6f7420656e6f75676820457468657200000000000000000000000000000000600082015250565b600061052b601083610478565b9150610536826104f5565b602082019050919050565b6000602082019050818103600083015261055a8161051e565b9050919050565b600073ffffffffffffffffffffffffffffffffffffffff82169050919050565b600061058c82610561565b9050919050565b61059c81610581565b82525050565b6000819050919050565b6105b5816105a2565b82525050565b60006040820190506105d06000830185610593565b6105dd60208301846105ac565b9392505050565b600281106105f5576105f4610449565b5b50565b6000819050610606826105e4565b919050565b6000610616826105f8565b9050919050565b6106268161060b565b82525050565b6000602082019050610641600083018461061d565b92915050565b600061065282610561565b9050919050565b61066281610647565b82525050565b600060208201905061067d6000830184610659565b9291505056fea264697066735822122028fb987bb6e5a1ae1724cc92ca1003c50427526423f0e27fa6a6b77c7a82d46364736f6c63430008120033",
			"opcodes": "PUSH1 0x80 PUSH1 0x40 MSTORE CALLVALUE DUP1 ISZERO PUSH2 0x10 JUMPI PUSH1 0x0 DUP1 REVERT JUMPDEST POP CALLER PUSH1 0x0 DUP1 PUSH2 0x100 EXP DUP2 SLOAD DUP2 PUSH20 0xFFFFFFFFFFFFFFFFFFFFFFFFFFFFFFFFFFFFFFFF MUL NOT AND SWAP1 DUP4 PUSH20 0xFFFFFFFFFFFFFFFFFFFFFFFFFFFFFFFFFFFFFFFF AND MUL OR SWAP1 SSTORE POP PUSH1 0x0 DUP1 PUSH1 0x14 PUSH2 0x100 EXP DUP2 SLOAD DUP2 PUSH1 0xFF MUL NOT AND SWAP1 DUP4 PUSH1 0x1 DUP2 GT ISZERO PUSH2 0x76 JUMPI PUSH2 0x75 PUSH2 0x80 JUMP JUMPDEST JUMPDEST MUL OR SWAP1 SSTORE POP PUSH2 0xAF JUMP JUMPDEST PUSH32 0x4E487B7100000000000000000000000000000000000000000000000000000000 PUSH1 0x0 MSTORE PUSH1 0x21 PUSH1 0x4 MSTORE PUSH1 0x24 PUSH1 0x0 REVERT JUMPDEST PUSH2 0x6B9 DUP1 PUSH2 0xBE PUSH1 0x0 CODECOPY PUSH1 0x0 RETURN INVALID PUSH1 0x80 PUSH1 0x40 MSTORE PUSH1 0x4 CALLDATASIZE LT PUSH2 0x43 JUMPI PUSH1 0x0 CALLDATALOAD PUSH1 0xE0 SHR DUP1 PUSH4 0x6184F2D7 EQ PUSH2 0x1DC JUMPI DUP1 PUSH4 0x680BAEB8 EQ PUSH2 0x1E6 JUMPI DUP1 PUSH4 0xAC517774 EQ PUSH2 0x211 JUMPI DUP1 PUSH4 0xCE606EE0 EQ PUSH2 0x228 JUMPI PUSH2 0x1D7 JUMP JUMPDEST CALLDATASIZE PUSH2 0x1D7 JUMPI PUSH1 0x0 PUSH1 0x1 DUP2 GT ISZERO PUSH2 0x5C JUMPI PUSH2 0x5B PUSH2 0x449 JUMP JUMPDEST JUMPDEST PUSH1 0x0 PUSH1 0x14 SWAP1 SLOAD SWAP1 PUSH2 0x100 EXP SWAP1 DIV PUSH1 0xFF AND PUSH1 0x1 DUP2 GT ISZERO PUSH2 0x7E JUMPI PUSH2 0x7D PUSH2 0x449 JUMP JUMPDEST JUMPDEST EQ PUSH2 0xBE JUMPI PUSH1 0x40 MLOAD PUSH32 0x8C379A000000000000000000000000000000000000000000000000000000000 DUP2 MSTORE PUSH1 0x4 ADD PUSH2 0xB5 SWAP1 PUSH2 0x4D5 JUMP JUMPDEST PUSH1 0x40 MLOAD DUP1 SWAP2 SUB SWAP1 REVERT JUMPDEST PUSH8 0x1BC16D674EC80000 DUP1 CALLVALUE LT ISZERO PUSH2 0x10A JUMPI PUSH1 0x40 MLOAD PUSH32 0x8C379A000000000000000000000000000000000000000000000000000000000 DUP2 MSTORE PUSH1 0x4 ADD PUSH2 0x101 SWAP1 PUSH2 0x541 JUMP JUMPDEST PUSH1 0x40 MLOAD DUP1 SWAP2 SUB SWAP1 REVERT JUMPDEST PUSH1 0x0 DUP1 SLOAD SWAP1 PUSH2 0x100 EXP SWAP1 DIV PUSH20 0xFFFFFFFFFFFFFFFFFFFFFFFFFFFFFFFFFFFFFFFF AND PUSH20 0xFFFFFFFFFFFFFFFFFFFFFFFFFFFFFFFFFFFFFFFF AND PUSH2 0x8FC CALLVALUE SWAP1 DUP2 ISZERO MUL SWAP1 PUSH1 0x40 MLOAD PUSH1 0x0 PUSH1 0x40 MLOAD DUP1 DUP4 SUB DUP2 DUP6 DUP9 DUP9 CALL SWAP4 POP POP POP POP ISZERO DUP1 ISZERO PUSH2 0x170 JUMPI RETURNDATASIZE PUSH1 0x0 DUP1 RETURNDATACOPY RETURNDATASIZE PUSH1 0x0 REVERT JUMPDEST POP PUSH1 0x1 PUSH1 0x0 PUSH1 0x14 PUSH2 0x100 EXP DUP2 SLOAD DUP2 PUSH1 0xFF MUL NOT AND SWAP1 DUP4 PUSH1 0x1 DUP2 GT ISZERO PUSH2 0x197 JUMPI PUSH2 0x196 PUSH2 0x449 JUMP JUMPDEST JUMPDEST MUL OR SWAP1 SSTORE POP PUSH32 0x8A1BAED21859112417DADE4135990D21555A912A901803F24316A19A8D6AD8B0 CALLER CALLVALUE PUSH1 0x40 MLOAD PUSH2 0x1CD SWAP3 SWAP2 SWAP1 PUSH2 0x5BB JUMP JUMPDEST PUSH1 0x40 MLOAD DUP1 SWAP2 SUB SWAP1 LOG1 STOP JUMPDEST PUSH1 0x0 DUP1 REVERT JUMPDEST PUSH2 0x1E4 PUSH2 0x253 JUMP JUMPDEST STOP JUMPDEST CALLVALUE DUP1 ISZERO PUSH2 0x1F2 JUMPI PUSH1 0x0 DUP1 REVERT JUMPDEST POP PUSH2 0x1FB PUSH2 0x3E3 JUMP JUMPDEST PUSH1 0x40 MLOAD PUSH2 0x208 SWAP2 SWAP1 PUSH2 0x62C JUMP JUMPDEST PUSH1 0x40 MLOAD DUP1 SWAP2 SUB SWAP1 RETURN JUMPDEST CALLVALUE DUP1 ISZERO PUSH2 0x21D JUMPI PUSH1 0x0 DUP1 REVERT JUMPDEST POP PUSH2 0x226 PUSH2 0x3F9 JUMP JUMPDEST STOP JUMPDEST CALLVALUE DUP1 ISZERO PUSH2 0x234 JUMPI PUSH1 0x0 DUP1 REVERT JUMPDEST POP PUSH2 0x23D PUSH2 0x425 JUMP JUMPDEST PUSH1 0x40 MLOAD PUSH2 0x24A SWAP2 SWAP1 PUSH2 0x668 JUMP JUMPDEST PUSH1 0x40 MLOAD DUP1 SWAP2 SUB SWAP1 RETURN JUMPDEST PUSH1 0x0 PUSH1 0x1 DUP2 GT ISZERO PUSH2 0x267 JUMPI PUSH2 0x266 PUSH2 0x449 JUMP JUMPDEST JUMPDEST PUSH1 0x0 PUSH1 0x14 SWAP1 SLOAD SWAP1 PUSH2 0x100 EXP SWAP1 DIV PUSH1 0xFF AND PUSH1 0x1 DUP2 GT ISZERO PUSH2 0x289 JUMPI PUSH2 0x288 PUSH2 0x449 JUMP JUMPDEST JUMPDEST EQ PUSH2 0x2C9 JUMPI PUSH1 0x40 MLOAD PUSH32 0x8C379A000000000000000000000000000000000000000000000000000000000 DUP2 MSTORE PUSH1 0x4 ADD PUSH2 0x2C0 SWAP1 PUSH2 0x4D5 JUMP JUMPDEST PUSH1 0x40 MLOAD DUP1 SWAP2 SUB SWAP1 REVERT JUMPDEST PUSH8 0x1BC16D674EC80000 DUP1 CALLVALUE LT ISZERO PUSH2 0x315 JUMPI PUSH1 0x40 MLOAD PUSH32 0x8C379A000000000000000000000000000000000000000000000000000000000 DUP2 MSTORE PUSH1 0x4 ADD PUSH2 0x30C SWAP1 PUSH2 0x541 JUMP JUMPDEST PUSH1 0x40 MLOAD DUP1 SWAP2 SUB SWAP1 REVERT JUMPDEST PUSH1 0x0 DUP1 SLOAD SWAP1 PUSH2 0x100 EXP SWAP1 DIV PUSH20 0xFFFFFFFFFFFFFFFFFFFFFFFFFFFFFFFFFFFFFFFF AND PUSH20 0xFFFFFFFFFFFFFFFFFFFFFFFFFFFFFFFFFFFFFFFF AND PUSH2 0x8FC CALLVALUE SWAP1 DUP2 ISZERO MUL SWAP1 PUSH1 0x40 MLOAD PUSH1 0x0 PUSH1 0x40 MLOAD DUP1 DUP4 SUB DUP2 DUP6 DUP9 DUP9 CALL SWAP4 POP POP POP POP ISZERO DUP1 ISZERO PUSH2 0x37B JUMPI RETURNDATASIZE PUSH1 0x0 DUP1 RETURNDATACOPY RETURNDATASIZE PUSH1 0x0 REVERT JUMPDEST POP PUSH1 0x1 PUSH1 0x0 PUSH1 0x14 PUSH2 0x100 EXP DUP2 SLOAD DUP2 PUSH1 0xFF MUL NOT AND SWAP1 DUP4 PUSH1 0x1 DUP2 GT ISZERO PUSH2 0x3A2 JUMPI PUSH2 0x3A1 PUSH2 0x449 JUMP JUMPDEST JUMPDEST MUL OR SWAP1 SSTORE POP PUSH32 0x8A1BAED21859112417DADE4135990D21555A912A901803F24316A19A8D6AD8B0 CALLER CALLVALUE PUSH1 0x40 MLOAD PUSH2 0x3D8 SWAP3 SWAP2 SWAP1 PUSH2 0x5BB JUMP JUMPDEST PUSH1 0x40 MLOAD DUP1 SWAP2 SUB SWAP1 LOG1 POP JUMP JUMPDEST PUSH1 0x0 DUP1 PUSH1 0x14 SWAP1 SLOAD SWAP1 PUSH2 0x100 EXP SWAP1 DIV PUSH1 0xFF AND SWAP1 POP SWAP1 JUMP JUMPDEST PUSH1 0x0 DUP1 PUSH1 0x14 PUSH2 0x100 EXP DUP2 SLOAD DUP2 PUSH1 0xFF MUL NOT AND SWAP1 DUP4 PUSH1 0x1 DUP2 GT ISZERO PUSH2 0x41E JUMPI PUSH2 0x41D PUSH2 0x449 JUMP JUMPDEST JUMPDEST MUL OR SWAP1 SSTORE POP JUMP JUMPDEST PUSH1 0x0 DUP1 SLOAD SWAP1 PUSH2 0x100 EXP SWAP1 DIV PUSH20 0xFFFFFFFFFFFFFFFFFFFFFFFFFFFFFFFFFFFFFFFF AND DUP2 JUMP JUMPDEST PUSH32 0x4E487B7100000000000000000000000000000000000000000000000000000000 PUSH1 0x0 MSTORE PUSH1 0x21 PUSH1 0x4 MSTORE PUSH1 0x24 PUSH1 0x0 REVERT JUMPDEST PUSH1 0x0 DUP3 DUP3 MSTORE PUSH1 0x20 DUP3 ADD SWAP1 POP SWAP3 SWAP2 POP POP JUMP JUMPDEST PUSH32 0x546865204C616D626F20697320616C72656164792072656E7465640000000000 PUSH1 0x0 DUP3 ADD MSTORE POP JUMP JUMPDEST PUSH1 0x0 PUSH2 0x4BF PUSH1 0x1B DUP4 PUSH2 0x478 JUMP JUMPDEST SWAP2 POP PUSH2 0x4CA DUP3 PUSH2 0x489 JUMP JUMPDEST PUSH1 0x20 DUP3 ADD SWAP1 POP SWAP2 SWAP1 POP JUMP JUMPDEST PUSH1 0x0 PUSH1 0x20 DUP3 ADD SWAP1 POP DUP2 DUP2 SUB PUSH1 0x0 DUP4 ADD MSTORE PUSH2 0x4EE DUP2 PUSH2 0x4B2 JUMP JUMPDEST SWAP1 POP SWAP2 SWAP1 POP JUMP JUMPDEST PUSH32 0x4E6F7420656E6F75676820457468657200000000000000000000000000000000 PUSH1 0x0 DUP3 ADD MSTORE POP JUMP JUMPDEST PUSH1 0x0 PUSH2 0x52B PUSH1 0x10 DUP4 PUSH2 0x478 JUMP JUMPDEST SWAP2 POP PUSH2 0x536 DUP3 PUSH2 0x4F5 JUMP JUMPDEST PUSH1 0x20 DUP3 ADD SWAP1 POP SWAP2 SWAP1 POP JUMP JUMPDEST PUSH1 0x0 PUSH1 0x20 DUP3 ADD SWAP1 POP DUP2 DUP2 SUB PUSH1 0x0 DUP4 ADD MSTORE PUSH2 0x55A DUP2 PUSH2 0x51E JUMP JUMPDEST SWAP1 POP SWAP2 SWAP1 POP JUMP JUMPDEST PUSH1 0x0 PUSH20 0xFFFFFFFFFFFFFFFFFFFFFFFFFFFFFFFFFFFFFFFF DUP3 AND SWAP1 POP SWAP2 SWAP1 POP JUMP JUMPDEST PUSH1 0x0 PUSH2 0x58C DUP3 PUSH2 0x561 JUMP JUMPDEST SWAP1 POP SWAP2 SWAP1 POP JUMP JUMPDEST PUSH2 0x59C DUP2 PUSH2 0x581 JUMP JUMPDEST DUP3 MSTORE POP POP JUMP JUMPDEST PUSH1 0x0 DUP2 SWAP1 POP SWAP2 SWAP1 POP JUMP JUMPDEST PUSH2 0x5B5 DUP2 PUSH2 0x5A2 JUMP JUMPDEST DUP3 MSTORE POP POP JUMP JUMPDEST PUSH1 0x0 PUSH1 0x40 DUP3 ADD SWAP1 POP PUSH2 0x5D0 PUSH1 0x0 DUP4 ADD DUP6 PUSH2 0x593 JUMP JUMPDEST PUSH2 0x5DD PUSH1 0x20 DUP4 ADD DUP5 PUSH2 0x5AC JUMP JUMPDEST SWAP4 SWAP3 POP POP POP JUMP JUMPDEST PUSH1 0x2 DUP2 LT PUSH2 0x5F5 JUMPI PUSH2 0x5F4 PUSH2 0x449 JUMP JUMPDEST JUMPDEST POP JUMP JUMPDEST PUSH1 0x0 DUP2 SWAP1 POP PUSH2 0x606 DUP3 PUSH2 0x5E4 JUMP JUMPDEST SWAP2 SWAP1 POP JUMP JUMPDEST PUSH1 0x0 PUSH2 0x616 DUP3 PUSH2 0x5F8 JUMP JUMPDEST SWAP1 POP SWAP2 SWAP1 POP JUMP JUMPDEST PUSH2 0x626 DUP2 PUSH2 0x60B JUMP JUMPDEST DUP3 MSTORE POP POP JUMP JUMPDEST PUSH1 0x0 PUSH1 0x20 DUP3 ADD SWAP1 POP PUSH2 0x641 PUSH1 0x0 DUP4 ADD DUP5 PUSH2 0x61D JUMP JUMPDEST SWAP3 SWAP2 POP POP JUMP JUMPDEST PUSH1 0x0 PUSH2 0x652 DUP3 PUSH2 0x561 JUMP JUMPDEST SWAP1 POP SWAP2 SWAP1 POP JUMP JUMPDEST PUSH2 0x662 DUP2 PUSH2 0x647 JUMP JUMPDEST DUP3 MSTORE POP POP JUMP JUMPDEST PUSH1 0x0 PUSH1 0x20 DUP3 ADD SWAP1 POP PUSH2 0x67D PUSH1 0x0 DUP4 ADD DUP5 PUSH2 0x659 JUMP JUMPDEST SWAP3 SWAP2 POP POP JUMP INVALID LOG2 PUSH5 0x6970667358 0x22 SLT KECCAK256 0x28 0xFB SWAP9 PUSH28 0xB6E5A1AE1724CC92CA1003C50427526423F0E27FA6A6B77C7A82D463 PUSH5 0x736F6C6343 STOP ADDMOD SLT STOP CALLER "
		},
		"gasEstimates": {
			"creation": {
				"codeDepositCost": "344200",
				"executionCost": "48995",
				"totalCost": "393195"
			},
			"external": {
				"contractOwner()": "2555",
				"getCondition()": "2618",
				"rentLambo()": "infinite",
				"returnLambo()": "24503"
			}
		},
		"methodIdentifiers": {
			"contractOwner()": "ce606ee0",
			"getCondition()": "680baeb8",
			"rentLambo()": "6184f2d7",
			"returnLambo()": "ac517774"
		}
	},
	"abi": [
		{
			"inputs": [],
			"stateMutability": "nonpayable",
			"type": "constructor"
		},
		{
			"anonymous": false,
			"inputs": [
				{
					"indexed": false,
					"internalType": "address",
					"name": "_customer",
					"type": "address"
				},
				{
					"indexed": false,
					"internalType": "uint256",
					"name": "_amount",
					"type": "uint256"
				}
			],
			"name": "Rented",
			"type": "event"
		},
		{
			"inputs": [],
			"name": "contractOwner",
			"outputs": [
				{
					"internalType": "address payable",
					"name": "",
					"type": "address"
				}
			],
			"stateMutability": "view",
			"type": "function"
		},
		{
			"inputs": [],
			"name": "getCondition",
			"outputs": [
				{
					"internalType": "enum RentLambo.LamboConditions",
					"name": "",
					"type": "uint8"
				}
			],
			"stateMutability": "view",
			"type": "function"
		},
		{
			"inputs": [],
			"name": "rentLambo",
			"outputs": [],
			"stateMutability": "payable",
			"type": "function"
		},
		{
			"inputs": [],
			"name": "returnLambo",
			"outputs": [],
			"stateMutability": "nonpayable",
			"type": "function"
		},
		{
			"stateMutability": "payable",
			"type": "receive"
		}
	]
}